:020000040800F2
:10000000000003205D130008491D0008651D00085D
:10001000811D00089D1D0008B91D0008000000009A
:10002000000000000000000000000000D51D0008D6
:10003000E31D000800000000F11D0008FF1D00087E
:10004000AD130008AD130008AD130008AD13000890
:10005000AD130008AD130008AD130008AD13000880
:10006000AD130008AD130008AD130008AD13000870
:10007000AD130008AD130008AD130008AD13000860
:10008000AD130008AD130008AD130008AD13000850
:10009000AD130008AD130008AD130008AD13000840
:1000A000AD130008AD130008AD130008AD13000830
:1000B000AD130008AD130008AD130008AD13000820
:1000C000AD130008AD130008AD130008AD13000810
:1000D000AD130008AD130008AD1300086D3C000817
:1000E00089580008AD130008AD130008AD130008CF
:1000F000AD130008AD130008AD130008AD130008E0
:10010000AD130008AD130008AD130008AD130008CF
:10011000AD130008AD130008AD130008AD130008BF
:10012000AD130008AD130008AD130008AD130008AF
:10013000AD130008AD130008AD130008AD1300089F
:10014000AD130008AD130008AD130008AD1300088F
:10015000AD130008AD130008AD130008AD1300087F
:10016000AD130008AD130008AD130008AD1300086F
:10017000AD130008AD130008AD1300080000000027
:10018000AD130008AD130008AD130008AD1300084F
:10019000AD130008AD130008AD130008AD1300083F
:0C01A000AD130008AD130008AD130008FB
:1001B0000348044B834202D0034B03B118477047F6
:1001C0007C0000207C00002000000000054806495B
:1001D0000B1AD90F01EBA301491002D0034B03B155
:1001E000184770477C0000207C00002000000000C1
:1001F00010B5064C237843B9FFF7DAFF044B13B16F
:100200000448AFF300800123237010BD7C00002060
:1002100000000000485C000808B5044B1BB104490D
:100220000448AFF30080BDE80840CFE700000000BD
:1002300080000020485C0008014B1868704700BF30
:100240000000002070B50D4E0D4D761BB61006D087
:100250000024013455F8043B9847A642F9D1094ED1
:10026000094D761B05F0F0FCB61006D000240134D1
:1002700055F8043B9847A642F9D170BD5067000875
:10028000506700085467000850670008024B014699
:10029000186800F019B900BF00000020024B0146A9
:1002A000186800F0BBB800BF000000208842F0B41E
:1002B0000DD98B1883420AD9841832B1224613F81B
:1002C000014D02F8014D9942F9D1F0BC70470F2A57
:1002D0000ED80346541E002AF7D001340C44013BCB
:1002E00011F8012B03F8012FA142F9D1F0BC70479E
:1002F00040EA01039B073BD1A2F110073F0901F13E
:10030000200606EB071601F1100300F1100453F864
:10031000105C44F8105C53F80C5C44F80C5C53F827
:10032000085C44F8085C53F8045C44F8045C10333F
:10033000B34204F11004EAD17B1C1B0112F00C0F34
:10034000194402F00F05034415D0043DAD0803EB3A
:10035000850C1C1F0E4656F8047B44F8047F644548
:10036000F9D10135AD002B44294402F00302B1E775
:10037000541E0346B1E72A46ACE700BFF0B4860737
:1003800046D0541E002A3CD0CAB2034602E014F103
:10039000FF3436D303F8012B9D07F8D1032C29D95C
:1003A000CDB245EA05250F2C45EA054533D9A4F120
:1003B0001006360903F1200707EB061703F11002B8
:1003C00042E9045542E902551032BA42F8D1721C92
:1003D00014F00C0F03EB021204F00F0613D0331FBE
:1003E00023F003030433134442F8045B9342FBD12C
:1003F00006F003042CB1C9B21C4403F8011B9C4253
:10040000FBD1F0BC704734461346002CF3D1F8E71B
:1004100014460346C2E71A462646E0E700293CD0C8
:1004200038B551F8043C0C1F002BB8BFE418054642
:1004300000F0D0FB234B1A682AB1A2420DD92168E3
:100440006018824223D0626028461C60BDE83840B4
:1004500000F0C2BBA34203D81A465368002BF9D15F
:1004600011685018A04219D024D82168601883421E
:1004700006D0636054602846BDE8384000F0ACBB4D
:10048000D3E900030144636021605460F3E7D2E9DB
:100490000002014462602160D6E770472068014491
:1004A000501883421160E6D1D3E900030144536040
:1004B0001160E0E70C232B602846BDE8384000F0CF
:1004C0008BBB00BF98000020F8B5CD1C25F00305BC
:1004D00008350C2D38BF0C25002D064633DBA9420C
:1004E00031D82A4F00F076FB3A6852B113685B1B93
:1004F00004D43FE023685B1B29D522465468002CB6
:10050000F8D1796800293BD02946304600F022FA1C
:10051000431C28D0C41C24F00304A04205D0211A97
:10052000304600F017FA01301DD02560304600F04B
:1005300053FB04F10B0020F00700231DC21A01D069
:100540001B1AA350F8BD0C2232600020F8BD0B2B03
:1005500005D8A242636811D05360E7E714462360D0
:100560001C442560E2E70C233046336000F034FB86
:100570000020F8BD0B2BF1D8536814463B60D5E73B
:10058000304600F0E7F97860BEE700BF9800002031
:100590002DE9F0470C4691460A698968DDF820800C
:1005A0008A42B8BF0A46C9F8002094F843100646AC
:1005B0001F4611B10132C9F80020236899065CD5A5
:1005C000D9F800200232C9F80020236813F0060F82
:1005D00019461DD1E1688A1A002AD8BF194617DDCD
:1005E00004F1190A002505E0E368D9F800209B1AF8
:1005F000AB420CDD0123524639463046C04701303C
:1006000005F10105F0D14FF0FF30BDE8F08721681A
:1006100094F84330003318BF01238A060AD5E11845
:100620005A1C302081F84300224494F8451082F887
:100630004310023304F1430239463046C0470130CB
:10064000E1D02368A268216903F00603042B1DD0C2
:100650008A4226DD4FF00009521A91441A340025CF
:1006600001E04D451DDA0123224639463046C04798
:10067000013005F10105F4D1C5E713F0060F13D0E1
:1006800094F84330003318BF0123D3E7D9F80000B2
:10069000E3688A42A3EB000323EAE379DCDC002B66
:1006A000DCDC0020BDE8F087E168D9F800208A1A78
:1006B000002AD8BF194693DCAAE700BF2DE9F04312
:1006C0000C46097E85B06E29064617460C9898465A
:1006D00004F1430E6DD039D9732900F0F68044D966
:1006E000752900F00481782940F01181782322686F
:1006F000DFF858C284F845300168150651F8043B0C
:10070000016040F1A180D10744BF42F02002226085
:10071000002B00F093801022002184F843106068C1
:10072000A0600028C0F2C880216821F00401216087
:10073000002B40F0A380002840F0C0807546082AB6
:1007400000F0AC80AEEB0503236141E0632900F0CB
:10075000E5801AD8002938D0582940F0D88084F88C
:1007600045102268DFF8E8C1C6E76F2900F0BF80B6
:10077000702940F0CC802268DFF8D0C142F020021E
:100780007823226084F84530B6E7642902D06929CD
:1007900040F0BD8022680368110603F1040557D5B7
:1007A000196805600B46002959DBDFF8A4C10A224D
:1007B000B5E70368226861691D1D056015061B68A1
:1007C00002D4500600F1BD801960002375462361F4
:1007D000CDF800803B4603AA21463046FFF7D8FEFD
:1007E000013020D02A46236939463046C0470130BF
:1007F00019D022680398E368920719D51A1A002ABB
:1008000016DD04F11909002504E0E36803981A1ABB
:10081000AA420DDD01234A4639463046C047013021
:1008200005F10105F1D14FF0FF3005B0BDE8F083CF
:100830009842B8BF184605B0BDE8F083226822F0A0
:1008400020022260102267E7500648BF9BB25AE799
:100850005106A5D5B3F9003005601946A3E76168D4
:10086000A1602D200029C3F1000384F8430002DBBE
:1008700022F004022260DFF8D8C00A22754600E0A8
:100880000B46B3FBF2F102FB113093421CF800005F
:1008900005F8010DF4D2082A7FF454AF2368DB0772
:1008A0007FF550AF626823699A423FF74BAF302320
:1008B00005F8013C013D45E7002BDFD19CF80030F5
:1008C00084F8423004F1420539E703686268191D73
:1008D00001601D680021284600F092F8002832D0FF
:1008E000401B60602061002384F8433070E7226879
:1008F000036812F0800F03F104051AD01B6805602D
:100900006F290CBF08220A22DFF844C004E7012344
:1009100084F84210236104F14205E4E703681A6891
:10092000191D0123016004F1420584F8422023616E
:10093000D9E712F0400F0DBF1B6805601B880560EA
:10094000DEE7198041E76068CCE700BF2067000858
:100950000C67000838B5074C00230546084623609D
:1009600001F054FA431C00D038BD2368002BFBD0A3
:100970002B6038BD8801002070B5141E9AB0054662
:100980002BDB1A464FF4027300910491ADF80C3042
:1009900013D0013C4FF6FF761E9B029469460594E6
:1009A000ADF80E6000F01CFA421C01DA8B232B60BC
:1009B000009B00221A701AB070BD1E9B02944FF665
:1009C000FF7669460594ADF80E6000F009FA431C05
:1009D00001DA8B232B601AB070BD8B2303604FF0BC
:1009E000FF30F8E710B5054C82B0009313460A4675
:1009F00001462068FFF7C0FF02B010BD00000020D4
:100A000001F0FF01102A2BDB10F0070F08D010F8BF
:100A1000013B013A8B422DD010F0070F42B3F6D1C3
:100A2000F0B441EA012141EA014122F007047FF0DC
:100A300000070023F0E80256083C85EA010586EA33
:100A4000010685FA47F5A3FA87F586FA47F6A5FA6F
:100A500087F68EB9EED1F0BC01F0FF0102F007027B
:100A600032B110F8013B013A83EA010313B1F8D126
:100A70000020704701387047002D06BF3546033807
:100A8000073815F0010F07D1013015F4807F02BF40
:100A9000013015F4C03F0130F0BC0138704700BF91
:100AA000844641EA000313F003036DD1403A41D379
:100AB00051F8043B40F8043B51F8043B40F8043B38
:100AC00051F8043B40F8043B51F8043B40F8043B28
:100AD00051F8043B40F8043B51F8043B40F8043B18
:100AE00051F8043B40F8043B51F8043B40F8043B08
:100AF00051F8043B40F8043B51F8043B40F8043BF8
:100B000051F8043B40F8043B51F8043B40F8043BE7
:100B100051F8043B40F8043B51F8043B40F8043BD7
:100B200051F8043B40F8043B51F8043B40F8043BC7
:100B3000403ABDD2303211D351F8043B40F8043B67
:100B400051F8043B40F8043B51F8043B40F8043BA7
:100B500051F8043B40F8043B103AEDD20C3205D377
:100B600051F8043B40F8043B043AF9D2043208D06F
:100B7000D2071CBF11F8013B00F8013B01D30B88E1
:100B800003806046704700BF082A13D38B078DD0BF
:100B900010F003038AD0C3F10403D21ADB071CBF91
:100BA00011F8013B00F8013B80D331F8023B20F8FB
:100BB000023B7BE7043AD9D3013A11F8013B00F834
:100BC000013BF9D20B7803704B7843708B788370BC
:100BD00060467047704700BF704700BF09B3F8B563
:100BE0001446CAB106460D4600F034FAA04202D3BC
:100BF0002F463846F8BD21463046FFF765FC0746CC
:100C00000028F6D022462946FFF74AFF30462946FB
:100C1000FFF704FC3846F8BD2746FFF7FFFB3846D0
:100C2000F8BD1146FFF750BC2DE9F0478E681D4610
:100C3000AE420C460B68174636D88046888910F4B9
:100C4000906F0ED1354618462A463946FFF72EFBDF
:100C5000A2682368961B2B44A66023600020BDE891
:100C6000F087D1E9041606EB4606A3EB010906EB73
:100C7000D6766B1C76104B44B342324684BF1E4678
:100C80003246430512D511464046FFF71DFC824609
:100C900000B34A462169FFF703FFA38923F4906359
:100CA00043F08003A38106E02E46CCE74046FFF7E1
:100CB00095FF824650B1A6EB09020AEB0903666173
:100CC000C4F810A02360A2602E46BCE7216940460C
:100CD000FFF7A4FB0C23C8F80030A38943F04003BE
:100CE000A3814FF0FF30BAE72DE9F04F936883B04E
:100CF0009046002B6DD017688D6882460C460868B8
:100D0000083743E0A38913F4906F2ED0D4E904157B
:100D100005EB4505A0EB010B05EBD5750BEB0600CC
:100D20006D100130A8422A4684BF05462A465B055D
:100D300036D511465046FFF7C7FB00283AD05A4631
:100D400021690190FFF7ACFEA289019B22F4906219
:100D500042F08002A281A5EB0B0203EB0B00656160
:100D600023612060A2603546B3465A464946FFF7E4
:100D70009DFAD8F80830A2682068551B58449E1B7D
:100D8000A5602060C8F808601EB3083757E90296CE
:100D9000AB46002EF9D0AE42B4D23546B346E4E7B6
:100DA0005046FFF71BFF03460028D4D12169504667
:100DB000FFF734FB0C23CAF80030A389002243F06C
:100DC00040034FF0FF30A381C8E9012203B0BDE822
:100DD000F08F0020C8F8040003B0BDE8F08F00BF1A
:100DE0002DE9F04F90468A899FB014068B460290F9
:100DF00003D50A69002A00F00B81059330238DF892
:100E0000323098F800308E4E002120220B918DF860
:100E100031200127002B00F08480252B00F0F68084
:100E2000454603E0252B00F0868025466B786C1C38
:100E3000002BF7D1B4EB080A73D04246534659460B
:100E40000298FFF7F1FE01306BD00B9B6A78534498
:100E50000B93002A65D000234FF0FF320134069334
:100E6000CDE908338DF85B301C93079205E0069AB4
:100E700007FA03F313432C4606932546052215F87B
:100E8000011B3046FFF7BCFDAA46831B0028EED1AC
:100E9000069BD90644BF20228DF85B2021781A07D3
:100EA00044BF2B228DF85B202A2948D1059A11686E
:100EB0000432002905927EDB09916178A51C2E2958
:100EC00056D0604C03222046FFF79AFD002868D0D8
:100ED000001B069B402404FA00F00343069305F12F
:100EE0000108297858488DF830100622FFF788FD50
:100EF000002866D0554B002B56D005AB00935A46C0
:100F0000534B029806A9AFF300808146B9F1FF3F29
:100F100007D00B9B4B440B9398F80030002B7FF4C9
:100F20007CAFBBF80C305B0654BF0B984FF0FF3022
:100F30001FB0BDE8F08FB4EB080A8CD07DE7A1F1BB
:100F40003002092A88BFA246B9D8099B01E02C4685
:100F50000135297803EB830302EB4303A1F130024F
:100F6000092AAA46F3D92E2904F102050993A8D12A
:100F70009AF801102A292ED1059B9AF802101A68B6
:100F800007920433002A05930AF103050AF10203CC
:100F900037DB2C4C032220469A46FFF731FD002810
:100FA00096D1A84655469CE7059B073323F00703D7
:100FB00008330593ADE7494243F0020309910693D4
:100FC0007BE705AB00935A46214B029806A9FFF731
:100FD00075FB81469AE7A1F130020023092A0793A5
:100FE00001D923E05546697803EB830302EB430301
:100FF000A1F13002092A05F1010AF3D9023507935C
:101000005FE74FF0FF329A4607925AE7444622E7DD
:1010100040210393FFF758FA039BCBF80000CBF86D
:10102000100030B14022CBF81420E6E6AA46013584
:1010300047E7029A0C2313604FF0FF3078E700BFB8
:10104000346700083C6700084067000800000000A3
:10105000290C000851F8043C181F002BBCBF0B588A
:10106000C018704753B94AB9002908BF00281CBFEF
:101070004FF0FF314FF0FF3000F06EB9ADF1080CCA
:101080006DE904CE00F006F8DDF804E0DDE90223A6
:1010900004B070472DE9F047089D04468C46002BAC
:1010A00040F083808A42174647D9B2FA82F242B1B1
:1010B000C2F1200024FA00F09140974040EA010C70
:1010C00094404FEA1748230CBCFBF8F61FFA87FE42
:1010D00008FB16C143EA014306FB0EF1994209D908
:1010E000FB1806F1FF3080F01981994240F2168119
:1010F000023E3B445B1AA4B2B3FBF8F008FB10338A
:1011000044EA034400FB0EFEA64509D93C1900F150
:10111000FF3380F00581A64540F2028102383C444D
:1011200040EA0640A4EB0E0400261DB1D440002383
:10113000C5E900433146BDE8F08702B9FFDEB2FAE7
:1011400082F2002A50D1CB1B4FEA174E1FFA87F8C4
:101150000126B3FBFEFC210C0EFB1C3341EA0341CC
:1011600008FB0CF38B4207D979180CF1FF3002D23F
:101170008B4200F2E9808446C91AA3B2B1FBFEF0AB
:101180000EFB101143EA014408FB00F8A04507D903
:101190003C1900F1FF3302D2A04500F2D980184675
:1011A000A4EB080440EA0C40BFE78B4209D9002DAC
:1011B00000F0B1800026C5E9000130463146BDE8A7
:1011C000F087B3FA83F6002E4AD18B4202D38242D3
:1011D00000F2B880841A61EB030101208C46002DD7
:1011E000A8D0C5E9004CA5E7C2F1200320FA03F618
:1011F000974001FA02F04FEA174ED9403043030CF2
:10120000B1FBFEF61FFA87F80EFB161143EA014305
:1012100006FB08F1994204FA02F409D9FB1806F119
:10122000FF3C80F08D80994240F28A80023E3B4430
:101230005B1A81B2B3FBFEF00EFB103341EA0341AF
:1012400000FB08F38B4207D9791800F1FF3C73D2F9
:101250008B4271D902383944CB1A40EA064678E706
:10126000C6F1200C03FA06F422FA0CF31C4320FA10
:101270000CF701FA06F34FEA144E21FA0CF11F4362
:101280003B0CB1FBFEF91FFA84F80EFB191143EA7F
:10129000014109FB08FA8A4502FA06F200FA06F350
:1012A00008D9611809F1FF3048D28A4546D9A9F119
:1012B00002092144A1EB0A01BFB2B1FBFEF00EFB13
:1012C000101147EA014700FB08F8B84507D9E719AC
:1012D00000F1FF312ED2B8452CD90238274440EA1C
:1012E0000940A7EB0807A0FB02894F45C6464946BF
:1012F0001AD317D05DB1B3EB0E0267EB010707FA03
:101300000CFCF2404CEA0202F740C5E90027002637
:101310003146BDE8F0872E4628460BE70646E9E64B
:101320001846FDE64345E5D2B8EB020E69EB040131
:101330000138DFE70846D2E760468DE78146B9E726
:10134000664675E730464AE7ACF1020C394413E7CC
:1013500002383C4424E700BF704700BFDFF834D0B8
:101360000D480E490E4A002302E0D458C4500433FD
:10137000C4188C42F9D30B4A0B4C002301E01360D4
:101380000432A242FBD300F077FDFEF75BFF04F0CE
:101390009BFA704700000320000000207C00002022
:1013A000586700087C0000208C010020FEE780B513
:1013B00084B000AF78607868FEF768FF0346FB6092
:1013C000FB6803F5C872FB681A60FB687A689A606C
:1013D000FB681422DA60FB6808221A61FB68184671
:1013E0001037BD4680BD80B48DB000AFF860B960E5
:1013F0007A600023FB62FB681B697A68934238BFFE
:101400001346BB62FB68DB687B62FB687A6A134445
:101410003B623B6A5A42BB6A5B4213405B42FB61E0
:10142000FA693B6AD31ABB617A6ABB691A44BB6822
:101430001A44FB689B689A4210D8FB687B617A6A01
:10144000BB6913447A691344FB627A6ABB6913442B
:10145000BA6813443B61FB683A69DA60FB6A184674
:101460003437BD465DF8047B704780B582B000AF6D
:10147000786039607B681B691A4639687868FFF7BD
:10148000B2FF034618460837BD4680BD80B584B01C
:1014900000AF7860396039687868FFF7E6FFF86078
:1014A0003A680021F868FEF769FFFB6818461037B4
:1014B000BD4680BD80B485B000AF786039603B68C0
:1014C000142B38BF1423FB607B68DB68FA689A42F0
:1014D00002D27B68FA68DA6000BF1437BD465DF857
:1014E000047B704780B584B000AF78600023FB6058
:1014F0000AE07868FFF75BFF02460749FB6841F89E
:101500002320FB680133FB60FB68012BF1D900BF8E
:1015100000BF1037BD4680BDA000002080B48BB056
:1015200000AFF860B9607A6007F1140300221A6016
:101530005A6000237B6228E000233B62BB68FB61AA
:101540000DE0FB691A6819497B6A51F823309A4209
:1015500002D101233B6209E0FB690433FB617B6834
:101560009B00BA681344FA699A42EAD33B6A002B9B
:1015700008D10E4A7B6A52F823307B617B69DB68B5
:10158000BB6105E07B6A01337B627B6A012BD3D9A7
:10159000FB681A4607F1140393E8030082E803008E
:1015A000F8682C37BD465DF8047B7047A00000202A
:1015B00080B582B000AF3B4683E803003B687A68A1
:1015C00011461846FFF776FF00BF0837BD4680BDBD
:1015D00080B487B000AFF860B9607A6007F110039B
:1015E00000221A605A60BB683B617B687B61FB68C4
:1015F0001A4607F1100393E8030082E80300F86835
:101600001C37BD465DF8047B7047000090B488B07D
:1016100000AF07F1080484E80300394681E80C00B4
:101620000023FB61FA687B689A4204D0BB6A03F02E
:101630001003002B56D00123FB610023BB6149E05E
:10164000BA68BB6913441A783968BB690B441B78C4
:101650009A420CBF01230023DBB27B61BB6A03F01B
:101660002003002B2DD0BA68BB6913441B78FB7490
:10167000FB7C01331E4A13441B7803F00303012B48
:1016800003D1FB7C03F1200200E0FA7C3968BB69DE
:101690000B441B78BB74BB7C013315490B441B788E
:1016A00003F00303012B02D1BB7C203300E0BB7CA1
:1016B0009A420CBF01230023DBB21A467B69134315
:1016C0007B617B69002B02D10023FB610AE0BB69CF
:1016D0000133BB61FB68BA699A4203D27B68BA697D
:1016E0009A42ADD3FB6918462037BD4690BC70477F
:1016F0009065000880B588B000AFF860B9607A6086
:101700003B6007F1140300221A605A603B687A6854
:1017100000210020FFF766F903460133FB61F969F8
:10172000B868FFF7A2FE03467B61FB69013BBB6122
:101730007A69FB69013B134400221A7078693B689F
:101740007A68F969FFF74EF9FB681A4607F1140346
:1017500093E8030082E80300F8682037BD4680BDA7
:1017600080B586B000AFF860B960394681E80C00FA
:101770000C21F868FFF78AFE78617B6904333A46EA
:1017800092E8030083E80300BB681B68002B0AD1C2
:10179000BB687A695A60BB685A68BB681A607B6923
:1017A00000221A6009E0BB685B687A691A60BB684E
:1017B0007A695A607B6900221A60BB689B685A1C70
:1017C000BB689A60BB68DA687B681A44BB68DA60F9
:1017D00000BF1837BD4680BD90B593B000AFF8602C
:1017E000B960394681E80C0007F1200300221A6035
:1017F0005A609A60DA6000237B6400233B648AE0CD
:101800000023FB630023BB6361E000237B63BB6BAE
:10181000DB00BA6D13445A683B6C1A447B689A42E9
:1018200028D801237B6300233B6315E0BB6BDB00FF
:10183000BA6D13441A683B6B13441A783968386CD4
:101840003B6B03440B441B789A4202D000237B631A
:1018500010E03B6B01333B63BB6BDB00BA6D1344A1
:101860005B683A6B9A4205D23A6C3B6B1A447B68D0
:101870009A42DBD37B6B002B26D03A687B6CD11865
:101880003A6C7B6CD21A07F118031846FFF7A0FEDA
:1018900007F1200107F118030CCBB868FFF760FFD0
:1018A000BB6BDB00BA6D13445B683A6C13447B641A
:1018B000BB6BDB00BA6D13445A683B6C1344013BAD
:1018C0003B640123FB6306E0BB6B0133BB63BA6B74
:1018D000FB6D9A4299DBFB6B002B19D17B68013BB6
:1018E0003A6C9A4214D13A687B6CD1183A6C7B6C92
:1018F000D31A5A1C07F110031846FFF769FE07F1C7
:10190000200107F110030CCBB868FFF729FF07E0AF
:101910003B6C01333B647B683A6C9A42FFF470AFD6
:10192000FB681C4607F120030FCB84E80F00F86822
:101930004C37BD4690BD000080B485B000AF034673
:10194000FB710023FB60FB79303B362B00F2A28059
:1019500001A252F823F000BF351A00083B1A000814
:10196000411A0008471A00084D1A0008531A0008C7
:10197000591A00085F1A0008651A00086B1A000857
:10198000951A0008951A0008951A0008951A00087B
:10199000951A0008951A0008951A0008711A00088F
:1019A000771A00087D1A0008831A0008891A0008AF
:1019B0008F1A0008951A0008951A0008951A000851
:1019C000951A0008951A0008951A0008951A00083B
:1019D000951A0008951A0008951A0008951A00082B
:1019E000951A0008951A0008951A0008951A00081B
:1019F000951A0008951A0008951A0008951A00080B
:101A0000951A0008951A0008951A0008951A0008FA
:101A1000951A0008951A0008951A0008711A00080E
:101A2000771A00087D1A0008831A0008891A00082E
:101A30008F1A00080023FB602DE00123FB602AE0E1
:101A40000223FB6027E00323FB6024E00423FB6008
:101A500021E00523FB601EE00623FB601BE007235B
:101A6000FB6018E00823FB6015E00923FB6012E02F
:101A70000A23FB600FE00B23FB600CE00C23FB60F0
:101A800009E00D23FB6006E00E23FB6003E00F235B
:101A9000FB6000E000BFFB6818461437BD465DF8E8
:101AA000047B704780B588B000AF07F1080383E876
:101AB00003007A600023FB610A23BB6100237B6182
:101AC000FB68022B3CD9BA687B6913441B78302B26
:101AD00036D17B6901337B61BA687B6913441B781B
:101AE000782B2DD11023BB617B6901337B6127E00B
:101AF000BA687B6913441B781846FFF71DFF3861ED
:101B00003A69BB699A4203D37B6801221A601BE0E1
:101B1000104B1A683B69D21ABB69B2FBF3F3FA693E
:101B20009A4203D97B6801221A600DE0FB69BA6909
:101B300002FB03F33A691344FB617B6901337B6168
:101B4000FB687A699A42D3D3FB6918462037BD46B1
:101B500080BD00BF6800002080B485B000AF786011
:101B60007B6803F00703FB600C4BDB68BB60BA6863
:101B70004FF6FF031340BB60FB681A02BB681343B8
:101B800043F0BF6343F40033BB60044ABB68D360D7
:101B900000BF1437BD465DF8047B704700ED00E0E0
:101BA00080B400AF044BDB681B0A03F00703184640
:101BB000BD465DF8047B704700ED00E080B483B063
:101BC00000AF0346FB7197F90730002B0BDBFB7965
:101BD00003F01F02074997F907305B09012000FA5B
:101BE00002F241F8232000BF0C37BD465DF8047BAC
:101BF000704700BF00E100E080B483B000AF03464F
:101C00003960FB7197F90730002B0ADB3B68DAB2C9
:101C10000C4997F907301201D2B20B4483F8002324
:101C20000AE03B68DAB20849FB7903F00F03043B92
:101C30001201D2B20B441A7600BF0C37BD465DF8D4
:101C4000047B704700E100E000ED00E080B489B063
:101C500000AFF860B9607A60FB6803F00703FB61CE
:101C6000FB69C3F10703042B28BF0423BB61FB6995
:101C70000433062B02D9FB69033B00E000237B61A0
:101C80004FF0FF32BB6902FA03F3DA43BB681A4034
:101C90007B699A404FF0FF317B6901FA03F3D94326
:101CA0007B680B40134318462437BD465DF8047B20
:101CB0007047000080B582B000AF78607B68013B60
:101CC000B3F1807F01D301230FE00A4A7B68013B17
:101CD00053600F214FF0FF30FFF78EFF054B0022BE
:101CE0009A60044B07221A60002318460837BD4645
:101CF00080BD00BF10E000E080B483B000AF0023DF
:101D00007B60104B5B6C0F4A43F4804353640D4B74
:101D10005B6C03F480437B607B6800233B60094B72
:101D20001B6C084A43F080531364064B1B6C03F092
:101D300080533B603B6800BF0C37BD465DF8047BB9
:101D4000704700BF0038024080B500AF034B1B68EE
:101D5000034A1268012110469847FEE7AC000020B4
:101D6000A800002080B500AF034B1B68034A12682F
:101D7000012110469847FEE7AC000020A800002093
:101D800080B500AF034B1B68034A1268012110465F
:101D90009847FEE7AC000020A800002080B500AF07
:101DA000034B1B68034A1268012110469847FEE75F
:101DB000AC000020A800002080B500AF034B1B68DA
:101DC000034A1268012110469847FEE7AC00002044
:101DD000A800002080B400AF00BFBD465DF8047BC2
:101DE000704780B400AF00BFBD465DF8047B70470C
:101DF00080B400AF00BFBD465DF8047B704780B57E
:101E000000AF00F07BF800BF80BD000080B586B059
:101E100000AF7860144A154BD31A7B617B693B6134
:101E2000134B1B68002B02D1114B124A1A60104B46
:101E30001A687B6813443A699A4207D2FEF7FCF9A4
:101E400003460C221A604FF0FF3309E0084B1B6871
:101E5000FB60074B1A687B681344054A1360FB68F4
:101E600018461837BD4680BD00000320000400005E
:101E7000B00000209001002080B400AF064BD3F8E2
:101E80008830054A43F47003C2F8883000BFBD466D
:101E90005DF8047B704700BF00ED00E080B582B0C4
:101EA00000AF7860124B1A68124B1B7819464FF43A
:101EB0007A73B3FBF1F3B2FBF3F3184600F065F865
:101EC0000346002B01D001230EE07B680F2B0AD8BC
:101ED000002279684FF0FF3000F03BF8064A7B683B
:101EE0001360002300E0012318460837BD4680BD7B
:101EF0006C000020740000207000002080B400AF4F
:101F0000064B1B781A46064B1B681344044A1360A1
:101F100000BFBD465DF8047B704700BF7400002021
:101F2000B400002080B400AF034B1B681846BD46C8
:101F30005DF8047B704700BFB400002080B582B01C
:101F400000AF78607868FFF707FE00BF0837BD462E
:101F500080BD80B586B000AF0346B9607A60FB7380
:101F600000237B61FFF71CFE78617A68B9687869A5
:101F7000FFF76CFE024697F90F3011461846FFF73F
:101F80003BFE00BF1837BD4680BD80B582B000AFB4
:101F900078607868FFF78EFE034618460837BD461E
:101FA00080BD000080B586B000AF78607B68002BF4
:101FB00001D1012364E27B681B6803F00103002B5D
:101FC00075D0A34B9B6803F00C03042B0CD0A04BE3
:101FD0009B6803F00C03082B12D19D4B5B6803F444
:101FE0008003B3F5800F0BD1994B1B6803F40033CA
:101FF000002B5BD07B685B68002B57D101233FE24D
:102000007B685B68B3F5803F06D1914B1B68904AB3
:1020100043F4803313601DE07B685B68B3F5A02F49
:102020000CD18B4B1B688A4A43F480231360884B86
:102030001B68874A43F4803313600BE0844B1B68B2
:10204000834A23F480331360814B1B68804A23F456
:10205000802313607B685B68002B13D0FFF762FF5F
:10206000386108E0FFF75EFF02463B69D31A642B34
:1020700001D9032304E2764B1B6803F40033002BE1
:10208000F0D014E0FFF74EFF386108E0FFF74AFF99
:1020900002463B69D31A642B01D90323F0E16C4B50
:1020A0001B6803F40033002BF0D100E000BF7B6815
:1020B0001B6803F00203002B63D0654B9B6803F0A1
:1020C0000C03002B0BD0624B9B6803F00C03082B16
:1020D0001CD15F4B5B6803F48003002B16D15C4B73
:1020E0001B6803F00203002B05D07B68DB68012B23
:1020F00001D00123C4E1564B1B6823F0F8027B6832
:102100001B69DB00524913430B603AE07B68DB68D4
:10211000002B20D04F4B01221A60FFF703FF3861DC
:1021200008E0FFF7FFFE02463B69D31A022B01D9F4
:102130000323A5E1464B1B6803F00203002BF0D0FC
:10214000434B1B6823F0F8027B681B69DB004049A6
:1021500013430B6015E03F4B00221A60FFF7E2FECD
:10216000386108E0FFF7DEFE02463B69D31A022B16
:1021700001D9032384E1364B1B6803F00203002BD3
:10218000F0D17B681B6803F00803002B30D07B681C
:102190005B69002B16D0304B01221A60FFF7C2FE9C
:1021A000386108E0FFF7BEFE02463B69D31A022BF6
:1021B00001D9032364E1264B5B6F03F00203002B7C
:1021C000F0D015E0244B00221A60FFF7ABFE386117
:1021D00008E0FFF7A7FE02463B69D31A022B01D99C
:1021E00003234DE11A4B5B6F03F00203002BF0D188
:1021F0007B681B6803F00403002B00F0A080002321
:10220000FB75134B1B6C03F08053002B0FD1002385
:10221000BB600F4B1B6C0E4A43F0805313640C4B96
:102220001B6C03F08053BB60BB680123FB750B4B39
:102230001B6803F48073002B21D1084B1B68074AED
:1022400043F480731360FFF76DFE386111E000BF47
:102250000038024000004742800E474200700040B4
:10226000FFF760FE02463B69D31A022B01D9032314
:1022700006E1854B1B6803F48073002BF0D07B686C
:102280009B68012B06D1814B1B6F804A43F00103F1
:1022900013671CE07B689B68052B0CD17B4B1B6F85
:1022A0007A4A43F004031367784B1B6F774A43F075
:1022B000010313670BE0754B1B6F744A23F0010396
:1022C0001367724B1B6F714A23F0040313677B681B
:1022D0009B68002B15D0FFF725FE38610AE0FFF759
:1022E00021FE02463B69D31A41F28832934201D95A
:1022F0000323C5E0654B1B6F03F00203002BEED0F8
:1023000014E0FFF70FFE38610AE0FFF70BFE02460C
:102310003B69D31A41F28832934201D90323AFE0DB
:102320005A4B1B6F03F00203002BEED1FB7D012BF8
:1023300005D1564B1B6C554A23F0805313647B68C0
:102340009B69002B00F09B80504B9B6803F00C03B3
:10235000082B5CD07B689B69022B41D14C4B00223F
:102360001A60FFF7DFFD386108E0FFF7DBFD02468A
:102370003B69D31A022B01D9032381E0434B1B682D
:1023800003F00073002BF0D17B68DA697B681B6A6D
:102390001A437B685B6A9B011A437B689B6A5B08F4
:1023A000013B1B041A437B68DB6A1B063749134356
:1023B0004B60374B01221A60FFF7B4FD386108E02B
:1023C000FFF7B0FD02463B69D31A022B01D9032364
:1023D00056E02E4B1B6803F00073002BF0D04EE04C
:1023E0002B4B00221A60FFF79DFD386108E0FFF7D4
:1023F00099FD02463B69D31A022B01D903233FE022
:10240000224B1B6803F00073002BF0D137E07B6890
:102410009B69012B01D1012332E01C4B5B68FB60FF
:102420007B689B69012B28D0FB6803F480027B68E2
:10243000DB699A4221D1FB6803F03F027B681B6A8B
:102440009A421AD1FA6847F6C07313407A68526A02
:102450009201934211D1FB6803F440327B689B6A7E
:102460005B08013B1B049A4207D1FB6803F07062D2
:102470007B68DB6A1B069A4201D0012300E000233F
:1024800018461837BD4680BD007000400038024035
:102490006000474280B584B000AF786039607B68E7
:1024A000002B01D10123CCE0684B1B6803F00F0324
:1024B0003A689A420CD9654B3A68D2B21A70634BAB
:1024C0001B6803F00F033A689A4201D00123B8E079
:1024D0007B681B6803F00203002B20D07B681B681D
:1024E00003F00403002B05D0594B9B68584A43F472
:1024F000E05393607B681B6803F00803002B05D052
:10250000534B9B68524A43F460439360504B9B6823
:1025100023F0F0027B689B684D4913438B607B6816
:102520001B6803F00103002B44D07B685B68012B20
:1025300007D1474B1B6803F40033002B19D101234B
:102540007FE07B685B68022B03D07B685B68032BB2
:1025500007D13F4B1B6803F00073002B09D1012307
:102560006FE03B4B1B6803F00203002B01D10123FA
:1025700067E0374B9B6823F003027B685B68344954
:1025800013438B60FFF7CEFCF8600AE0FFF7CAFC4C
:102590000246FB68D31A41F28832934201D90323E1
:1025A0004FE02B4B9B6803F00C027B685B689B0041
:1025B0009A42EBD1254B1B6803F00F033A689A420D
:1025C0000CD2224B3A68D2B21A70204B1B6803F02F
:1025D0000F033A689A4201D0012332E07B681B68FE
:1025E00003F00403002B08D0194B9B6823F4E0523E
:1025F0007B68DB68164913438B607B681B6803F0BC
:102600000803002B09D0124B9B6823F460427B68BF
:102610001B69DB000E4913438B6000F021F8024672
:102620000B4B9B681B0903F00F030A49CB5C22FA92
:1026300003F3094A1360094B1B681846FFF72EFC89
:10264000002318461037BD4680BD00BF003C024045
:1026500000380240F46600086C0000207000002082
:102660002DE9B04384B000AF00237B600023FB6002
:1026700000233B600023BB60674B9B6803F00C03A7
:10268000082B0DD0082B00F2BD80002B02D0042BAC
:1026900003D0B7E0614BBB60B7E0614BBB60B4E017
:1026A0005D4B5B6803F03F037B605B4B5B6803F44F
:1026B0008003002B4DD0584B5B689B091A464FF0A6
:1026C000000340F2FF104FF0000102EA000803EAA5
:1026D0000109404649464FF000024FF000034B010C
:1026E00043EAD063420110461946B0EB080061EBA3
:1026F00009014FF000024FF000038B0143EA9063A1
:102700008201121A63EB01034FF000004FF0000149
:10271000D90041EA5271D00002460B4612EB080282
:1027200043EB09034FF000004FF00001590241EA6A
:10273000D251500202460B46104619467B681A4693
:102740004FF00003FEF78EFC02460B461346FB607B
:102750004AE0314B5B689B091A464FF0000340F298
:10276000FF104FF0000102EA000403EA01052046D1
:1027700029464FF000024FF000034B0143EAD063BB
:10278000420110461946001B61EB05014FF00002A3
:102790004FF000038B0143EA90638201121A63EB4E
:1027A00001034FF000004FF00001D90041EA5271DF
:1027B000D00002460B46121945EB03034FF0000010
:1027C0004FF00001990241EA9251900202460B46F5
:1027D000104619467B681A464FF00003FEF742FC8C
:1027E00002460B461346FB600B4B5B681B0C03F069
:1027F000030301335B003B60FA683B68B2FBF3F311
:10280000BB6002E0054BBB6000BFBB6818461037D9
:10281000BD46BDE8B08300BF003802400024F4008C
:1028200000127A0080B400AF034B1B681846BD4607
:102830005DF8047B704700BF6C00002080B500AFDE
:10284000FFF7F0FF0246054B9B689B0A03F0070366
:102850000349CB5C22FA03F3184680BD00380240DE
:102860000467000880B500AFFFF7DCFF0246054BA8
:102870009B685B0B03F007030349CB5C22FA03F36D
:10288000184680BD003802400467000880B489B053
:1028900000AF7860396000237B6100233B61002337
:1028A000BB610023FB6177E10122FB6902FA03F3BC
:1028B0007B613B681B687A6913403B613A697B69BD
:1028C0009A4240F066813B685B6803F00303012B8A
:1028D00005D03B685B6803F00303022B30D17B68B3
:1028E0009B68BB61FB695B00032202FA03F3DB43D5
:1028F000BA691340BB613B68DA68FB695B0002FAA6
:1029000003F3BA691343BB617B68BA699A607B6859
:102910005B68BB610122FB6902FA03F3DB43BA691E
:102920001340BB613B685B681B0903F00102FB6954
:1029300002FA03F3BA691343BB617B68BA695A6050
:102940003B685B6803F00303032B17D07B68DB68ED
:10295000BB61FB695B00032202FA03F3DB43BA6944
:102960001340BB613B689A68FB695B0002FA03F3A2
:10297000BA691343BB617B68BA69DA603B685B681C
:1029800003F00303022B23D1FB69DA087B680832CA
:1029900053F82230BB61FB6903F007039B000F2251
:1029A00002FA03F3DB43BA691340BB613B681A695F
:1029B000FB6903F007039B0002FA03F3BA691343B0
:1029C000BB61FB69DA087B680832B96943F82210F9
:1029D0007B681B68BB61FB695B00032202FA03F39F
:1029E000DB43BA691340BB613B685B6803F00302D9
:1029F000FB695B0002FA03F3BA691343BB617B68AE
:102A0000BA691A603B685B6803F44033002B00F03E
:102A1000C0800023FB60664B5B6C654A43F48043D7
:102A20005364634B5B6C03F48043FB60FB68614A57
:102A3000FB699B08023352F82330BB61FB6903F04A
:102A400003039B000F2202FA03F3DB43BA6913402E
:102A5000BB617B68584A934237D07B68574A9342A0
:102A600031D07B68564A93422BD07B68554A9342BB
:102A700025D07B68544A93421FD07B68534A9342C7
:102A800019D07B68524A934213D07B68514A9342D3
:102A90000DD07B68504A934207D07B684F4A9342DF
:102AA00001D1092312E00A2310E008230EE00723D6
:102AB0000CE006230AE0052308E0042306E00323D4
:102AC00004E0022302E0012300E00023FA6902F09F
:102AD000030292009340BA691343BB613549FB6915
:102AE0009B080233BA6941F823203D4B9B68BB61C8
:102AF0003B69DB43BA691340BB613B685B6803F425
:102B00008013002B03D0BA693B691343BB61344A7D
:102B1000BB699360324BDB68BB613B69DB43BA69DD
:102B20001340BB613B685B6803F40013002B03D0C8
:102B3000BA693B691343BB61294ABB69D360284B1F
:102B40005B68BB613B69DB43BA691340BB613B68AF
:102B50005B6803F40033002B03D0BA693B6913436D
:102B6000BB611F4ABB6953601D4B1B68BB613B695E
:102B7000DB43BA691340BB613B685B6803F4803395
:102B8000002B03D0BA693B691343BB61144ABB698C
:102B90001360FB690133FB61FB690F2B7FF684AE89
:102BA00000BF00BF2437BD465DF8047B704700BFFF
:102BB000003802400038014000000240000402409A
:102BC00000080240000C02400010024000140240C5
:102BD00000180240001C0240002002400024024075
:102BE000003C014080B485B000AF78600B467B802C
:102BF0007B681A697B881340002B02D00123FB738A
:102C000001E00023FB73FB7B18461437BD465DF8DB
:102C1000047B704780B483B000AF78600B467B8044
:102C200013467B707B78002B03D07A887B689A618F
:102C300003E07B881A047B689A6100BF0C37BD46AD
:102C40005DF8047B704780B582B000AF78607B6828
:102C5000002B01D101233FE07B6893F83D30DBB2CC
:102C6000002B06D17B68002283F83C20786800F0B6
:102C700037F87B68242283F83D207B681B68DA687C
:102C80007B681B6822F40052DA60786800F032F842
:102C90007B681B681A697B681B6822F490421A6182
:102CA0007B681B685A697B681B6822F02A025A619C
:102CB0007B681B68DA687B681B6842F40052DA6044
:102CC0007B6800221A647B68202283F83D207B68A1
:102CD000202283F83E20002318460837BD4680BDD9
:102CE00080B483B000AF786000BF0C37BD465DF89C
:102CF000047B70472DE9F04F9FB000AFF866FB6E84
:102D00001B681B6923F44050FB6ED968FB6E1A6880
:102D100040EA01031361FB6E9A68FB6E1B691A435C
:102D2000FB6E5B691A43FB6EDB6913433B67FB6E0B
:102D30001B68DB6823F4164121F00C01FB6E1A6856
:102D40003B6F0B43D360FB6E1B685B6923F44070E1
:102D5000FB6E9969FB6E1A6840EA01035361FB6ED2
:102D60001A68C54B9A4204D0FB6E1A68C34B9A424C
:102D700003D1FFF777FD786702E0FFF75FFD786723
:102D8000FB6EDB69B3F5004F40F0B6807B6F1C46ED
:102D90004FF0000522462B46911839645B417B6455
:102DA000D7E91023121945EB03034FF000004FF051
:102DB0000001D90041EA5271D00002460B461119B8
:102DC00039666B417B66FB6E5B681A464FF0000309
:102DD0009118B9635B41FB63D7E90E23D7E918016A
:102DE000FEF740F902460B46A54BA3FB02235B0905
:102DF0001E017B6F1C464FF0000522462B469118A2
:102E000039635B417B63D7E90C23121945EB03035C
:102E10004FF000004FF00001D90041EA5271D0009C
:102E200002460B461119B9656B41FB65FB6E5B6889
:102E30001A464FF000039118B9625B41FB62D7E973
:102E40000A23D7E91601FEF70DF902460B468C4B13
:102E5000A3FB02135B09642101FB03F3D31ADB001C
:102E60003233874AA2FB03235B095B0003F4F87348
:102E70001E447B6F18464FF0000102460B46941823
:102E80003C625B417B62D7E90823121841EB0303E4
:102E90004FF000044FF00005DD0045EA5275D40004
:102EA00022462B4614183C654B417B65FB6E5B68E4
:102EB0001A464FF000039118B9615B41FB61D7E9F5
:102EC0000623D7E91401FEF7CDF802460B466C4BFA
:102ED000A3FB02135B09642101FB03F3D31ADB009C
:102EE0003233674AA2FB03235B0903F00702FB6E40
:102EF0001B6832449A60B9E07B6F1C464FF00005B6
:102F000022462B46911839615B417B61D7E9042346
:102F1000121945EB03034FF000004FF00001D900F8
:102F200041EA5271D00002460B4612EB040843EB13
:102F30000509FB6E5B6818464FF000014FF0000278
:102F40004FF000038B0043EA9073820040464946ED
:102F5000FEF788F802460B46494BA3FB02235B09A8
:102F60001E017B6F18464FF0000102460B46941875
:102F7000BC605B41FB60D7E90223121841EB0303FD
:102F80004FF000044FF00005DD0045EA5275D40013
:102F900022462B461418BC644B41FB64FB6E5B68F5
:102FA00018464FF000014FF000024FF000038B0075
:102FB00043EA90738200D7E91201FEF753F8024604
:102FC0000B462F4BA3FB02135B09642101FB03F3A8
:102FD000D31A1B0132332A4AA2FB03235B0903F0F5
:102FE000F0031E447B6F18464FF0000102460B466B
:102FF00094183C605B417B60D7E90023121841EBD9
:1030000003034FF000044FF00005DD0045EA527560
:10301000D40022462B4612EB000A43EB010BFB6E59
:103020005B6818464FF000014FF000024FF00003BC
:103030008B0043EA9073820050465946FEF712F81F
:1030400002460B460E4BA3FB02135B09642101FBF6
:1030500003F3D31A1B013233094AA2FB03235B0992
:1030600003F00F02FB6E1B6832449A6000BF7C378E
:10307000BD46BDE8F08F00BF0010014000140140C4
:103080001F85EB5180B582B000AF78607B68002B64
:1030900001D101237BE07B685B6A002B08D17B6850
:1030A0005B68B3F5827F09D07B680022DA6105E0B6
:1030B0007B6800221A617B6800225A617B680022CB
:1030C0009A627B6893F85130DBB2002B06D17B68A3
:1030D000002283F85020786800F05DF87B680222B7
:1030E00083F851207B681B681A687B681B6822F094
:1030F00040021A607B685B6803F482727B689B689D
:1031000003F404431A437B68DB6803F400631A4347
:103110007B681B6903F002031A437B685B6903F059
:1031200001031A437B689B6903F400731A437B68AD
:10313000DB6903F038031A437B681B6A03F08003E2
:1031400042EA03017B689B6A03F400527B681B68B8
:103150000A431A607B689B691B0C03F004017B68BF
:103160005B6A03F010027B681B680A435A607B6845
:103170001B68DA697B681B6822F40062DA617B688D
:1031800000225A657B68012283F8512000231846EB
:103190000837BD4680BD80B483B000AF786000BF03
:1031A0000C37BD465DF8047B704780B58CB000AF2E
:1031B000F860B9607A607B800123FB62002387F8A6
:1031C0002B30FB6893F85030012B01D102238AE1A8
:1031D000FB68012283F85020FEF7A4FE7862FB68AA
:1031E00093F8513087F82330FB685B68FB617B887C
:1031F0007B8397F82330012B0FD0FB69B3F5827FD7
:1032000007D1FB689B68002B03D197F82330042B70
:1032100003D0022387F82B305BE1BB68002B05D07D
:103220007B68002B02D07B88002B03D1012387F819
:103230002B304EE1FB6893F85130DBB2042B03D006
:10324000FB68052283F85120FB6800225A65FB6861
:103250007A689A63FB687A88DA87FB687A889A8743
:10326000FB68BA681A63FB687A88DA86FB687A8832
:103270009A86FB6800221A64FB6800225A64FB6885
:103280001B681B6803F04003402B07D0FB681B68DA
:103290001A68FB681B6842F040021A60FB68DB6832
:1032A000B3F5006F78D1FB685B68002B02D07B8B95
:1032B000012B66D1FB681B6B1A88FB681B68DA6000
:1032C000FB681B6B9A1CFB681A63FB68DB8E9BB266
:1032D000013B9AB2FB68DA8653E0FB681B689B6887
:1032E00003F00203022B1BD1FB68DB8E9BB2002B89
:1032F00016D0FB6A012B13D1FB681B6B1A88FB6885
:103300001B68DA60FB681B6B9A1CFB681A63FB681E
:10331000DB8E9BB2013B9AB2FB68DA860023FB622C
:10332000FB681B689B6803F00103012B19D1FB6844
:10333000DB8F9BB2002B14D0FB681B68DA68FB683C
:103340009B6B92B21A80FB689B6B9A1CFB689A631A
:10335000FB68DB8F9BB2013B9AB2FB68DA870123E3
:10336000FB62FEF7DFFD02467B6AD31ABA6B9A4214
:1033700007D8BB6BB3F1FF3F03D0032387F82B3093
:10338000A7E0FB68DB8E9BB2002BA6D1FB68DB8F2E
:103390009BB2002BA1D17CE0FB685B68002B02D0C4
:1033A0007B8B012B6BD1FB681A6BFB681B680C33A2
:1033B00012781A70FB681B6B5A1CFB681A63FB6857
:1033C000DB8E9BB2013B9AB2FB68DA8657E0FB6862
:1033D0001B689B6803F00203022B1CD1FB68DB8E89
:1033E0009BB2002B17D0FB6A012B14D1FB681A6B20
:1033F000FB681B680C3312781A70FB681B6B5A1C35
:10340000FB681A63FB68DB8E9BB2013B9AB2FB68D8
:10341000DA860023FB62FB681B689B6803F00103EC
:10342000012B19D1FB68DB8F9BB2002B14D0FB68FA
:103430001B68DA68FB689B6BD2B21A70FB689B6BE7
:103440005A1CFB689A63FB68DB8F9BB2013B9AB204
:10345000FB68DA870123FB62FEF764FD02467B6AA4
:10346000D31ABA6B9A4203D8BB6BB3F1FF3F02D1B8
:10347000BB6B002B03D1032387F82B3029E0FB68BB
:10348000DB8E9BB2002BA2D1FB68DB8F9BB2002BA3
:103490009DD17A6AB96BF86800F0B2F80346002B48
:1034A00006D0012387F82B30FB6820225A6510E0F4
:1034B000FB689B68002B0BD100237B61FB681B68BA
:1034C000DB687B61FB681B689B687B617B6900E054
:1034D00000BFFB68012283F85120FB68002283F8BB
:1034E000502097F82B3018463037BD4680BD00007D
:1034F00080B588B000AFF860B9603B601346FB71DF
:10350000FEF710FD0246BB6A9B1A3A681344FB6142
:10351000FEF708FDB861394B1B685B011B0DFA69AA
:1035200002FB03F37B6154E03B68B3F1FF3F50D0F3
:10353000FEF7F8FC0246BB69D31AFA699A4202D92F
:10354000FB69002B3DD1FB681B685A68FB681B6850
:1035500022F0E0025A60FB685B68B3F5827F11D10C
:10356000FB689B68B3F5004F04D0FB689B68B3F51C
:10357000806F07D1FB681B681A68FB681B6822F024
:1035800040021A60FB689B6AB3F5005F0FD1FB68CD
:103590001B681A68FB681B6822F400521A60FB68FB
:1035A0001B681A68FB681B6842F400521A60FB68CB
:1035B000012283F85120FB68002283F85020032366
:1035C00017E07B69002B01D10023FB617B69013B84
:1035D0007B61FB681B689A68BB681340BA689A42B3
:1035E0000CBF01230023DBB21A46FB799A429BD120
:1035F000002318462037BD4680BD00BF6C00002068
:1036000080B588B002AFF860B9607A601B4B1B6868
:103610001B4AA2FB03235B0D4FF47A7202FB03F3F8
:103620007B61FB685B68B3F5827F12D17B68009396
:10363000BB6800228021F868FFF75AFF0346002B81
:1036400016D0FB685B6D43F02002FB685A650323CC
:103650000FE07B69002B0AD07B69013B7B61FB6833
:103660001B689B6803F08003802BF2D000E000BF52
:10367000002318461837BD4680BD00BF6C000020EF
:10368000819F5E1680B59CB000AF0023FB666D4B3A
:103690001B686C4A43F4007313606A4B1B68694AE9
:1036A00043F480631360674B1B68664A43F480737E
:1036B00013600320FEF742FC0020FEF7EFFBFEF74D
:1036C0001BFB07F13C03302200211846FCF756FE95
:1036D00007F1280300221A605A609A60DA601A61C2
:1036E00000237B62584B1B6C574A43F08053136492
:1036F000554B1B6C03F080537B627B6A00233B625B
:10370000524B1B6823F44043504A43F480431360F8
:103710004E4B1B6803F440433B623B6A0223FB634E
:103720000123BB641023FB6400237B6507F13C038A
:103730001846FEF737FC0346002B7BD10F23BB62F4
:103740000023FB6200233B634FF480537B63002321
:10375000BB6307F1280300211846FEF79BFE0346D2
:10376000002B64D10023FB61374B1B6B364A43F0BF
:1037700008031363344B1B6B03F00803FB61FB6905
:103780000023BB61304B1B6B2F4A43F010031363C4
:103790002D4B1B6B03F01003BB61BB6900237B61E6
:1037A000294B1B6B284A43F020031363264B1B6BEA
:1037B00003F020037B617B6900233B61224B1B6B81
:1037C000214A43F0400313631F4B1B6B03F040037C
:1037D0003B613B690023FB601B4B1B6B1A4A43F4A4
:1037E00080731363184B1B6B03F48073FB60FB68DF
:1037F0000023BB60144B1B6B134A43F40073136329
:10380000114B1B6B03F40073BB60BB6800237B6030
:103810000D4B1B6B0C4A43F4806313630A4B1B6B09
:1038200003F480637B607B680123FB6604E0002374
:10383000FB6601E00023FB66FB6E18467037BD4651
:1038400080BD00BF003C02400038024000700040D4
:1038500080B485B000AF7860164BFB607B68052BA9
:1038600020D801A252F823F08138000887380008D8
:103870008D38000893380008993800089F380008F0
:103880000D4BFB600FE00D4BFB600CE00C4BFB6045
:1038900009E00C4BFB6006E00B4BFB6003E00B4BBD
:1038A000FB6000E000BFFB6818461437BD465DF8BA
:1038B000047B7047BC5C0008C45C0008CC5C00085A
:1038C000D45C0008DC5C0008E45C0008EC5C0008E8
:1038D000B0B594B000AFF860B9607A600023FB64C3
:1038E000694AFB681361684B01221A60664B042227
:1038F0005A60654ABB685361634B00229A61B9689C
:10390000F868FDF7C3FD03465F4AD3615E4B0022B2
:103910001A6207F1340300221A605A609A60DA6072
:103920001A617B685B687B630223BB630123FB63D3
:1039300003233B647B689B687B647B68DB6807F1DF
:10394000340211461846FEF7A1FF7B681B687B63B3
:103950000223BB630123FB6303233B647B689B68F7
:103960007B647B68DB6807F1340211461846FEF77A
:103970008DFF00237B61454B1B6C444A43F480233D
:103980001364424B1B6C03F480237B617B6907F15A
:10399000180300221A605A609A60DA601A615A614C
:1039A0009A617B681B69BB610023FB6100233B625A
:1039B00000237B620C23BB620023FB6200233B637A
:1039C0007B68DB69304A53622F4B03F1280407F10F
:1039D00018050FCD0FC495E8070084E807002C48B0
:1039E000FFF731F9034687F84B3097F84B30002B3F
:1039F00002D00023FB6442E07B689B69224AC2F844
:103A00008430214B1B69204AD2F884201146184685
:103A1000FDF73CFD03461C4AC2F880307B685B69B9
:103A2000194A5367184B1B69174A526F11461846BB
:103A3000FDF72CFD0346144A1367134B5B6ADA68E3
:103A4000114B5B6A42F08002DA600F4B5B6ADA6806
:103A50000D4B5B6A42F02002DA60FEF7A1F80346E4
:103A6000002200211846FEF7F1F8034619462720E8
:103A7000FEF7C2F82720FEF7A1F80123FB64FB6CD8
:103A800018465037BD46B0BDBC000020003802408B
:103A9000E000002080B487B000AF714B5B6A1B6808
:103AA0003B61EFF31083BB60BB686E4A1360012378
:103AB000FB60FB6883F3108800BF3B6903F02003C1
:103AC000002B2ED0664BDB6E01337B61644B5B6F4A
:103AD0007A699A4201D300237B61614B9B6E7A69BC
:103AE0009A4211D15E4BD3F888305F4A12889342D4
:103AF00002D35D4B1B8803E0594BD3F88830013368
:103B0000574AC2F888300CE0554B5B6A5968544BF1
:103B10001A6F534BDB6E1344CAB21A70504A7B695A
:103B2000D3663B6903F08003002B29D04C4B9A6F7E
:103B30004B4BDB6F9A4208D1494B5B6ADA68484BC2
:103B40005B6A22F08002DA601AE0454BD3F88020ED
:103B5000434B9B6F13441A78414B5B6A5A60404B4E
:103B60009A6F3F4BD3F88430013B9A4205D23C4BCD
:103B70009B6F01333A4A936702E0394B00229A6700
:103B80003B6903F00F03002B5DD0354B5B6A5B682C
:103B90003B6903F00803002B11D0314BD3F8903070
:103BA000314A1288934202D32F4B1B8803E02C4BDF
:103BB000D3F8903001332A4AC2F8903043E03B6991
:103BC00003F00403002B11D0254BD3F89430264A80
:103BD0001288934202D3244B1B8803E0204BD3F876
:103BE000943001331E4AC2F894302CE03B6903F054
:103BF0000203002B11D01A4BD3F898301A4A1288BE
:103C0000934202D3184B1B8803E0154BD3F898302E
:103C10000133134AC2F8983015E03B6903F0010301
:103C2000002B10D00E4BD3F89C300F4A12889342D1
:103C300002D30D4B1B8803E0094BD3F89C300133B2
:103C4000074AC2F89C30074B1B687B607B6883F394
:103C5000108800BF00BF1C37BD465DF8047B70476D
:103C6000BC000020B80000206400002080B500AF38
:103C7000FFF710FF00BF80BD80B489B000AF0346DE
:103C8000FB71EFF310837B617B69284A136001238A
:103C9000BB61BB6983F3108800BF254BDB6F013329
:103CA000FB61234BD3F88430FA699A4201D3002395
:103CB000FB611F4B9B6FFA699A4218D11C4BD3F8DA
:103CC0008C301C4A1288934202D31A4B1B8803E0A3
:103CD000174BD3F88C300133154AC2F88C30134B94
:103CE0001B683B613B6983F3108800BF19E0104BF0
:103CF000D3F880200E4BDB6F1344FA791A700C4A0C
:103D0000FB69D3670A4B5B6ADA68094B5B6A42F06E
:103D10008002DA60054B1B68FB60FB6883F3108848
:103D200000BF2437BD465DF8047B7047B800002013
:103D3000BC0000206400002080B487B000AF0023E6
:103D4000FB74EFF31083BB60BB681D4A1360012353
:103D5000FB60FB6883F3108800BF1A4B9A6E194B07
:103D6000DB6E9A4208D1164B1B687B607B6883F33D
:103D7000108800BFFB7C1CE0124B9B6E01337B6103
:103D8000104B5B6F7A699A4201D300237B610D4B24
:103D90001A6F0C4B9B6E13441B78FB74094A7B69AA
:103DA0009366074B1B683B603B6883F3108800BF3A
:103DB000FB7C18461C37BD465DF8047B704700BF8E
:103DC000B8000020BC0000200FB480B586B000AF62
:103DD00007F124033B6107F1080300220021184684
:103DE000FDF79CFBB96838463B693A6AFDF782FCEF
:103DF00000237B6109E03A687B6913441B7818460D
:103E0000FFF73AFF7B6901337B617B687A699A42ED
:103E1000F1D307F1080393E80300FDF7C9FB00BFE6
:103E20001837BD46BDE8804004B0704780B588B003
:103E300000AF7860396007F11403002200211846B2
:103E4000FDF76CFB796907F10C003B687A68FDF7B8
:103E500051FC0023FB6109E0FA68FB6913441B78FD
:103E60001846FFF709FFFB690133FB613B69FA69FB
:103E70009A42F1D300BF00BF2037BD4680BD00008D
:103E80000FB480B582B000AF07F114033B60FEF7BA
:103E900049F878607B680E4AA2FB032399097A6887
:103EA0000B4BA3FB02039B094FF47A7000FB03F357
:103EB000D31A1A460748FFF787FF39683869FFF7B2
:103EC000B5FF00BF0837BD46BDE8804004B070476D
:103ED000D34D6210F45C0008B0B5A6B004AF3B4609
:103EE00083E8030007F12403002200211846FDF7B0
:103EF00015FB07F11C030122A9491846FDF768FBD1
:103F0000796A07F10C000123019307F11C03009368
:103F10003B460CCBFDF760FCFB683B677B69012BE4
:103F200040F0C8813B6F5B681B783F2B5AD19D489E
:103F3000FFF74AFF9C48FFF747FF9C48FFF744FF05
:103F40009B48FFF741FF9B499B48FFF73DFF9B487C
:103F5000FFF73AFF9A48FFF737FF9A48FFF734FF19
:103F6000994B9B68C7F8843037E0D7F884309B685A
:103F70001946D7F884305B681A469448FFF724FF47
:103F8000D7F88430DB68C7F880301AE0D7F8803083
:103F90009B681846D7F880305968D7F884301B6979
:103FA000D7F880209A4201D1894B00E0894B0A461C
:103FB00001468948FFF708FFD7F880301B68C7F82B
:103FC0008030D7F88030002BE0D18448FFF7FCFE2A
:103FD000D7F884301B68C7F88430D7F88430002BBA
:103FE000C3D1D9E13B6F5B681B782B2B06D1764B95
:103FF00001221A607A48FFF7E7FECDE13B6F5B686C
:104000001B782D2B06D1704B00221A607548FFF7E4
:10401000DBFEC1E13B6F5B681B782A2B3CD16A4B0E
:104020005B681846FFF714FC7866674B1B68002B2B
:1040300001D06D4B00E06D4B1A46796E6C48FFF76E
:10404000C3FE614BD3F8883019466A48FFF7BCFEBF
:104050005D4BD3F88C3019466748FFF7B5FE5A4BD5
:10406000D3F8903019466548FFF7AEFE564BD3F8AB
:10407000943019466248FFF7A7FE534BD3F89830A7
:1040800019466048FFF7A0FE4F4BD3F89C30194605
:104090005D48FFF799FE7FE107F12C0304225B499D
:1040A0001846FDF795FA396F2023009307F12C038A
:1040B0000CCB043103C9FDF7A9FA0346002B03D04A
:1040C0005348FFF781FE67E107F1340305225149A8
:1040D0001846FDF77DFA396F2023009307F134036A
:1040E0000CCB043103C9FDF791FA0346002B06D02F
:1040F000354B00225A604848FFF766FE4CE107F155
:104100003C03072245491846FDF762FA396F202320
:10411000009307F13C030CCB043103C9FDF776FA99
:104120000346002B06D0284B01225A603C48FFF77B
:104130004BFE31E107F1440304223A491846FDF7EA
:1041400047FA396F2023009307F144030CCB043165
:1041500003C9FDF75BFA0346002B06D01A4B022277
:104160005A603148FFF730FE16E107F14C03052293
:104170002E491846FDF72CFA396F2023009307F1DA
:104180004C030CCB043103C9FDF740FA0346002B66
:1041900050D00D4B03225A602548FFF715FEFBE077
:1041A000005D0008045D0008105D0008305D000837
:1041B000445D00085C5D0008885D0008AC5D000897
:1041C000C85D0008E85D0008BC000020F85D00083C
:1041D000005E0008045E0008085E0008105E00082B
:1041E000145E0008285E00083C5E0008445E00087B
:1041F000505E0008645E0008845E0008A45E00084B
:10420000BC5E0008D05E0008E45E0008FC5E0008AA
:10421000045F00080C5F0008145F00082C5F0008B2
:10422000345F0008505F0008585F0008705F0008A6
:10423000785F000807F1540307225D491846FDF72F
:10424000C7F9396F2023009307F154030CCB0431D5
:1042500003C9FDF7DBF90346002B06D0554B0422BA
:104260005A605548FFF7B0FD96E007F15C03052260
:1042700052491846FDF7ACF9396F2023009307F136
:104280005C030CCB043103C9FDF7C0F90346002BD6
:1042900006D0484B05225A604948FFF795FD7BE060
:1042A0003B6F9B6819463B6F5B681A464548FFF7B2
:1042B0008BFD71E03B6F1B68FB66FB6E1B68BB668A
:1042C0003C4B9B68FB675DE0FB6F396F20220092DF
:1042D00004330CCB043103C9FDF798F90346002BD6
:1042E0004DD0FB6E5B681B783F2B22D1FB6FDB68E8
:1042F000BB671AE0FB6F9B681C46FB6F5968BB6F7E
:104300009B681D46BB6F5B68BA6F12691046BA6F37
:10431000D2680292019000932B460A4621462A4811
:10432000FFF752FDBB6F1B68BB67BB6F002BE1D172
:104330003AE0FB6FDB687B671EE07B6FF96E202243
:10434000009204330CCB043103C9FDF75FF9034637
:10435000002B0ED07B6F5B69B86E98470346002B2D
:1043600021D17B6F0C3393E806001848FFF72CFD32
:1043700019E07B6F1B687B677B6F002BDDD1FB6FC8
:104380001B68FB67FB6F002B9ED17B6819463B685F
:104390001A460F48FFF718FD07F1240393E80300BE
:1043A000FDF706F900E000BF8837BD46B0BD00BF8D
:1043B000905F0008BC000020985F0008B45F000810
:1043C000BC5F0008D45F0008EC5F000800600008D4
:1043D0000460000880B588B000AFF860B9607A600A
:1043E0003B60214B1B68FB610023BB6126E01F4B38
:1043F0001968BA6913465B001344DB000B447B6108
:104400007B691B68002B16D17B69FA685A60FDF73F
:1044100089FD02467B699A607B6901221A607B698B
:104420007A68DA607B693A681A617B69BA685A61AE
:10443000BB69FB6107E0BB690133BB610B4B5B6888
:10444000BA699A42D3D3084B1B68FA699A4206D1DB
:10445000074B1B68002B02D00648FFF711FDFB69D4
:1044600018462037BD4680BD680000205C01002052
:10447000BC0000202860000880B584B000AF7860E0
:104480000C4B5B687A689A4210D20A4B19687A68BA
:1044900013465B001344DB000B44FB60FDF742FD59
:1044A0000246FB689A60FB6802221A6000BF103760
:1044B000BD4680BD5C01002080B485B000AF78604F
:1044C00039600B4B5B687A689A420BD2084B1968CB
:1044D0007A6813465B001344DB000B44FB60FB6807
:1044E0003A685A6000BF1437BD465DF8047B7047D8
:1044F0005C01002080B584B000AFFDF713FDF860CB
:10450000234B1B68FA689A423ED0214AFB6813602D
:104510000023BB6032E01F4B1968BA6813465B008A
:104520001344DB000B447B607B681B68022B22D1A9
:104530007B689B68FA68D21A7B685B689A421AD3D8
:104540007B6803221A607B68DB687A68126911460F
:10455000B8689847FDF7E6FCF8607B685B69002B5C
:1045600009D07B6802221A607B689A687B685B6866
:104570001A447B689A60BB680133BB60054B5B687B
:10458000BA689A42C7D300E000BF1037BD4680BD6D
:10459000840100205C01002080B485B000AF786009
:1045A000114BFB607B68032B16D801A252F823F055
:1045B000C1450008C7450008CD450008D34500089F
:1045C0000A4BFB6009E00A4BFB6006E0094BFB600D
:1045D00003E0094BFB6000E000BFFB68184614379E
:1045E000BD465DF8047B7047546000085C600008BD
:1045F000646000086C60000874600008F0B58BB05F
:1046000004AF786000233B61FDF78CFCF860F9682B
:104610002848FFF7D9FB2848FFF7D6FB2748FFF7C4
:10462000D3FB00237B6139E0254B19687A69134677
:104630005B001344DB000B44BB60BB681B68002BB2
:1046400028D0BB685E68BB689B683B60BB681B6822
:10465000022B07D1BB685A68BB689968FB68CB1A04
:10466000D41800E00024BB685B69002B01D0154D15
:1046700000E0154DBB681B681846FFF78DFF034629
:104680000293019500943B68324679690F48FFF721
:104690009BFB00E000BF7B6901337B61084B5B68DB
:1046A0007A699A42C0D301233B613B6918461C37A3
:1046B000BD46F0BD7C6000089C600008D860000822
:1046C0005C01002014610008186100081C610008EA
:1046D00090B585B000AF374B1B6914211846FCF725
:1046E000D5FEF860FC683B46052233491846FCF7C6
:1046F0006FFF231D3A4692E8030083E803002D4B29
:104700001B6918211846FCF7C1FEB860BC683B461F
:1047100006222A491846FCF75BFF231D3A4692E819
:10472000030083E80300BC683B460D222449184679
:10473000FCF74EFF04F10C033A4692E8030083E8CD
:104740000300BB681F4A5A61FB68DB68002B0AD173
:10475000FB68BA681A61FB681A69FB68DA60BB68B3
:1047600000221A6009E0FB681B69BA681A60FB68DE
:10477000BA681A61BB6800221A600E4B9B68002B56
:104780000AD10C4AFB68D3600A4BDB68094A936084
:10479000FB6800221A6009E0064BDB68FA681A60C1
:1047A000044AFB68D360FB6800221A6000BF14371C
:1047B000BD4690BDBC0000203C610008446100087B
:1047C0004C610008FD45000880B582B000AF7860FC
:1047D00039603A6813465B001344DB001946786879
:1047E000FCF754FE03460B4A13600A4A3B685360C9
:1047F000094B1B68002B06D0074B5B68022B02D9C4
:104800000648FFF73DFBFFF763FF00BF0837BD46D3
:1048100080BD00BF5C010020BC0000205C6100087E
:1048200090B587B000AF07F1080484E803007A6010
:104830003B6000237B611E4B5A681D4B1B699A42EB
:104840000BD31C4B1B68002B2DD01A4B5B68002B25
:1048500029D01948FFF714FB25E0154B1968144BB4
:104860005A6813469B0013449B000B443B613B6911
:104870001A4607F1080393E8030082E803003B6946
:10488000BA6A9A607B681A683B691A613B693A6840
:10489000DA6079683868FDF7F9FF054B5B685A1CE8
:1048A00003494A607B617B6918461C37BD4690BD51
:1048B00064010020BC0000207461000890B587B03E
:1048C00000AF07F1080484E803007A603B6000232E
:1048D0007B611E4BDA681D4B1B699A420BD31C4B44
:1048E0001B68002B2DD01A4B5B68002B29D0194870
:1048F000FFF7C6FA25E0154B9968144BDA681346A2
:104900009B0013449B000B443B613B691A4607F133
:10491000080393E8030082E803003B69BA6A9A60DF
:104920007B681A683B691A613B693A68DA607968A2
:104930003868FDF7ABFF054BDB685A1C0349CA60BA
:104940007B617B6918461C37BD4690BD6401002021
:10495000BC000020B061000880B584B000AF786072
:104960000023FB60104B5B687A689A4217D20E4BAB
:1049700019687A6813469B0013449B000B44BB6084
:10498000BB68DA68BB681B699BB219461046FEF724
:1049900029F903461A46BB689B685340FB60FB68D5
:1049A00018461037BD4680BD6401002080B584B034
:1049B00000AF78600023FB60104BDB687A689A4296
:1049C00017D20E4B99687A6813469B0013449B00DC
:1049D0000B44BB60BB68DA68BB681B699BB21946B5
:1049E0001046FEF7FFF803461A46BB689B68534023
:1049F000FB60FB6818461037BD4680BD640100208F
:104A000080B584B000AF78603960104BDB687A689D
:104A10009A4217D20D4B99687A6813469B0013444B
:104A20009B000B44FB60FB68D868FB681B6999B26C
:104A3000FB689B68DAB23B68DBB25340DBB21A46D4
:104A4000FEF7E8F800BF1037BD4680BD64010020C6
:104A5000B0B588B002AF78600023FB602F48FFF745
:104A6000B3F900237B6120E02D4B19687A69134666
:104A70009B0013449B000B445B681D46284B196840
:104A80007A6913469B0013449B000B441C687869A9
:104A9000FFF762FF0346009323462A4679692148BF
:104AA000FFF792F97B6901337B611D4B5B687A6983
:104AB0009A42D9D31C48FFF787F900233B6120E0D5
:104AC000174B99683A6913469B0013449B000B44AB
:104AD0005B681D46124B99683A6913469B00134464
:104AE0009B000B441C683869FFF760FF0346009386
:104AF00023462A4639690B48FFF766F93B690133BB
:104B00003B61074BDB683A699A42D9D30123FB60CA
:104B1000FB6818461837BD46B0BD00BFEC61000801
:104B200064010020F86100080C620008B0B594B080
:104B300002AF78600023FB637B68002B79D07A6832
:104B400007F13403043292E8030083E803000023F2
:104B50007B642CE03B4B19687A6C13469B00134432
:104B60009B000B4407F120041D460FCD0FC42B689A
:104B700023602023009307F134030CCB07F12001BD
:104B800003C9FCF743FD0346002B0DD07B6A1D468D
:104B90003C6A786CFFF7E0FE0346224629462A4825
:104BA000FFF712F9012348E07B6C01337B64254B4E
:104BB0005B687A6C9A42CDD300233B642CE0214B96
:104BC00099683A6C13469B0013449B000B4407F111
:104BD0000C041D460FCD0FC42B68236020230093C7
:104BE00007F134030CCB07F10C0103C9FCF70EFDF0
:104BF0000346002B0DD03B691D46FC68386CFFF75F
:104C0000D5FE0346224629460F48FFF7DDF801236B
:104C100013E03B6C01333B640A4BDB683A6C9A420D
:104C2000CDD3BB6B19467B6B1A460848FFF7CCF80F
:104C300002E00748FFF7C8F8FB6B18464837BD4647
:104C4000B0BD00BF640100201862000824620008A3
:104C50003C620008B0B590B002AF786000237B637F
:104C60007B68002B67D07A6807F11C03043292E856
:104C7000030083E80300344B1B683B630023FB62A3
:104C800021E0324B9968FA6A13469B0013449B005B
:104C90000B4407F108041D460FCD0FC42B68236099
:104CA0002023009307F11C030CCB07F1080103C973
:104CB000FCF7ACFC0346002B02D0FB6A3B6307E029
:104CC000FB6A0133FB62214BDB68FA6A9A42D8D354
:104CD0001D4B1B683A6B9A4225D07B681B68BB62F0
:104CE000BB6A002B1BD0BB6A5B681B78303B7B62C6
:104CF0007B6A002B02D07B6A012B06D1796A386B64
:104D0000FFF77EFE01237B6318E0BB6A9B681946B0
:104D1000BB6A5B681A460E48FFF756F80EE00D486E
:104D2000FFF752F80AE03B6A1946FB691A460A483F
:104D3000FFF74AF802E00948FFF746F87B6B184690
:104D40003837BD46B0BD00BF6800002064010020B8
:104D50005062000874620008246200088C62000837
:104D600090B587B000AF754B1B6914211846FCF74E
:104D70008DFB78617C693B46032271491846FCF73C
:104D800027FC231D3A4692E8030083E803006B4B9F
:104D90001B6918211846FCF779FB38613C693B46D2
:104DA000062268491846FCF713FC231D3A4692E890
:104DB000030083E803003C693B460D226249184624
:104DC000FCF706FC04F10C033A4692E8030083E882
:104DD00003003B695D4A5A617B69DB68002B0AD19D
:104DE0007B693A691A617B691A697B69DA603B6998
:104DF00000221A6009E07B691B693A691A607B69C5
:104E00003A691A613B6900221A604C4B1B691821F0
:104E10001846FCF73BFBF860FC683B4603224C4914
:104E20001846FCF7D5FB231D3A4692E8030083E8B9
:104E30000300FC683B46162246491846FCF7C8FBAF
:104E400004F10C033A4692E8030083E80300FB6890
:104E5000414A5A617B69DB68002B0AD17B69FA6899
:104E60001A617B691A697B69DA60FB6800221A6043
:104E700009E07B691B69FA681A607B69FA681A6144
:104E8000FB6800221A602D4B1B6918211846FCF79D
:104E9000FDFAB860BC683B46032230491846FCF76F
:104EA00097FB231D3A4692E8030083E80300BC68A1
:104EB0003B4613222A491846FCF78AFB04F10C03EF
:104EC0003A4692E8030083E80300BB68254A5A612A
:104ED0007B69DB68002B0AD17B69BA681A617B6940
:104EE0001A697B69DA60BB6800221A6009E07B6995
:104EF0001B69BA681A607B69BA681A61BB680022CC
:104F00001A600E4B9B68002B0AD10C4A7B69D36058
:104F10000A4BDB68094A93607B6900221A6009E04A
:104F2000064BDB687A691A60044A7B69D3607B6947
:104F300000221A6000BF1C37BD4690BDBC00002097
:104F4000A8620008446100084C610008514A00084A
:104F5000AC620008B06200082D4B0008C86200086F
:104F6000CC620008554C000880B582B000AF786074
:104F700039603A6813469B0013449B0019467868D1
:104F8000FCF784FA0346114A13603A6813469B0003
:104F900013449B0019467868FCF778FA03460B4ADD
:104FA00093600A4A3B681361FFF7DAFE084B1B68FF
:104FB000002B06D0064B5B68022B02D90548FEF792
:104FC0005FFF00BF0837BD4680BD00BF6401002001
:104FD000BC000020E062000880B58AB000AF7860B5
:104FE000324B1B68BB6100237B627B68002B55D072
:104FF0007B687B610023FB6007F10C027B69043353
:1050000093E80300FCF74EFD03463B62FB68012B6F
:1050100040D07B691B683B613B69002B36D007F1B0
:105020000C023B69043393E80300FCF73BFDF86195
:1050300024E03B6A19461E48FEF7C6FE3B6A1A1D6D
:105040003A621B6819461B48FEF7BEFE3B6A1A1DF2
:105050003A621B6819461748FEF7B6FE3B6A1A1DEE
:105060003A621B6819461348FEF7AEFE3B6A1A1DEA
:105070003A621B6819461048FEF7A6FEFB695A1EE5
:10508000FA61002BD5D101237B620AE00B48FEF7C1
:105090009BFE06E00A48FEF797FE02E00948FEF78D
:1050A00093FE7B6A18462837BD4680BD78000020F5
:1050B000F0620008F8620008006300080863000856
:1050C000206300083863000880B58AB000AF7860BC
:1050D00000237B627B68002B67D07B683B620023E8
:1050E000BB6007F108023B6A043393E80300FCF756
:1050F000D9FC0346FB61BB68012B52D03B6A1B689D
:10510000BB61BB69002B48D007F10802BB690433BF
:1051100093E80300FCF7C6FC7861BB691B683B6140
:105120003B69002B35D007F108023B69043393E853
:105130000300FCF7B7FCF8607B69022B0FD07B699A
:10514000042B19D0FB68DAB2FB691A70FB68DBB27A
:105150001946FB691A461948FEF736FE16E0FB6849
:105160009AB2FB691A80FB689BB21946FB691A4622
:105170001348FEF729FE09E0FB69FA681A60FB692B
:105180001A46F9680F48FEF71FFE00BF01237B6235
:105190000EE00D48FEF718FE0AE00C48FEF714FE7C
:1051A00006E00B48FEF710FE02E00A48FEF70CFE90
:1051B0007B6A18462837BD4680BD00BF4C63000897
:1051C0006063000874630008886300089C6300083B
:1051D000206300083863000890B587B000AF564BD5
:1051E0001B6914211846FCF751F978617C693B462C
:1051F000032252491846FCF7EBF9231D3A4692E880
:10520000030083E803004C4B1B6918211846FCF788
:105210003DF938613C693B46042249491846FCF790
:10522000D7F9231D3A4692E8030083E803003C695E
:105230003B462F2243491846FCF7CAF904F10C03F8
:105240003A4692E8030083E803003B693E4A5A610C
:105250007B69DB68002B0AD17B693A691A617B693B
:105260001A697B69DA603B6900221A6009E07B6990
:105270001B693A691A607B693A691A613B690022C5
:105280001A602D4B1B6918211846FCF7FFF8F860CF
:10529000FC683B4605222D491846FCF799F9231D69
:1052A0003A4692E8030083E80300FC683B46352257
:1052B00027491846FCF78CF904F10C033A4692E8AA
:1052C000030083E80300FB68224A5A617B69DB68BC
:1052D000002B0AD17B69FA681A617B691A697B69BC
:1052E000DA60FB6800221A6009E07B691B69FA68D2
:1052F0001A607B69FA681A61FB6800221A600E4B1B
:105300009B68002B0AD10C4A7B69D3600A4BDB688F
:10531000094A93607B6900221A6009E0064BDB684A
:105320007A691A60044A7B69D3607B6900221A603B
:1053300000BF1C37BD4690BDBC000020B86300080C
:10534000BC630008C4630008D94F0008F463000878
:10535000FC630008C950000880B582B000AF7860D7
:1053600039600D4B1B68002B06D00B4B5B68022B82
:1053700002D90A48FEF784FD3B685B01194678684C
:10538000FCF784F80346064A1360054A3B685360FD
:1053900000BF0837BD4680BDBC0000203464000853
:1053A0007801002080B586B000AF786039603B6836
:1053B000BB6000237B6100233B610023FB60BB6873
:1053C0009B69013B032B0BD801A252F823F000BFCD
:1053D000F1530008075400083D5400084D540008DC
:1053E0002B4B1B68002B39D02A48FEF749FD35E0CE
:1053F00002237B61BB68DB68FB6001233B61BB6808
:1054000000229A602BE0BB689B685A1CBB689A60BC
:10541000BB689A68BB685B689A4207D203237B61CA
:1054200000233B61BB68DB68FB6018E004237B6101
:1054300000233B61BB685B69FB6010E002237B617A
:1054400001233B61BB68DB68FB6008E001237B61F3
:1054500000233B61BB681B69FB6000E000BFBB68C9
:105460007A699A61BB681B6839691846FFF7C8FA00
:10547000BB68DB69F9681846FFF71EF8BB68DB6993
:105480001846FEF7F9FF00BF1837BD4680BD00BFC4
:10549000BC0000204864000880B586B000AFF8600A
:1054A000B9607A603B6000237B611E4B9A681D4B9C
:1054B0005B689A420BD31C4B1B68002B2DD01A4BF8
:1054C0005B68002B29D01948FEF7DAFC25E0154B64
:1054D0001A68144B9B685B0113443B613B69BA68D3
:1054E0005A603B697A68DA603B693A681A613B69DD
:1054F0003A6A5A613B6918693B690D4A0021FEF717
:1055000069FF02463B69DA613B69FA681A60054B3C
:105510009B685A1C03498A607B617B69184618376F
:10552000BD4680BD78010020BC00002068640008F2
:10553000A553000880B5B6B002AF0023C7F8CC3041
:1055400007F1640300221A605A609A60DA601A61F7
:105550004FF400637B660223BB6605237B67012350
:10556000FB6602233B6707F178030822844918464B
:10557000FCF72EF807F1640200230093814B07F13A
:10558000780103C9FFF79AF9C7F8C8004FF48053B0
:105590007B660223BB6605237B670023FB66022331
:1055A0003B6707F18003082277491846FCF710F89B
:1055B00007F1640200230093724B07F1800103C9D5
:1055C000FFF77CF9C7F8C4004FF400537B66022351
:1055D000BB6605237B670023FB6602233B6707F15D
:1055E0008803092269491846FBF7F2FF07F16402B4
:1055F00000230093634B07F1880103C9FFF710F9FB
:10560000C7F8C0004FF480437B660223BB660523C6
:105610007B670023FB6602233B6707F190030922A7
:105620005B491846FBF7D4FF07F16402002300939F
:10563000544B07F1900103C9FFF740F9C7F8BC00CC
:105640004FF480637B660123BB660023FB66022365
:105650003B6707F1980309224E491846FBF7B8FF4C
:1056600007F1640200230093464B07F1980103C938
:10567000FFF724F9C7F8B80080237B660123BB66D7
:105680000023FB6602233B6707F1A0030C2242497B
:105690001846FBF79DFF07F1640200230093394B86
:1056A00007F1A00103C9FFF709F9C7F8B4004FF4E7
:1056B00080737B660123BB660023FB6602233B6786
:1056C00007F1A803052235491846FBF781FF07F1CA
:1056D0006402002300932B4B07F1A80103C9FFF7D5
:1056E000EDF8C7F8B0000023BB602D4B5B6C2C4A73
:1056F00043F4005353642A4B5B6C03F40053BB60C8
:10570000BB6807F10C03582200211846FAF736FE51
:10571000244BFB604FF482733B6100237B610023C9
:10572000BB610023FB6100233B624FF480237B625B
:105730001823BB620023FB6200233B6300237B63CF
:105740000023BB6307F10C031846FDF79BFC0346DF
:10575000002B0ED1144B7B603A46391D07F10C002B
:105760004FF47A7300930423FDF71FFD0123C7F85C
:10577000CC30D7F8CC301846D037BD4680BD00BFFE
:10578000A064000800100240AC640008B86400087F
:10579000C4640008D0640008DC640008EC640008FD
:1057A0000038024000340140DEADBEEF80B584B069
:1057B00000AF78600023FB600448FEF705FB01237F
:1057C000FB60FB6818461037BD4680BDF4640008D6
:1057D000B0B489B000AF786007F1080300221A6006
:1057E0005A609A60DA601A615A61094B1B683B6122
:1057F0007B681D4607F108040FCC0FC594E8030031
:1058000085E8030078682437BD46B0BC704700BF08
:105810006800002080B584B000AF7860FCF782FBA0
:10582000F8607B685B68FA68D31ABB607B681A68AB
:10583000BB681A447B681A607B681A69114B1B6845
:105840009A4203D27B681B69013301E00D4B1B6850
:105850007A6813617B68DB68BA689A4202D97B6810
:10586000BA68DA607B689B68BA689A4202D27B6841
:10587000BA689A607B68FA685A6000BF1037BD4604
:1058800080BD00BF6800002080B500AF0B4B5B6996
:1058900003F40053002B0FD0FFF74CFE0346012BFF
:1058A00003D10748FEF790FA02E00648FEF78CFAAB
:1058B000024B4FF400525A6100BF80BD003C0140D2
:1058C0000C6500082065000890B5A9B002AFFDF78F
:1058D000D9FE0346012B00D0FEE74FF40040FBF752
:1058E00066FDC7F890004FF40040FBF7FBFD07F1A1
:1058F0005803002200211846FBF710FE07F1380379
:10590000202200211846FAF739FD4FF48073FB631B
:105910004FF40073BB6307233B64BB4B7B644FF4C2
:105920006143BB64B94B7B654FF48073FB644FF4F8
:1059300080733B654023C7F88C3007F138031A4663
:10594000D7F88C10D7F89000FDF7C2FF0346002B64
:1059500000D1FEE7AE4B1B68002B06D0AC4B5B685A
:10596000022B02D9AB48FEF78BFA1421D7F890002E
:10597000FBF78CFDC7F88800D7F888403B46042227
:10598000A5491846FBF724FE231D3A4692E803007A
:1059900083E803001821D7F89000FBF777FDC7F8DC
:1059A0008400D7F884403B4606229C491846FBF702
:1059B0000FFE231D3A4692E8030083E80300D7F860
:1059C00084403B46162296491846FBF701FE04F137
:1059D0000C033A4692E8030083E80300D7F88430CA
:1059E000904A5A61D7F88830DB68002B0FD1D7F87E
:1059F0008830D7F884201A61D7F888301A69D7F828
:105A00008830DA60D7F8843000221A600EE0D7F8C8
:105A100088301B69D7F884201A60D7F88830D7F807
:105A200084201A61D7F8843000221A60784B9B6872
:105A3000002B0CD1764AD7F88830D360744BDB68E2
:105A4000734A9360D7F8883000221A600CE0704BDC
:105A5000DB68D7F888201A606D4AD7F88830D360A1
:105A6000D7F8883000221A600521D7F89000FEF799
:105A7000ABFE0821D7F89000FFF776FA07F1240370
:105A800000221A605A609A60DA601A6104237B620D
:105A90000123BB620023FB6202233B6307F1600327
:105AA000092261491846FBF793FD07F12402002300
:105AB00000935E4B07F1600103C9FEF7FFFEC7F8D4
:105AC000800008237B620123BB620023FB62022368
:105AD0003B6307F16803072255491846FBF778FD39
