:020000040800F2
:1000000000000320E1070008690900086F090008E3
:10001000750900087B09000881090008000000003C
:100020000000000000000000000000008709000838
:100030009509000800000000A3090008B1090008A4
:1000400031080008310800083108000831080008AC
:10005000310800083108000831080008310800089C
:10006000310800083108000831080008310800088C
:10007000310800083108000831080008310800087C
:10008000310800083108000831080008310800086C
:10009000310800083108000831080008310800085C
:1000A000310800083108000831080008310800084C
:1000B000310800083108000831080008310800083C
:1000C000310800083108000831080008310800082C
:1000D000310800083108000831080008310800081C
:1000E000310800083108000831080008310800080C
:1000F00031080008310800083108000831080008FC
:1001000031080008310800083108000831080008EB
:1001100031080008310800083108000831080008DB
:1001200031080008310800083108000831080008CB
:1001300031080008310800083108000831080008BB
:1001400031080008310800083108000831080008AB
:10015000310800083108000831080008310800089B
:10016000310800083108000831080008310800088B
:1001700031080008310800083108000800000000BC
:10018000310800083108000831080008310800086B
:10019000310800083108000831080008310800085B
:0C01A00031080008310800083108000890
:1001AC000348044B834202D0034B03B118477047FA
:1001BC007000002070000020000000000548064977
:1001CC000B1AD90F01EBA301491002D0034B03B159
:1001DC0018477047700000207000002000000000DD
:1001EC0010B5064C237843B9FFF7DAFF044B13B173
:1001FC000448AFF300800123237010BD7000002071
:10020C0000000000CC1B000808B5044B1BB10449CE
:10021C000448AFF30080BDE80840CFE700000000C1
:10022C0074000020CC1B0008014B1868704700BFFD
:10023C000000002070B50D4E0D4D761BB61006D08B
:10024C000024013455F8043B9847A642F9D1094ED5
:10025C00094D761B01F0B4FCB61006D00024013415
:10026C0055F8043B9847A642F9D170BD5C1C0008B8
:10027C005C1C0008601C00085C1C0008024B01465A
:10028C00186800F0B1B800BF00000020024B014616
:10029C00186800F053B800BF00000020F0B48607C7
:1002AC0046D0541E002A3CD0CAB2034602E014F1D8
:1002BC00FF3436D303F8012B9D07F8D1032C29D931
:1002CC00CDB245EA05250F2C45EA054533D9A4F1F5
:1002DC001006360903F1200707EB061703F110028D
:1002EC0042E9045542E902551032BA42F8D1721C67
:1002FC0014F00C0F03EB021204F00F0613D0331F93
:10030C0023F003030433134442F8045B9342FBD100
:10031C0006F003042CB1C9B21C4403F8011B9C4227
:10032C00FBD1F0BC704734461346002CF3D1F8E7F0
:10033C0014460346C2E71A462646E0E700293CD09D
:10034C0038B551F8043C0C1F002BB8BFE418054617
:10035C0000F0C0F8234B1A682AB1A2420DD92168CB
:10036C006018824223D0626028461C60BDE8384089
:10037C0000F0B2B8A34203D81A465368002BF9D147
:10038C0011685018A04219D024D8216860188342F3
:10039C0006D0636054602846BDE8384000F09CB835
:1003AC00D3E900030144636021605460F3E7D2E9B0
:1003BC000002014462602160D6E770472068014466
:1003CC00501883421160E6D1D3E900030144536015
:1003DC001160E0E70C232B602846BDE8384000F0A4
:1003EC007BB800BF8C000020F8B5CD1C25F00305B0
:1003FC0008350C2D38BF0C25002D064633DBA942E1
:10040C0031D82A4F00F066F83A6852B113685B1B7A
:10041C0004D43FE023685B1B29D522465468002C8A
:10042C00F8D1796800293BD02946304600F040F8D5
:10043C00431C28D0C41C24F00304A04205D0211A6C
:10044C00304600F035F801301DD02560304600F004
:10045C0043F804F10B0020F00700231DC21A01D051
:10046C001B1AA350F8BD0C2232600020F8BD0B2BD8
:10047C0005D8A242636811D05360E7E714462360A5
:10048C001C442560E2E70C233046336000F024F86E
:10049C000020F8BD0B2BF1D8536814463B60D5E710
:1004AC00304600F005F87860BEE700BF8C000020F5
:1004BC0038B5074C002305460846236000F078FA4F
:1004CC00431C00D038BD2368002BFBD02B6038BDFB
:1004DC00A4000020704700BF704700BF53B94AB951
:1004EC00002908BF00281CBF4FF0FF314FF0FF3030
:1004FC0000F06EB9ADF1080C6DE904CE00F006F811
:10050C00DDF804E0DDE9022304B070472DE9F04783
:10051C00089D04468C46002B40F083808A42174687
:10052C0047D9B2FA82F242B1C2F1200024FA00F0AB
:10053C009140974040EA010C94404FEA1748230C35
:10054C00BCFBF8F61FFA87FE08FB16C143EA014311
:10055C0006FB0EF1994209D9FB1806F1FF3080F029
:10056C001981994240F21681023E3B445B1AA4B2B7
:10057C00B3FBF8F008FB103344EA034400FB0EFE17
:10058C00A64509D93C1900F1FF3380F00581A64539
:10059C0040F2028102383C4440EA0640A4EB0E04CF
:1005AC0000261DB1D4400023C5E900433146BDE807
:1005BC00F08702B9FFDEB2FA82F2002A50D1CB1BCF
:1005CC004FEA174E1FFA87F80126B3FBFEFC210CED
:1005DC000EFB1C3341EA034108FB0CF38B4207D999
:1005EC0079180CF1FF3002D28B4200F2E98084467C
:1005FC00C91AA3B2B1FBFEF00EFB101143EA014481
:10060C0008FB00F8A04507D93C1900F1FF3302D2D2
:10061C00A04500F2D9801846A4EB080440EA0C402F
:10062C00BFE78B4209D9002D00F0B1800026C5E947
:10063C00000130463146BDE8F087B3FA83F6002E50
:10064C004AD18B4202D3824200F2B880841A61EB09
:10065C00030101208C46002DA8D0C5E9004CA5E76C
:10066C00C2F1200320FA03F6974001FA02F04FEA98
:10067C00174ED9403043030CB1FBFEF61FFA87F836
:10068C000EFB161143EA014306FB08F1994204FAEA
:10069C0002F409D9FB1806F1FF3C80F08D809942D9
:1006AC0040F28A80023E3B445B1A81B2B3FBFEF0FF
:1006BC000EFB103341EA034100FB08F38B4207D9D0
:1006CC00791800F1FF3C73D28B4271D9023839444E
:1006DC00CB1A40EA064678E7C6F1200C03FA06F47A
:1006EC0022FA0CF31C4320FA0CF701FA06F34FEA3A
:1006FC00144E21FA0CF11F433B0CB1FBFEF91FFA0F
:10070C0084F80EFB191143EA014109FB08FA8A45EA
:10071C0002FA06F200FA06F308D9611809F1FF3063
:10072C0048D28A4546D9A9F102092144A1EB0A0114
:10073C00BFB2B1FBFEF00EFB101147EA014700FB04
:10074C0008F8B84507D9E71900F1FF312ED2B845A2
:10075C002CD90238274440EA0940A7EB0807A0FB34
:10076C0002894F45C64649461AD317D05DB1B3EB43
:10077C000E0267EB010707FA0CFCF2404CEA02028E
:10078C00F740C5E9002700263146BDE8F0872E4624
:10079C0028460BE70646E9E61846FDE64345E5D252
:1007AC00B8EB020E69EB04010138DFE70846D2E72B
:1007BC0060468DE78146B9E7664675E730464AE7FD
:1007CC00ACF1020C394413E702383C4424E700BF77
:1007DC00704700BFDFF834D00D480E490E4A002395
:1007EC0002E0D458C4500433C4188C42F9D30B4AD9
:1007FC000B4C002301E013600432A242FBD300F047
:10080C000DF9FFF717FD01F03FF8704700000320CA
:10081C000000002070000020641C00087000002004
:10082C00A8000020FEE7000080B500AF0E4B1B684F
:10083C000D4A43F4007313600B4B1B680A4A43F4D4
:10084C0080631360084B1B68074A43F48073136082
:10085C00032000F0A7F9002000F008F800F056F88B
:10086C000023184680BD00BF003C024080B582B01A
:10087C0000AF7860124B1A68124B1B7819464FF474
:10088C007A73B3FBF1F3B2FBF3F3184600F0B1F952
:10089C000346002B01D001230EE07B680F2B0AD8F6
:1008AC00002279684FF0FF3000F087F9064A7B6828
:1008BC001360002300E0012318460837BD4680BDB5
:1008CC006C000020680000206400002080B400AFA1
:1008DC00064B1B781A46064B1B681344044A1360DC
:1008EC0000BFBD465DF8047B704700BF6800002068
:1008FC009400002080B400AF034B1B681846BD4623
:10090C005DF8047B704700BF9400002080B483B076
:10091C0000AF00237B60104B5B6C0F4A43F48043A9
:10092C0053640D4B5B6C03F480437B607B6800234A
:10093C003B60094B1B6C084A43F080531364064B15
:10094C001B6C03F080533B603B6800BF0C37BD460B
:10095C005DF8047B704700BF0038024080B400AFE4
:10096C00FEE780B400AFFEE780B400AFFEE780B4D2
:10097C0000AFFEE780B400AFFEE780B400AF00BF6D
:10098C00BD465DF8047B704780B400AF00BFBD4628
:10099C005DF8047B704780B400AF00BFBD465DF8C6
:1009AC00047B704780B500AFFFF790FF00BF80BDA0
:1009BC0080B586B000AF7860144A154BD31A7B61B2
:1009CC007B693B61134B1B68002B02D1114B124A04
:1009DC001A60104B1A687B6813443A699A4207D222
:1009EC00FFF722FC03460C221A604FF0FF3309E09C
:1009FC00084B1B68FB60074B1A687B681344054A5D
:100A0C001360FB6818461837BD4680BD00000320F4
:100A1C000004000098000020A800002080B400AF63
:100A2C00064BD3F88830054A43F47003C2F888307B
:100A3C0000BFBD465DF8047B704700BF00ED00E0D1
:100A4C0080B485B000AF78607B6803F00703FB606F
:100A5C000C4BDB68BB60BA684FF6FF031340BB60FE
:100A6C00FB681A02BB68134343F0BF6343F40033C3
:100A7C00BB60044ABB68D36000BF1437BD465DF849
:100A8C00047B704700ED00E080B400AF044BDB68E2
:100A9C001B0A03F007031846BD465DF8047B70473C
:100AAC0000ED00E080B483B000AF03463960FB7109
:100ABC0097F90730002B0ADB3B68DAB20C4997F93F
:100ACC0007301201D2B20B4483F800230AE03B68D2
:100ADC00DAB20849FB7903F00F03043B1201D2B2DE
:100AEC000B441A7600BF0C37BD465DF8047B70478B
:100AFC0000E100E000ED00E080B489B000AFF860E8
:100B0C00B9607A60FB6803F00703FB61FB69C3F112
:100B1C000703042B28BF0423BB61FB690433062B9A
:100B2C0002D9FB69033B00E000237B614FF0FF32ED
:100B3C00BB6902FA03F3DA43BB681A407B699A403B
:100B4C004FF0FF317B6901FA03F3D9437B680B400B
:100B5C00134318462437BD465DF8047B70470000EC
:100B6C0080B582B000AF78607B68013BB3F1807FC9
:100B7C0001D301230FE00A4A7B68013B53600F212C
:100B8C004FF0FF30FFF78EFF054B00229A60044BAD
:100B9C0007221A60002318460837BD4680BD00BFE7
:100BAC0010E000E080B582B000AF78607868FFF7A5
:100BBC0047FF00BF0837BD4680BD80B586B000AF8B
:100BCC000346B9607A60FB7300237B61FFF75CFF1F
:100BDC0078617A68B9687869FFF78EFF024697F9F1
:100BEC000F3011461846FFF75DFF00BF1837BD46A2
:100BFC0080BD80B582B000AF78607868FFF7B0FF39
:100C0C00034618460837BD4680BD000080B586B047
:100C1C0000AF78607B68002B01D1012364E27B6814
:100C2C001B6803F00103002B75D0A34B9B6803F0EA
:100C3C000C03042B0CD0A04B9B6803F00C03082B6B
:100C4C0012D19D4B5B6803F48003B3F5800F0BD17D
:100C5C00994B1B6803F40033002B5BD07B685B68FB
:100C6C00002B57D101233FE27B685B68B3F5803FD3
:100C7C0006D1914B1B68904A43F4803313601DE0FE
:100C8C007B685B68B3F5A02F0CD18B4B1B688A4A31
:100C9C0043F480231360884B1B68874A43F48033EA
:100CAC0013600BE0844B1B68834A23F4803313607E
:100CBC00814B1B68804A23F4802313607B685B683C
:100CCC00002B13D0FFF716FE386108E0FFF712FE79
:100CDC0002463B69D31A642B01D9032304E2764BF9
:100CEC001B6803F40033002BF0D014E0FFF702FE76
:100CFC00386108E0FFF7FEFD02463B69D31A642B0E
:100D0C0001D90323F0E16C4B1B6803F40033002B77
:100D1C00F0D100E000BF7B681B6803F00203002BDE
:100D2C0063D0654B9B6803F00C03002B0BD0624B1C
:100D3C009B6803F00C03082B1CD15F4B5B6803F41E
:100D4C008003002B16D15C4B1B6803F00203002BB5
:100D5C0005D07B68DB68012B01D00123C4E1564B25
:100D6C001B6823F0F8027B681B69DB0052491343B4
:100D7C000B603AE07B68DB68002B20D04F4B0122E4
:100D8C001A60FFF7B7FD386108E0FFF7B3FD0246C4
:100D9C003B69D31A022B01D90323A5E1464B1B68EF
:100DAC0003F00203002BF0D0434B1B6823F0F80236
:100DBC007B681B69DB00404913430B6015E03F4B1C
:100DCC0000221A60FFF796FD386108E0FFF792FDEC
:100DDC0002463B69D31A022B01D9032384E1364B1B
:100DEC001B6803F00203002BF0D17B681B6803F037
:100DFC000803002B30D07B685B69002B16D0304B7E
:100E0C0001221A60FFF776FD386108E0FFF772FDEA
:100E1C0002463B69D31A022B01D9032364E1264B0A
:100E2C005B6F03F00203002BF0D015E0244B002283
:100E3C001A60FFF75FFD386108E0FFF75BFD0246C3
:100E4C003B69D31A022B01D903234DE11A4B5B6F7B
:100E5C0003F00203002BF0D17B681B6803F0040342
:100E6C00002B00F0A0800023FB75134B1B6C03F0D0
:100E7C008053002B0FD10023BB600F4B1B6C0E4A11
:100E8C0043F0805313640C4B1B6C03F08053BB601A
:100E9C00BB680123FB750B4B1B6803F48073002BA1
:100EAC0021D1084B1B68074A43F480731360FFF78A
:100EBC0021FD386111E000BF0038024000004742BC
:100ECC00800E474200700040FFF714FD02463B695C
:100EDC00D31A022B01D9032306E1854B1B6803F4BB
:100EEC008073002BF0D07B689B68012B06D1814B63
:100EFC001B6F804A43F0010313671CE07B689B68FF
:100F0C00052B0CD17B4B1B6F7A4A43F00403136700
:100F1C00784B1B6F774A43F0010313670BE0754B5B
:100F2C001B6F744A23F001031367724B1B6F714ADA
:100F3C0023F0040313677B689B68002B15D0FFF725
:100F4C00D9FC38610AE0FFF7D5FC02463B69D31A9D
:100F5C0041F28832934201D90323C5E0654B1B6FE4
:100F6C0003F00203002BEED014E0FFF7C3FC386152
:100F7C000AE0FFF7BFFC02463B69D31A41F2883204
:100F8C00934201D90323AFE05A4B1B6F03F00203CA
:100F9C00002BEED1FB7D012B05D1564B1B6C554A1A
:100FAC0023F0805313647B689B69002B00F09B80BB
:100FBC00504B9B6803F00C03082B5CD07B689B693F
:100FCC00022B41D14C4B00221A60FFF793FC386185
:100FDC0008E0FFF78FFC02463B69D31A022B01D9BC
:100FEC00032381E0434B1B6803F00073002BF0D10B
:100FFC007B68DA697B681B6A1A437B685B6A9B01B6
:10100C001A437B689B6A5B08013B1B041A437B6891
:10101C00DB6A1B06374913434B60374B01221A60BE
:10102C00FFF768FC386108E0FFF764FC02463B6997
:10103C00D31A022B01D9032356E02E4B1B6803F065
:10104C000073002BF0D04EE02B4B00221A60FFF700
:10105C0051FC386108E0FFF74DFC02463B69D31A9E
:10106C00022B01D903233FE0224B1B6803F00073D2
:10107C00002BF0D137E07B689B69012B01D1012358
:10108C0032E01C4B5B68FB607B689B69012B28D0B2
:10109C00FB6803F480027B68DB699A4221D1FB6810
:1010AC0003F03F027B681B6A9A421AD1FA6847F632
:1010BC00C07313407A68526A9201934211D1FB6853
:1010CC0003F440327B689B6A5B08013B1B049A4229
:1010DC0007D1FB6803F070627B68DB6A1B069A42DF
:1010EC0001D0012300E0002318461837BD4680BD0F
:1010FC0000700040003802406000474280B584B068
:10110C0000AF786039607B68002B01D10123CCE003
:10111C00684B1B6803F00F033A689A420CD9654B75
:10112C003A68D2B21A70634B1B6803F00F033A682B
:10113C009A4201D00123B8E07B681B6803F00203DC
:10114C00002B20D07B681B6803F00403002B05D018
:10115C00594B9B68584A43F4E05393607B681B6877
:10116C0003F00803002B05D0534B9B68524A43F401
:10117C0060439360504B9B6823F0F0027B689B6844
:10118C004D4913438B607B681B6803F00103002BF4
:10119C0044D07B685B68012B07D1474B1B6803F479
:1011AC000033002B19D101237FE07B685B68022B95
:1011BC0003D07B685B68032B07D13F4B1B6803F0A4
:1011CC000073002B09D101236FE03B4B1B6803F02C
:1011DC000203002B01D1012367E0374B9B6823F0FE
:1011EC0003027B685B68344913438B60FFF782FB17
:1011FC00F8600AE0FFF77EFB0246FB68D31A41F267
:10120C008832934201D903234FE02B4B9B6803F0A8
:10121C000C027B685B689B009A42EBD1254B1B68E8
:10122C0003F00F033A689A420CD2224B3A68D2B2BE
:10123C001A70204B1B6803F00F033A689A4201D0D6
:10124C00012332E07B681B6803F00403002B08D0F9
:10125C00194B9B6823F4E0527B68DB6816491343F7
:10126C008B607B681B6803F00803002B09D0124BC2
:10127C009B6823F460427B681B69DB000E491343B7
:10128C008B6000F021F802460B4B9B681B0903F0A6
:10129C000F030A49CB5C22FA03F3094A1360094B8A
:1012AC001B681846FFF7E2FA002318461037BD46B4
:1012BC0080BD00BF003C024000380240441C0008C6
:1012CC006C000020640000202DE9B04384B000AF16
:1012DC0000237B600023FB6000233B600023BB608A
:1012EC00674B9B6803F00C03082B0DD0082B00F206
:1012FC00BD80002B02D0042B03D0B7E0614BBB6048
:10130C00B7E0614BBB60B4E05D4B5B6803F03F033F
:10131C007B605B4B5B6803F48003002B4DD0584B18
:10132C005B689B091A464FF0000340F2FF104FF028
:10133C00000102EA000803EA0109404649464FF061
:10134C0000024FF000034B0143EAD0634201104608
:10135C001946B0EB080061EB09014FF000024FF0A9
:10136C0000038B0143EA90638201121A63EB0103C1
:10137C004FF000004FF00001D90041EA5271D0004B
:10138C0002460B4612EB080243EB09034FF0000038
:10139C004FF00001590241EAD251500202460B466D
:1013AC00104619467B681A464FF00003FFF796F873
:1013BC0002460B461346FB604AE0314B5B689B09C7
:1013CC001A464FF0000340F2FF104FF0000102EA02
:1013DC00000403EA0105204629464FF000024FF0B5
:1013EC0000034B0143EAD063420110461946001B2F
:1013FC0061EB05014FF000024FF000038B0143EA53
:10140C0090638201121A63EB01034FF000004FF05E
:10141C000001D90041EA5271D00002460B46121964
:10142C0045EB03034FF000004FF00001990241EA35
:10143C009251900202460B46104619467B681A469A
:10144C004FF00003FFF74AF802460B461346FB60C9
:10145C000B4B5B681B0C03F0030301335B003B601D
:10146C00FA683B68B2FBF3F3BB6002E0054BBB6070
:10147C0000BFBB6818461037BD46BDE8B08300BF3F
:10148C00003802400024F40000127A0080B489B0C5
:10149C0000AF7860396000237B6100233B6100233F
:1014AC00BB610023FB6177E10122FB6902FA03F3C4
:1014BC007B613B681B687A6913403B613A697B69C5
:1014CC009A4240F066813B685B6803F00303012B92
:1014DC0005D03B685B6803F00303022B30D17B68BB
:1014EC009B68BB61FB695B00032202FA03F3DB43DD
:1014FC00BA691340BB613B68DA68FB695B0002FAAE
:10150C0003F3BA691343BB617B68BA699A607B6861
:10151C005B68BB610122FB6902FA03F3DB43BA6926
:10152C001340BB613B685B681B0903F00102FB695C
:10153C0002FA03F3BA691343BB617B68BA695A6058
:10154C003B685B6803F00303032B17D07B68DB68F5
:10155C00BB61FB695B00032202FA03F3DB43BA694C
:10156C001340BB613B689A68FB695B0002FA03F3AA
:10157C00BA691343BB617B68BA69DA603B685B6824
:10158C0003F00303022B23D1FB69DA087B680832D2
:10159C0053F82230BB61FB6903F007039B000F2259
:1015AC0002FA03F3DB43BA691340BB613B681A6967
:1015BC00FB6903F007039B0002FA03F3BA691343B8
:1015CC00BB61FB69DA087B680832B96943F8221001
:1015DC007B681B68BB61FB695B00032202FA03F3A7
:1015EC00DB43BA691340BB613B685B6803F00302E1
:1015FC00FB695B0002FA03F3BA691343BB617B68B6
:10160C00BA691A603B685B6803F44033002B00F046
:10161C00C0800023FB60664B5B6C654A43F48043DF
:10162C005364634B5B6C03F48043FB60FB68614A5F
:10163C00FB699B08023352F82330BB61FB6903F052
:10164C0003039B000F2202FA03F3DB43BA69134036
:10165C00BB617B68584A934237D07B68574A9342A8
:10166C0031D07B68564A93422BD07B68554A9342C3
:10167C0025D07B68544A93421FD07B68534A9342CF
:10168C0019D07B68524A934213D07B68514A9342DB
:10169C000DD07B68504A934207D07B684F4A9342E7
:1016AC0001D1092312E00A2310E008230EE00723DE
:1016BC000CE006230AE0052308E0042306E00323DC
:1016CC0004E0022302E0012300E00023FA6902F0A7
:1016DC00030292009340BA691343BB613549FB691D
:1016EC009B080233BA6941F823203D4B9B68BB61D0
:1016FC003B69DB43BA691340BB613B685B6803F42D
:10170C008013002B03D0BA693B691343BB61344A85
:10171C00BB699360324BDB68BB613B69DB43BA69E5
:10172C001340BB613B685B6803F40013002B03D0D0
:10173C00BA693B691343BB61294ABB69D360284B27
:10174C005B68BB613B69DB43BA691340BB613B68B7
:10175C005B6803F40033002B03D0BA693B69134375
:10176C00BB611F4ABB6953601D4B1B68BB613B6966
:10177C00DB43BA691340BB613B685B6803F480339D
:10178C00002B03D0BA693B691343BB61144ABB6994
:10179C001360FB690133FB61FB690F2B7FF684AE91
:1017AC0000BF00BF2437BD465DF8047B704700BF07
:1017BC0000380240003801400000024000040240A2
:1017CC0000080240000C02400010024000140240CD
:1017DC0000180240001C024000200240002402407D
:1017EC00003C014080B483B000AF78600B467B8036
:1017FC0013467B707B78002B03D07A887B689A61C8
:10180C0003E07B881A047B689A6100BF0C37BD46E5
:10181C005DF8047B704780B584B000AF7860786861
:10182C00FEF72CFD0346FB60FB6803F5C872FB68F2
:10183C001A60FB687A689A60FB681422DA60FB68AD
:10184C0008221A61FB6818461037BD4680BD00009F
:10185C0080B584B000AF78600023FB600AE0786844
:10186C00FFF7D9FF02460749FB6841F82320FB68C4
:10187C000133FB60FB68012BF1D900BF00BF1037AF
:10188C00BD4680BD9C00002080B582B000AFFEF745
:10189C00CBFF00F00DF84FF40040FFF7BCFF786071
:1018AC004FF40040FFF7D4FF00F062F8FEE70000B1
:1018BC0080B594B000AF07F1200330220021184608
:1018CC00FEF7ECFC07F10C0300221A605A609A60D8
:1018DC00DA601A610023BB60234B1B6C224A43F075
:1018EC0080531364204B1B6C03F08053BB60BB68AC
:1018FC0000237B601D4B1B6823F440431B4A43F4BD
:10190C0080431360194B1B6803F440437B607B6876
:10191C0002233B620123FB6210233B630023BB6366
:10192C0007F120031846FFF771F90346002B01D08D
:10193C0000F040F90F23FB6000233B6100237B6127
:10194C004FF48053BB610023FB6107F10C030021B2
:10195C001846FFF7D3FB0346002B01D000F02AF901
:10196C0000BF5037BD4680BD0038024000700040BB
:10197C0080B58CB000AF07F11C0300221A605A60CE
:10198C009A60DA601A610023BB61844B1B6B834A3B
:10199C0043F004031363814B1B6B03F00403BB6123
:1019AC00BB6900237B617D4B1B6B7C4A43F080033E
:1019BC0013637A4B1B6B03F080037B617B69002301
:1019CC003B61764B1B6B754A43F001031363734BFE
:1019DC001B6B03F001033B613B690023FB606F4B06
:1019EC001B6B6E4A43F0020313636C4B1B6B03F0CF
:1019FC000203FB60FB680023BB60684B1B6B674AF0
:101A0C0043F008031363654B1B6B03F00803BB60C7
:101A1C00BB6800237B60614B1B6B604A43F0400347
:101A2C0013635E4B1B6B03F040037B607B680022EF
:101A3C0044F281015A48FFF7D5FE00224021594853
:101A4C00FFF7D0FE4FF40053FB614FF488133B6259
:101A5C0000237B6207F11C0319465348FFF716FD60
:101A6C003223FB6102233B6200237B620323BB62B4
:101A7C000B23FB6207F11C0319464B48FFF706FDCD
:101A8C008623FB6102233B6200237B620323BB6240
:101A9C000B23FB6207F11C0319464448FFF7F6FCC5
:101AAC0044F28103FB6101233B6200237B62002330
:101ABC00BB6207F11C0319463948FFF7E7FC4FF4EA
:101ACC000053FB6102233B6200237B620323BB6256
:101ADC000B23FB6207F11C0319463148FFF7D6FCB8
:101AEC004FF44073FB6102233B6200237B620323B0
:101AFC00BB620723FB6207F11C0319462C48FFF756
:101B0C00C5FC4023FB6101233B6200237B62002365
:101B1C00BB6207F11C0319462248FFF7B7FC802370
:101B2C00FB6100233B6200237B6207F11C03194617
:101B3C001C48FFF7ABFC4FF4E853FB6102233B62FC
:101B4C0000237B620323BB620A23FB6207F11C03A5
:101B5C0019461648FFF79AFC4FF40073FB610023FB
:101B6C003B6200237B6207F11C0319460F48FFF709
:101B7C008DFC4FF42053FB6102233B6200237B62FC
:101B8C000323BB620B23FB6207F11C0319460548B8
:101B9C00FFF77CFC00BF3037BD4680BD00380240EB
:101BAC0000040240001802400008024000000240FD
:101BBC00000C024080B400AF72B600BFFEE700001C
:101BCC00F8B500BFF8BC08BC9E467047F8B500BF1E
:081BDC00F8BC08BC9E467047EE
:101BE40000000000000000000000000000000000F1
:101BF40000000000000000000000000000000000E1
:101C040000000000000000000000000000000000D0
:101C140000000000000000000000000000000000C0
:101C240000000000000000000000000000000000B0
:101C340000000000000000000000000000000000A0
:101C44000000000000000000010203040607080968
:081C5400C4E8FF7F010000005D
:041C5C001502000865
:041C6000ED0100088A
:101C64000400002000000000241C0008041C0008DC
:101C7400E41B000800000000000000000000000059
:101C84000000000000000000000000000000000050
:101C94000000000000000000000000000000000040
:101CA4000000000000000000000000000000000030
:101CB4000000000000000000000000000000000020
:101CC4000000000010000000010000000024F400E7
:04000005080007E107
:00000001FF
