:020000040800F2
:1000000000000320051F0008D9250008DF2500088F
:10001000E5250008EB250008F12500080000000098
:10002000000000000000000000000000F7250008AC
:1000300005260008000000001326000821260008FD
:10004000551F0008551F0008551F0008551F0008C0
:10005000551F0008551F0008551F0008551F0008B0
:10006000551F0008551F0008551F0008551F0008A0
:10007000551F0008551F0008551F0008551F000890
:10008000551F0008551F0008551F0008551F000880
:10009000551F0008551F0008551F0008551F000870
:1000A000551F0008551F0008551F0008551F000860
:1000B000551F0008551F0008551F0008551F000850
:1000C000551F0008551F0008551F0008551F000840
:1000D000551F0008551F0008551F0008551F000830
:1000E000551F0008551F0008551F0008551F000820
:1000F000551F0008551F0008551F0008551F000810
:10010000551F0008551F0008551F0008551F0008FF
:10011000551F0008551F0008551F0008551F0008EF
:10012000551F0008551F0008551F0008551F0008DF
:10013000551F0008551F0008551F0008551F0008CF
:10014000551F0008551F0008551F0008551F0008BF
:10015000551F0008551F0008551F0008551F0008AF
:10016000551F0008551F0008551F0008551F00089F
:10017000551F0008551F0008551F0008000000000B
:10018000551F0008551F0008551F0008551F00087F
:10019000551F0008551F0008551F0008551F00086F
:0C01A000551F0008551F0008551F0008DF
:1001B0000348044B834202D0034B03B118477047F6
:1001C0007000002070000020000000000548064973
:1001D0000B1AD90F01EBA301491002D0034B03B155
:1001E00018477047700000207000002000000000D9
:1001F00010B5064C237843B9FFF7DAFF044B13B16F
:100200000448AFF300800123237010BD700000206C
:10021000000000002033000808B5044B1BB104495E
:100220000448AFF30080BDE80840CFE700000000BD
:100230007400002020330008014B1868704700BF8D
:100240000000002070B50D4E0D4D761BB61006D087
:100250000024013455F8043B9847A642F9D1094ED1
:10026000094D761B03F05CF8B61006D0002401346B
:1002700055F8043B9847A642F9D170BD883500086F
:10028000883500088C35000888350008024B014687
:10029000186800F019B900BF00000020024B0146A9
:1002A000186800F0BBB800BF000000208842F0B41E
:1002B0000DD98B1883420AD9841832B1224613F81B
:1002C000014D02F8014D9942F9D1F0BC70470F2A57
:1002D0000ED80346541E002AF7D001340C44013BCB
:1002E00011F8012B03F8012FA142F9D1F0BC70479E
:1002F00040EA01039B073BD1A2F110073F0901F13E
:10030000200606EB071601F1100300F1100453F864
:10031000105C44F8105C53F80C5C44F80C5C53F827
:10032000085C44F8085C53F8045C44F8045C10333F
:10033000B34204F11004EAD17B1C1B0112F00C0F34
:10034000194402F00F05034415D0043DAD0803EB3A
:10035000850C1C1F0E4656F8047B44F8047F644548
:10036000F9D10135AD002B44294402F00302B1E775
:10037000541E0346B1E72A46ACE700BFF0B4860737
:1003800046D0541E002A3CD0CAB2034602E014F103
:10039000FF3436D303F8012B9D07F8D1032C29D95C
:1003A000CDB245EA05250F2C45EA054533D9A4F120
:1003B0001006360903F1200707EB061703F11002B8
:1003C00042E9045542E902551032BA42F8D1721C92
:1003D00014F00C0F03EB021204F00F0613D0331FBE
:1003E00023F003030433134442F8045B9342FBD12C
:1003F00006F003042CB1C9B21C4403F8011B9C4253
:10040000FBD1F0BC704734461346002CF3D1F8E71B
:1004100014460346C2E71A462646E0E700293CD0C8
:1004200038B551F8043C0C1F002BB8BFE418054642
:1004300001F0F8FA234B1A682AB1A2420DD92168BB
:100440006018824223D0626028461C60BDE83840B4
:1004500001F0EABAA34203D81A465368002BF9D137
:1004600011685018A04219D024D82168601883421E
:1004700006D0636054602846BDE8384001F0D4BA25
:10048000D3E900030144636021605460F3E7D2E9DB
:100490000002014462602160D6E770472068014491
:1004A000501883421160E6D1D3E900030144536040
:1004B0001160E0E70C232B602846BDE8384001F0CE
:1004C000B3BA00BF8C000020F8B5CD1C25F00305A1
:1004D00008350C2D38BF0C25002D064633DBA9420C
:1004E00031D82A4F01F09EFA3A6852B113685B1B6B
:1004F00004D43FE023685B1B29D522465468002CB6
:10050000F8D1796800293BD02946304600F07CFCC0
:10051000431C28D0C41C24F00304A04205D0211A97
:10052000304600F071FC01301DD02560304601F0EE
:100530007BFA04F10B0020F00700231DC21A01D042
:100540001B1AA350F8BD0C2232600020F8BD0B2B03
:1005500005D8A242636811D05360E7E714462360D0
:100560001C442560E2E70C233046336001F05CFA5E
:100570000020F8BD0B2BF1D8536814463B60D5E73B
:10058000304600F041FC7860BEE700BF8C000020E0
:100590009368013B002B936011DA10B49469A34275
:1005A00009DB0A2907D01368581C10601970084627
:1005B0005DF8044B70475DF8044B00F037BC1368DE
:1005C000581C106019700846704700BF9BB1F8B501
:1005D00013440F4606465D1E541E01E0AC4208D08F
:1005E0003A4614F8011F3046FFF7D2FF431CF5D1FD
:1005F000F8BD0020F8BD0020704700BF936810B51B
:10060000144613B95360184610BD00F0CFFE002306
:10061000C4E9013310BD00BF2DE9F04F9FB08B46F8
:1006200090461C46039018B18369002B00F0B780F8
:10063000A24B9B4500F0B980A14B9B4500F0C780C1
:10064000A04B9B4504BF039BD3F80CB0BBF80C3008
:10065000180740F1B280DBF81030002B00F0AD80BD
:1006600030238DF8323098F8003005940021202294
:100670000B918DF83120944E0127002B00F08780DC
:10068000252B00F01581454603E0252B00F0A380C3
:1006900025466B786C1C002BF7D1B4EB080A76D09A
:1006A0004246534659460398FFF790FF01306ED0FB
:1006B0000B9B6A7853440B93002A68D000234FF0B9
:1006C000FF3201340693CDE908338DF85B301C937B
:1006D000079205E0069A07FA03F313432C460693A4
:1006E0002546052215F8011B304601F0B1F8AA464F
:1006F000831B0028EED1069BD90644BF20228DF82B
:100700005B2021781A0744BF2B228DF85B202A2911
:1007100066D1059A1168043200290592C0F29D80C5
:1007200009916178A51C2E2973D0684C03222046BC
:1007300001F08EF8002800F08680001B069B402404
:1007400004FA00F00343069305F101082978604894
:100750008DF83010062201F07BF8002800F083802D
:100760005C4B002B72D005AB00935A465A4B039852
:1007700006A9AFF300808146B9F1FF3F07D00B9B7C
:100780004B440B9398F80030002B7FF479AFBBF803
:100790000C305B0618D40B981FB0BDE8F08F00F04A
:1007A000E5FD464B9B457FF447AF039BD3F804B070
:1007B000BBF80C3018073FF54EAF5946039800F0D0
:1007C00095FB00283FF44CAF4FF0FF30E4E7039B6C
:1007D000D3F808B03AE7B4EB080A3FF46FAF5FE72D
:1007E000A1F13002092A88BFA2469CD8099B01E0EA
:1007F0002C460135297803EB830302EB4303A1F177
:100800003002092AAA46F3D92E2904F102050993D8
:100810008BD19AF801102A292FD1059B9AF8021042
:100820001A6807920433002A05930AF103050AF1B6
:10083000020338DB254C032220469A4601F008F8D3
:1008400000287FF47AAFA84655467FE7059B07331B
:1008500023F007030833059391E7494243F002036D
:10086000099106935DE705AB00935A461A4B03982E
:1008700006A900F0D5F881467EE7A1F130020023F9
:10088000092A079301D915E05546697803EB8303DC
:1008900002EB4303A1F13002092A05F1010AF3D961
:1008A0000235079341E74FF0FF329A4607923CE743
:1008B000444603E7AA46013537E700BF1435000870
:1008C000F4340008D4340008443500084C350008DE
:1008D0005035000800000000CD05000810B4044C9D
:1008E00013460A46014620685DF8044BFFF794BEA4
:1008F000000000202DE9F0470C4691460A698968FE
:10090000DDF820808A42B8BF0A46C9F8002094F872
:10091000431006461F4611B10132C9F80020236872
:1009200099065CD5D9F800200232C9F80020236866
:1009300013F0060F19461DD1E1688A1A002AD8BFA4
:10094000194617DD04F1190A002505E0E368D9F816
:1009500000209B1AAB420CDD01235246394630463B
:10096000C047013005F10105F0D14FF0FF30BDE87F
:10097000F087216894F84330003318BF01238A06BA
:100980000AD5E1185A1C302081F84300224494F81B
:10099000451082F84310023304F1430239463046D1
:1009A000C0470130E1D02368A268216903F0060343
:1009B000042B1DD08A4226DD4FF00009521A9144C3
:1009C0001A34002501E04D451DDA0123224639463F
:1009D0003046C047013005F10105F4D1C5E713F0F9
:1009E000060F13D094F84330003318BF0123D3E728
:1009F000D9F80000E3688A42A3EB000323EAE37915
:100A0000DCDC002BDCDC0020BDE8F087E168D9F8F5
:100A100000208A1A002AD8BF194693DCAAE700BF33
:100A20002DE9F0430C46097E85B06E29064617462F
:100A30000C98984604F1430E6DD039D9732900F013
:100A4000F68044D9752900F00481782940F011819D
:100A500078232268DFF858C284F84530016815060B
:100A600051F8043B016040F1A180D10744BF42F03E
:100A700020022260002B00F093801022002184F8D5
:100A800043106068A0600028C0F2C880216821F08F
:100A900004012160002B40F0A380002840F0C080BA
:100AA0007546082A00F0AC80AEEB0503236141E0F7
:100AB000632900F0E5801AD8002938D0582940F081
:100AC000D88084F845102268DFF8E8C1C6E76F29AE
:100AD00000F0BF80702940F0CC802268DFF8D0C1E0
:100AE00042F020027823226084F84530B6E764297A
:100AF00002D0692940F0BD8022680368110603F125
:100B0000040557D5196805600B46002959DBDFF845
:100B1000A4C10A22B5E70368226861691D1D05604A
:100B200015061B6802D4500600F1BD801960002331
:100B300075462361CDF800803B4603AA2146304626
:100B4000FFF7D8FE013020D02A46236939463046C7
:100B5000C047013019D022680398E368920719D57D
:100B60001A1A002A16DD04F11909002504E0E368C9
:100B700003981A1AAA420DDD01234A463946304627
:100B8000C047013005F10105F1D14FF0FF3005B04C
:100B9000BDE8F0839842B8BF184605B0BDE8F083C1
:100BA000226822F020022260102267E7500648BF28
:100BB0009BB25AE75106A5D5B3F900300560194636
:100BC000A3E76168A1602D200029C3F1000384F828
:100BD000430002DB22F004022260DFF8D8C00A22C0
:100BE000754600E00B46B3FBF2F102FB1130934275
:100BF0001CF8000005F8010DF4D2082A7FF454AF68
:100C00002368DB077FF550AF626823699A423FF79C
:100C10004BAF302305F8013C013D45E7002BDFD108
:100C20009CF8003084F8423004F1420539E703684B
:100C30006268191D01601D680021284600F008FE49
:100C4000002832D0401B60602061002384F84330CC
:100C500070E72268036812F0800F03F104051AD0D0
:100C60001B6805606F290CBF08220A22DFF844C008
:100C700004E7012384F84210236104F14205E4E70C
:100C800003681A68191D0123016004F1420584F804
:100C900042202361D9E712F0400F0DBF1B680560A9
:100CA0001B880560DEE7198041E76068CCE700BF7C
:100CB0006C350008583500080EB410B5044683B0F2
:100CC00008B1836963B106A803460190059AA1683B
:100CD0002046FFF7A1FC03B0BDE8104003B0704709
:100CE00000F044FBEFE700BF0FB410B50B4B1C68DE
:100CF00082B00CB1A36963B105A803460190049AC0
:100D0000A1682046FFF788FC02B0BDE8104004B09F
:100D10007047204600F02AFBEEE700BF00000020ED
:100D200083692DE9F04180460E4633B384682F4B2A
:100D30009C4230D02E4B9C4239D02E4B9C4208BF57
:100D4000D8F80C40A3891B072AD5236943B3013E79
:100D5000A36816F8015F013BA3609DB3002B07DA7F
:100D6000A7699F4222462946404623DC0A2D21D00E
:100D700023685A1C22601D70EAE700F0F7FAD8F8E1
:100D80001830D8F80840002BD1D1404600F0EEFAD8
:100D9000164B9C42CED1D8F80440A3891B07D4D46B
:100DA0002146404600F0A2F80028D0D006E0D8F84E
:100DB0000840C7E700F03AF80130C9D14FF0FF30E2
:100DC000BDE8F081002B09DA224640460A2100F0F6
:100DD0002DF80130F2D00A20BDE8F08123680A2204
:100DE000591C21601A701046BDE8F08114350008C6
:100DF000F4340008D4340008024B01461868FFF7A9
:100E00008FBF00BF0000002038B5074C0023054607
:100E10000846236001F078FC431C00D038BD2368ED
:100E2000002BFBD02B6038BDA4000020F8B50D4688
:100E30001446064608B1836943B3254B9C422AD029
:100E4000244B9C4229D0244B9C4208BFF468A389C0
:100E5000A269A2601A0722D5236903B322686169D7
:100E6000D31AEDB299422F4629DD0133A168501CF7
:100E70000139A1602060157062699A4216D0A38979
:100E8000DB0701D50A2D11D03846F8BD00F06EFA07
:100E90000F4B9C42D4D17468D9E7B468D7E7214698
:100EA000304600F023F838B92369D7E721463046A9
:100EB00000F032F90028E7D04FF0FF37E4E7214691
:100EC000304600F029F90028F6D122680123CDE749
:100ED00014350008F4340008D4340008024B0A46E4
:100EE00001461868FFF7A2BF000000203B4B70B519
:100EF0001D6806460C460DB1AB69DBB1384B9C4210
:100F00001ED0384B9C424AD0374B9C4208BFEC68FD
:100F1000B4F90C2093B2190718D5206908B313F05F
:100F200001022CD0636900225B42A361A26060B31E
:100F3000002070BD284600F019FA294B9C42E0D1F0
:100F40006C68B4F90C2093B21907E6D4DD063CD5E1
:100F5000580726D4206942F00803A3819BB20028D9
:100F6000DDD103F42072B2F5007FD8D0304621469F
:100F700000F01EFCA389206913F00102D2D1990769
:100F800058BF6269A2600028D2D1B4F90C301A06A9
:100F9000CFD543F04003A3814FF0FF3070BDAC6864
:100FA000B6E7616B51B104F14403994204D0304675
:100FB000FFF734FAB4F90C2000236363002320699F
:100FC000636022F024022060C5E742F0400209235A
:100FD00033604FF0FF30A28170BD00BF00000020E1
:100FE00014350008F4340008D43400088B891A073B
:100FF0002DE9F0410C46804641D44A68002A59DD6B
:10100000E66A002E53D00022D8F80050216AC8F8B2
:10101000002013F4805251D101234046B047431CB5
:101020005FD0A389E66A216A5F0705D56268636BB2
:10103000801A0BB1236CC01A024600234046B04709
:10104000461C45D1D8F80030B4F90C20002B55D0FF
:101050001D2B01D0162B5AD123690022C4E900327E
:10106000616BC8F8005011B304F14403994202D0F7
:101070004046FFF7D3F900206063BDE8F0810E69B8
:10108000AEB10D680E6099070CBF63690023AD1BFC
:10109000A3600AE02B463246A76A216A4046B84759
:1010A0000028A5EB000506440ADD002DF2DC002037
:1010B000BDE8F0810A6C002AA2DCF8E7606DB3E7B6
:1010C000A38943F04003A3814FF0FF30BDE8F081D6
:1010D0002269A389226000226260DA04C0D56065BB
:1010E000BEE7D8F80030002B9BD01D2B0CD0162B60
:1010F0000AD0A38943F04003A381D9E72169C4E959
:101100000013D304ACD5EAE7C8F80050CFE742F0AB
:101110004002A281CCE700BF0B6923B310B504469F
:1011200082B008B18369BBB1104B994212D0104B09
:10113000994216D00F4B994208BFE168B1F90C30C3
:101140002BB1204602B0BDE81040FFF74FBF002092
:1011500002B010BD6168F1E7019100F007F9019953
:10116000E2E7A168EAE70020704700BF14350008F5
:10117000F4340008D434000820B1054B0146186847
:10118000FFF7CABF034B0449186800F0B9BA00BFA3
:1011900000000020D034000819110008002070471A
:1011A000014900F0ADBA00BF1911000800207047D6
:1011B00070B54A1E682505FB02F50E4605F174015F
:1011C000FFF782F9044640B100210C30666005F15A
:1011D00068022160A060FFF7D1F8204670BD00BF13
:1011E0001E4B70B51D68AB69064643B34835D5E95B
:1011F0000134013B05D51EE0013B5A1C04F1680493
:1012000019D0B4F90C20002AF6D10025144B6566DC
:10121000C4E90055A560C4E90455A5612946E36009
:10122000082204F15C00FFF7A9F8C4E90D55C4E9F0
:101230001255204670BD2C682CB12546D7E72846AC
:1012400000F010F8D2E704213046FFF7B1FF044662
:1012500028600028F1D10C233360EAE7D03400087D
:101260000100FFFF2DE9F84F334B34491A688162C2
:1012700090424FF00003C0E91233036504BF01231D
:1012800083610546FFF7ACFF68602846FFF7A8FFBB
:10129000A8602846FFF7A4FF6E68E86000240423D6
:1012A000F3607466C6E90044B460C6E90444B461FE
:1012B000214606F15C000822FFF760F8DFF888B0ED
:1012C000AF68DFF888A0DFF88890DFF888801C4BD3
:1012D000C6F83080C6E9086BC6E90AA92146FB605A
:1012E00008227C66C7E90044BC60C7E90444BC61CD
:1012F00007F15C00FFF742F8EE68124BC7F8308048
:10130000C7E9087BC7E90AA92146F3607466C6E904
:101310000044B460C6E90444B46106F15C000822EC
:10132000FFF72CF80123C6E9086BC6E90AA9C6F83D
:101330003080AB61BDE8F88FD0340008A1110008FF
:101340000900010012000200791A0008A11A000821
:10135000E11A0008011B0008024B0349186800F05D
:10136000CFB900BFD034000819110008836903B950
:1013700078E77047704700BF704700BF704700BFF5
:10138000704700BF024B0349186800F093B900BFD3
:10139000000000209D110008024B0349186800F06E
:1013A00089B900BF00000020AD1100089368002B30
:1013B00000F002812DE9F04FB1F90C309BB20C46E0
:1013C000190783B08246904635D522699AB313F047
:1013D0000202D8F800603DD00027D4F828B0D4F835
:1013E00020C0DFF8CC923D464D452B463A4628BFFB
:1013F0004B4661465046D5B1D847002840F3D280CD
:10140000D8F808301B1A07442D1AC8F80830002BEA
:1014100000F0B780D4F820C0D4F828B04D452B4652
:101420003A4628BF4B4661465046002DE4D1D6E9E6
:1014300000750836D8E721465046FFF757FD0028CB
:1014400040F03081B4F90C30D8F800609BB213F052
:101450000202C1D113F0010940F0B080A7682068F2
:101460004D46002D54D09A0540F1BC80AF42BB469A
:1014700000F2E78013F4906F2FD0D4E9041707EB44
:101480004707A0EB010B07EBD777681C7F10584488
:10149000B8423A4684BF07463A465B0540F1E980C8
:1014A00011465046FFF710F8002800F0F5805A4624
:1014B0002169019000F01CFAA289019B22F490623C
:1014C00042F08002A281A7EB0B0203EB0B006761E5
:1014D00023612060A2602F46AB465A464946FEF77C
:1014E000E5FEA2682368D21B5B442F46A2602360FE
:1014F0000025D8F80830DB1BB944C8F80830002BA9
:101500003FD0B4F90C30A76820689BB2002DAAD157
:10151000D6E900950836A4E70BF1080353E9026702
:101520009B460833002FF9D03A460A21304600F096
:101530008FF9002853D00130A0EB06094B46D4E9BF
:1015400004122068BB4228BF3B46884203D9A568E5
:101550001544AB4219DC9A427DDC1346A56A216A28
:1015600032465046A847051E1CDDB9EB05096BD075
:101570000120D8F808305B1B2E447F1BC8F80830C8
:1015800013BB002003B0BDE8F08F31462A46FEF7BA
:101590008DFE23682B44236021465046FFF7BCFD97
:1015A0000028E2D0B4F90C3043F040034FF0FF3094
:1015B000A38103B0BDE8F08F002070473346914609
:1015C000104617464E469B46002FA5D00028B5D1A1
:1015D0003A460A21304600F03BF90028ABD17B1C8B
:1015E0009946ACE72369834215D36169A94212D8B1
:1015F0002E4BA76A9D4294BF2B466FF000434A468C
:1016000093FBF1F3504601FB03F3216AB847071E31
:10161000C8DDED1B6DE7AF4228BF2F463A4649466D
:10162000FEF744FEA3682268DB1B3A44A3602260F5
:10163000002BEED121465046FFF76EFD0028E8D082
:10164000B0E72F46AB4648E721465046FFF764FD1A
:1016500000288ED0A6E71A4631460193FEF726FEF3
:10166000019BA1682268C91A1A44A16022601D4624
:101670007BE7504600F0DAF9034600287FF423AFF9
:1016800021695046FEF7CAFEB4F90C300C2223F053
:101690008003CAF8002087E70C23CAF80030B4F9A9
:1016A0000C3081E74FF0FF306CE700BFFEFFFF7F9B
:1016B00000FCFF7F2DE9F04110F148071BD0884660
:1016C0000026D7E90154013D0FD4A389012B05F170
:1016D000FF3506D9B4F90E300133204601D0C0479A
:1016E00006436B1C04F16804EFD13F68002FE8D17A
:1016F0003046BDE8F0813E463046BDE8F08100BF8F
:101700002DE9F84310F148071FD0884606464FF0F0
:101710000009D7E90154013D11D4A389012B05F13A
:10172000FF3508D9B4F90E3001332146304602D0D6
:10173000C04749EA00096B1C04F16804EDD13F6819
:10174000002FE6D14846BDE8F883B9464846BDE8D3
:10175000F88300BF70B50C46B1F90E10002996B0A1
:1017600016461D4613DB6A4600F0F6F900280EDB2C
:10177000019A02F47042A2F50052B2FA82F25209C2
:101780004FF4806300202A60336016B070BDA389D7
:1017900000221B062A6004D540230020336016B0C7
:1017A00070BD4FF480630020336016B070BD00BF81
:1017B0008A8992070B4606D501F1470201211A607A
:1017C000C3E90421704770B582B001AB6A460C468C
:1017D0000646FFF7BFFF009905463046FEF774FE48
:1017E000B4F90C3070B11649B162019A00992060C9
:1017F00043F08003A381C4E904018AB92B43A38188
:1018000002B070BD9A05FBD423F0030304F1470234
:1018100043F002030121A3812260C4E90421EFE720
:101820003046B4F90E1000F0ABF910B9B4F90C3031
:10183000E4E7A38923F0030343F001031BB2DDE7D0
:10184000A1110008000000000000000000000000DE
:1018500001F0FF01102A2BDB10F0070F08D010F861
:10186000013B013A8B422DD010F0070F42B3F6D165
:10187000F0B441EA012141EA014122F007047FF07E
:1018800000070023F0E80256083C85EA010586EAD5
:10189000010685FA47F5A3FA87F586FA47F6A5FA11
:1018A00087F68EB9EED1F0BC01F0FF0102F007021D
:1018B00032B110F8013B013A83EA010313B1F8D1C8
:1018C0000020704701387047002D06BF35460338A9
:1018D000073815F0010F07D1013015F4807F02BFE2
:1018E000013015F4C03F0130F0BC0138704700BF33
:1018F000844641EA000313F003036DD1403A41D31B
:1019000051F8043B40F8043B51F8043B40F8043BD9
:1019100051F8043B40F8043B51F8043B40F8043BC9
:1019200051F8043B40F8043B51F8043B40F8043BB9
:1019300051F8043B40F8043B51F8043B40F8043BA9
:1019400051F8043B40F8043B51F8043B40F8043B99
:1019500051F8043B40F8043B51F8043B40F8043B89
:1019600051F8043B40F8043B51F8043B40F8043B79
:1019700051F8043B40F8043B51F8043B40F8043B69
:10198000403ABDD2303211D351F8043B40F8043B09
:1019900051F8043B40F8043B51F8043B40F8043B49
:1019A00051F8043B40F8043B103AEDD20C3205D319
:1019B00051F8043B40F8043B043AF9D2043208D011
:1019C000D2071CBF11F8013B00F8013B01D30B8883
:1019D00003806046704700BF082A13D38B078DD061
:1019E00010F003038AD0C3F10403D21ADB071CBF33
:1019F00011F8013B00F8013B80D331F8023B20F89D
:101A0000023B7BE7043AD9D3013A11F8013B00F8D5
:101A1000013BF9D20B7803704B7843708B7883705D
:101A200060467047704700BF704700BF09B3F8B504
:101A30001446CAB106460D4600F0CAF8A04202D3C9
:101A40002F463846F8BD21463046FEF73DFD074695
:101A50000028F6D022462946FFF74AFF304629469D
:101A6000FEF7DCFC3846F8BD2746FEF7D7FC3846C3
:101A7000F8BD1146FEF728BD10B50C46B1F90E10A1
:101A800000F0AEF8002803DB636D0344636510BD0E
:101A9000A38923F48053A38110BD00BF00207047A9
:101AA0002DE9F0411646B1F90C201F46D3050C462E
:101AB0000546B1F90E1009D422F48052A2813B46AA
:101AC00032462846BDE8F04100F01EB8002202234D
:101AD00000F068F8B4F90C20B4F90E10ECE700BF80
:101AE00010B50C46B1F90E1000F05CF8A389421C49
:101AF0000EBF23F4805343F480536065A38110BD6F
:101B0000B1F90E1000F016B870B50D46084C11462C
:101B100006461A4628460023236000F0A4FD431C15
:101B200000D070BD2368002BFBD0336070BD00BFB8
:101B3000A400002038B5074C002305460846236062
:101B400000F0ADFD431C00D038BD2368002BFBD056
:101B50002B6038BDA400002038B50B46074C054665
:101B6000114618460023236000F0A5FD431C00D059
:101B700038BD2368002BFBD02B6038BDA4000020AB
:101B800038B5074C002305460846236000F0A3FD46
:101B9000431C00D038BD2368002BFBD02B6038BD20
:101BA000A400002070B50D46084C114606461A46A2
:101BB00028460023236000F099FD431C00D070BD2F
:101BC0002368002BFBD0336070BD00BFA400002051
:101BD00051F8043C181F002BBCBF0B58C0187047AD
:101BE00070B50D46084C114606461A462846002395
:101BF000236000F01BFD431C00D070BD2368002B48
:101C0000FBD0336070BD00BFA400002053B94AB9B7
:101C1000002908BF00281CBF4FF0FF314FF0FF30F4
:101C200000F06EB9ADF1080C6DE904CE00F006F8D5
:101C3000DDF804E0DDE9022304B070472DE9F04748
:101C4000089D04468C46002B40F083808A4217464C
:101C500047D9B2FA82F242B1C2F1200024FA00F070
:101C60009140974040EA010C94404FEA1748230CFA
:101C7000BCFBF8F61FFA87FE08FB16C143EA0143D6
:101C800006FB0EF1994209D9FB1806F1FF3080F0EE
:101C90001981994240F21681023E3B445B1AA4B27C
:101CA000B3FBF8F008FB103344EA034400FB0EFEDC
:101CB000A64509D93C1900F1FF3380F00581A645FE
:101CC00040F2028102383C4440EA0640A4EB0E0494
:101CD00000261DB1D4400023C5E900433146BDE8CC
:101CE000F08702B9FFDEB2FA82F2002A50D1CB1B94
:101CF0004FEA174E1FFA87F80126B3FBFEFC210CB2
:101D00000EFB1C3341EA034108FB0CF38B4207D95D
:101D100079180CF1FF3002D28B4200F2E980844640
:101D2000C91AA3B2B1FBFEF00EFB101143EA014445
:101D300008FB00F8A04507D93C1900F1FF3302D297
:101D4000A04500F2D9801846A4EB080440EA0C40F4
:101D5000BFE78B4209D9002D00F0B1800026C5E90C
:101D6000000130463146BDE8F087B3FA83F6002E15
:101D70004AD18B4202D3824200F2B880841A61EBCE
:101D8000030101208C46002DA8D0C5E9004CA5E731
:101D9000C2F1200320FA03F6974001FA02F04FEA5D
:101DA000174ED9403043030CB1FBFEF61FFA87F8FB
:101DB0000EFB161143EA014306FB08F1994204FAAF
:101DC00002F409D9FB1806F1FF3C80F08D8099429E
:101DD00040F28A80023E3B445B1A81B2B3FBFEF0C4
:101DE0000EFB103341EA034100FB08F38B4207D995
:101DF000791800F1FF3C73D28B4271D90238394413
:101E0000CB1A40EA064678E7C6F1200C03FA06F43E
:101E100022FA0CF31C4320FA0CF701FA06F34FEAFE
:101E2000144E21FA0CF11F433B0CB1FBFEF91FFAD3
:101E300084F80EFB191143EA014109FB08FA8A45AF
:101E400002FA06F200FA06F308D9611809F1FF3028
:101E500048D28A4546D9A9F102092144A1EB0A01D9
:101E6000BFB2B1FBFEF00EFB101147EA014700FBC9
:101E700008F8B84507D9E71900F1FF312ED2B84567
:101E80002CD90238274440EA0940A7EB0807A0FBF9
:101E900002894F45C64649461AD317D05DB1B3EB08
:101EA0000E0267EB010707FA0CFCF2404CEA020253
:101EB000F740C5E9002700263146BDE8F0872E46E9
:101EC00028460BE70646E9E61846FDE64345E5D217
:101ED000B8EB020E69EB04010138DFE70846D2E7F0
:101EE00060468DE78146B9E7664675E730464AE7C2
:101EF000ACF1020C394413E702383C4424E700BF3C
:101F0000704700BFDFF834D00D480E490E4A002359
:101F100002E0D458C4500433C4188C42F9D30B4A9D
:101F20000B4C002301E013600432A242FBD300F00B
:101F300021FCFEF787F901F0CBF970470000032080
:101F40000000002070000020903500087000002084
:101F5000A8000020FEE780B584B000AF7860786804
:101F6000FEF794F90346FB60FB6803F5C872FB6853
:101F70001A60FB687A689A60FB681422DA60FB6872
:101F800008221A61FB6818461037BD4680BD80B430
:101F90008DB000AFF860B9607A600023FB62FB6827
:101FA0001B697A68934238BF1346BB62FB68DB68E3
:101FB0007B62FB687A6A13443B623B6A5A42BB6AA3
:101FC0005B4213405B42FB61FA693B6AD31ABB6117
:101FD0007A6ABB691A44BB681A44FB689B689A42D8
:101FE00010D8FB687B617A6ABB6913447A69134431
:101FF000FB627A6ABB691344BA6813443B61FB68AD
:102000003A69DA60FB6A18463437BD465DF8047BEE
:10201000704780B582B000AF786039607B681B691B
:102020001A4639687868FFF7B2FF03461846083742
:10203000BD4680BD80B584B000AF78603960396836
:102040007868FFF7E6FFF8603A680021F868FEF765
:1020500095F9FB6818461037BD4680BD80B584B041
:1020600000AF78600023FB600AE07868FFF773FF39
:1020700002460749FB6841F82320FB680133FB60F7
:10208000FB68012BF1D900BF00BF1037BD4680BDF2
:102090009400002080B48BB000AFF860B9607A6023
:1020A00007F1140300221A605A6000237B6228E0C3
:1020B00000233B62BB68FB610DE0FB691A681949AC
:1020C0007B6A51F823309A4202D101233B6209E036
:1020D000FB690433FB617B689B00BA681344FA69AF
:1020E0009A42EAD33B6A002B08D10E4A7B6A52F827
:1020F00023307B617B69DB68BB6105E07B6A013370
:102100007B627B6A012BD3D9FB681A4607F1140363
:1021100093E8030082E80300F8682C37BD465DF8B9
:10212000047B70479400002080B487B000AFF86053
:10213000B9607A6007F1100300221A605A60BB6828
:102140003B617B687B61FB681A4607F1100393E8EB
:10215000030082E80300F8681C37BD465DF8047B85
:102160007047000090B488B000AF07F1080484E81D
:102170000300394681E80C000023FB61FA687B68A4
:102180009A4204D0BB6A03F01003002B56D00123FF
:10219000FB610023BB6149E0BA68BB6913441A784C
:1021A0003968BB690B441B789A420CBF012300239A
:1021B000DBB27B61BB6A03F02003002B2DD0BA6831
:1021C000BB6913441B78FB74FB7C01331E4A134428
:1021D0001B7803F00303012B03D1FB7C03F12002E6
:1021E00000E0FA7C3968BB690B441B78BB74BB7C8C
:1021F000013315490B441B7803F00303012B02D173
:10220000BB7C203300E0BB7C9A420CBF012300233F
:10221000DBB21A467B6913437B617B69002B02D1D9
:102220000023FB610AE0BB690133BB61FB68BA694B
:102230009A4203D27B68BA699A42ADD3FB691846C9
:102240002037BD4690BC7047CC33000880B586B0BF
:1022500000AFF860B960394681E80C000C21F868DD
:10226000FFF7E8FE78617B6904333A4692E80300A1
:1022700083E80300BB681B68002B0AD1BB687A693E
:102280005A60BB685A68BB681A607B6900221A6092
:1022900009E0BB685B687A691A60BB687A695A6052
:1022A0007B6900221A60BB689B685A1CBB689A60F5
:1022B000BB68DA687B681A44BB68DA6000BF18370D
:1022C000BD4680BD90B593B000AFF860B9603946A7
:1022D00081E80C0007F1200300221A605A609A601E
:1022E000DA6000237B6400233B648AE00023FB6305
:1022F0000023BB6361E000237B63BB6BDB00BA6D33
:1023000013445A683B6C1A447B689A4228D80123CC
:102310007B6300233B6315E0BB6BDB00BA6D1344AA
:102320001A683B6B13441A783968386C3B6B03446A
:102330000B441B789A4202D000237B6310E03B6B76
:1023400001333B63BB6BDB00BA6D13445B683A6BD4
:102350009A4205D23A6C3B6B1A447B689A42DBD3B3
:102360007B6B002B26D03A687B6CD1183A6C7B6C67
:10237000D21A07F118031846FFF7D6FE07F120011D
:1023800007F118030CCBB868FFF760FFBB6BDB00ED
:10239000BA6D13445B683A6C13447B64BB6BDB001F
:1023A000BA6D13445A683B6C1344013B3B640123F0
:1023B000FB6306E0BB6B0133BB63BA6BFB6D9A42F8
:1023C00099DBFB6B002B19D17B68013B3A6C9A427D
:1023D00014D13A687B6CD1183A6C7B6CD31A5A1CB6
:1023E00007F110031846FFF79FFE07F1200107F1E0
:1023F00010030CCBB868FFF729FF07E03B6C0133F3
:102400003B647B683A6C9A42FFF470AFFB681C46F1
:1024100007F120030FCB84E80F00F8684C37BD4666
:1024200090BD000080B485B000AF78607B6803F099
:102430000703FB600C4BDB68BB60BA684FF6FF0319
:102440001340BB60FB681A02BB68134343F0BF63D1
:1024500043F40033BB60044ABB68D36000BF143749
:10246000BD465DF8047B704700ED00E080B400AF2E
:10247000044BDB681B0A03F007031846BD465DF8F2
:10248000047B704700ED00E080B483B000AF0346EA
:102490003960FB7197F90730002B0ADB3B68DAB231
:1024A0000C4997F907301201D2B20B4483F800238C
:1024B0000AE03B68DAB20849FB7903F00F03043BFA
:1024C0001201D2B20B441A7600BF0C37BD465DF83C
:1024D000047B704700E100E000ED00E080B489B0CB
:1024E00000AFF860B9607A60FB6803F00703FB6136
:1024F000FB69C3F10703042B28BF0423BB61FB69FD
:102500000433062B02D9FB69033B00E000237B6107
:102510004FF0FF32BB6902FA03F3DA43BB681A409B
:102520007B699A404FF0FF317B6901FA03F3D9438D
:102530007B680B40134318462437BD465DF8047B87
:102540007047000080B582B000AF78607B68013BC7
:10255000B3F1807F01D301230FE00A4A7B68013B7E
:1025600053600F214FF0FF30FFF78EFF054B002225
:102570009A60044B07221A60002318460837BD46AC
:1025800080BD00BF10E000E080B483B000AF002346
:102590007B60104B5B6C0F4A43F4804353640D4BDC
:1025A0005B6C03F480437B607B6800233B60094BDA
:1025B0001B6C084A43F080531364064B1B6C03F0FA
:1025C00080533B603B6800BF0C37BD465DF8047B21
:1025D000704700BF0038024080B400AFFEE780B40F
:1025E00000AFFEE780B400AFFEE780B400AFFEE7C7
:1025F00080B400AFFEE780B400AF00BFBD465DF819
:10260000047B704780B400AF00BFBD465DF8047B1B
:10261000704780B400AF00BFBD465DF8047B7047D3
:1026200080B500AF00F00AF900BF80BD80B586B06C
:1026300000AFF860B9607A6000237B610AE0AFF315
:1026400000800146BB685A1CBA60CAB21A707B6926
:1026500001337B617A697B689A42F0DB7B681846BC
:102660001837BD4680BD80B586B000AFF860B96050
:102670007A6000237B6109E0BB685A1CBA601B7852
:102680001846AFF300807B6901337B617A697B6810
:102690009A42F1DB7B6818461837BD4680BD80B48E
:1026A00083B000AF78604FF0FF3318460C37BD465B
:1026B0005DF8047B704780B483B000AF7860396008
:1026C0003B684FF400525A60002318460C37BD4651
:1026D0005DF8047B704780B483B000AF786001235D
:1026E00018460C37BD465DF8047B704780B485B052
:1026F00000AFF860B9607A60002318461437BD4611
:102700005DF8047B7047000080B586B000AF78604C
:10271000144A154BD31A7B617B693B61134B1B68D1
:10272000002B02D1114B124A1A60104B1A687B68B9
:1027300013443A699A4207D2FDF77EFD03460C2204
:102740001A604FF0FF3309E0084B1B68FB60074B32
:102750001A687B681344054A1360FB6818461837EB
:10276000BD4680BD00000320000400009C00002046
:10277000A800002080B400AF064BD3F88830054A8B
:1027800043F47003C2F8883000BFBD465DF8047B97
:10279000704700BF00ED00E080B500AF0E4B1B6836
:1027A0000D4A43F4007313600B4B1B680A4A43F451
:1027B00080631360084B1B68074A43F480731360FF
:1027C000032000F05BF8002000F008F8FFF7DCFEC3
:1027D0000023184680BD00BF003C024080B582B097
:1027E00000AF7860124B1A68124B1B7819464FF4F1
:1027F0007A73B3FBF1F3B2FBF3F3184600F065F81C
:102800000346002B01D001230EE07B680F2B0AD872
:10281000002279684FF0FF3000F03BF8064A7B68F1
:102820001360002300E0012318460837BD4680BD31
:10283000640000206C0000206800002080B400AF1D
:10284000064B1B781A46064B1B681344044A136058
:1028500000BFBD465DF8047B704700BF6C000020E0
:10286000A000002080B400AF034B1B681846BD4693
:102870005DF8047B704700BFA000002080B582B0E7
:1028800000AF78607868FFF7CDFD00BF0837BD4620
:1028900080BD80B586B000AF0346B9607A60FB7337
:1028A00000237B61FFF7E2FD78617A68B968786997
:1028B000FFF714FE024697F90F3011461846FFF74E
:1028C000E3FD00BF1837BD4680BD80B582B000AFC4
:1028D00078607868FFF736FE034618460837BD462D
:1028E00080BD000080B586B000AF78607B68002BAB
:1028F00001D1012364E27B681B6803F00103002B14
:1029000075D0A34B9B6803F00C03042B0CD0A04B99
:102910009B6803F00C03082B12D19D4B5B6803F4FA
:102920008003B3F5800F0BD1994B1B6803F4003380
:10293000002B5BD07B685B68002B57D101233FE203
:102940007B685B68B3F5803F06D1914B1B68904A6A
:1029500043F4803313601DE07B685B68B3F5A02F00
:102960000CD18B4B1B688A4A43F480231360884B3D
:102970001B68874A43F4803313600BE0844B1B6869
:10298000834A23F480331360814B1B68804A23F40D
:10299000802313607B685B68002B13D0FFF762FF16
:1029A000386108E0FFF75EFF02463B69D31A642BEB
:1029B00001D9032304E2764B1B6803F40033002B98
:1029C000F0D014E0FFF74EFF386108E0FFF74AFF50
:1029D00002463B69D31A642B01D90323F0E16C4B07
:1029E0001B6803F40033002BF0D100E000BF7B68CC
:1029F0001B6803F00203002B63D0654B9B6803F058
:102A00000C03002B0BD0624B9B6803F00C03082BCC
:102A10001CD15F4B5B6803F48003002B16D15C4B29
:102A20001B6803F00203002B05D07B68DB68012BD9
:102A300001D00123C4E1564B1B6823F0F8027B68E8
:102A40001B69DB00524913430B603AE07B68DB688B
:102A5000002B20D04F4B01221A60FFF703FF386193
:102A600008E0FFF7FFFE02463B69D31A022B01D9AB
:102A70000323A5E1464B1B6803F00203002BF0D0B3
:102A8000434B1B6823F0F8027B681B69DB0040495D
:102A900013430B6015E03F4B00221A60FFF7E2FE84
:102AA000386108E0FFF7DEFE02463B69D31A022BCD
:102AB00001D9032384E1364B1B6803F00203002B8A
:102AC000F0D17B681B6803F00803002B30D07B68D3
:102AD0005B69002B16D0304B01221A60FFF7C2FE53
:102AE000386108E0FFF7BEFE02463B69D31A022BAD
:102AF00001D9032364E1264B5B6F03F00203002B33
:102B0000F0D015E0244B00221A60FFF7ABFE3861CD
:102B100008E0FFF7A7FE02463B69D31A022B01D952
:102B200003234DE11A4B5B6F03F00203002BF0D13E
:102B30007B681B6803F00403002B00F0A0800023D7
:102B4000FB75134B1B6C03F08053002B0FD100233C
:102B5000BB600F4B1B6C0E4A43F0805313640C4B4D
:102B60001B6C03F08053BB60BB680123FB750B4BF0
:102B70001B6803F48073002B21D1084B1B68074AA4
:102B800043F480731360FFF76DFE386111E000BFFE
:102B90000038024000004742800E4742007000406B
:102BA000FFF760FE02463B69D31A022B01D90323CB
:102BB00006E1854B1B6803F48073002BF0D07B6823
:102BC0009B68012B06D1814B1B6F804A43F00103A8
:102BD00013671CE07B689B68052B0CD17B4B1B6F3C
:102BE0007A4A43F004031367784B1B6F774A43F02C
:102BF000010313670BE0754B1B6F744A23F001034D
:102C00001367724B1B6F714A23F0040313677B68D1
:102C10009B68002B15D0FFF725FE38610AE0FFF70F
:102C200021FE02463B69D31A41F28832934201D910
:102C30000323C5E0654B1B6F03F00203002BEED0AE
:102C400014E0FFF70FFE38610AE0FFF70BFE0246C3
:102C50003B69D31A41F28832934201D90323AFE092
:102C60005A4B1B6F03F00203002BEED1FB7D012BAF
:102C700005D1564B1B6C554A23F0805313647B6877
:102C80009B69002B00F09B80504B9B6803F00C036A
:102C9000082B5CD07B689B69022B41D14C4B0022F6
:102CA0001A60FFF7DFFD386108E0FFF7DBFD024641
:102CB0003B69D31A022B01D9032381E0434B1B68E4
:102CC00003F00073002BF0D17B68DA697B681B6A24
:102CD0001A437B685B6A9B011A437B689B6A5B08AB
:102CE000013B1B041A437B68DB6A1B06374913430D
:102CF0004B60374B01221A60FFF7B4FD386108E0E2
:102D0000FFF7B0FD02463B69D31A022B01D903231A
:102D100056E02E4B1B6803F00073002BF0D04EE002
:102D20002B4B00221A60FFF79DFD386108E0FFF78A
:102D300099FD02463B69D31A022B01D903233FE0D8
:102D4000224B1B6803F00073002BF0D137E07B6847
:102D50009B69012B01D1012332E01C4B5B68FB60B6
:102D60007B689B69012B28D0FB6803F480027B6899
:102D7000DB699A4221D1FB6803F03F027B681B6A42
:102D80009A421AD1FA6847F6C07313407A68526AB9
:102D90009201934211D1FB6803F440327B689B6A35
:102DA0005B08013B1B049A4207D1FB6803F0706289
:102DB0007B68DB6A1B069A4201D0012300E00023F6
:102DC00018461837BD4680BD0070004000380240EC
:102DD0006000474280B584B000AF786039607B689E
:102DE000002B01D10123CCE0684B1B6803F00F03DB
:102DF0003A689A420CD9654B3A68D2B21A70634B62
:102E00001B6803F00F033A689A4201D00123B8E02F
:102E10007B681B6803F00203002B20D07B681B68D3
:102E200003F00403002B05D0594B9B68584A43F428
:102E3000E05393607B681B6803F00803002B05D008
:102E4000534B9B68524A43F460439360504B9B68DA
:102E500023F0F0027B689B684D4913438B607B68CD
:102E60001B6803F00103002B44D07B685B68012BD7
:102E700007D1474B1B6803F40033002B19D1012302
:102E80007FE07B685B68022B03D07B685B68032B69
:102E900007D13F4B1B6803F00073002B09D10123BE
:102EA0006FE03B4B1B6803F00203002B01D10123B1
:102EB00067E0374B9B6823F003027B685B6834490B
:102EC00013438B60FFF7CEFCF8600AE0FFF7CAFC03
:102ED0000246FB68D31A41F28832934201D9032398
:102EE0004FE02B4B9B6803F00C027B685B689B00F8
:102EF0009A42EBD1254B1B6803F00F033A689A42C4
:102F00000CD2224B3A68D2B21A70204B1B6803F0E5
:102F10000F033A689A4201D0012332E07B681B68B4
:102F200003F00403002B08D0194B9B6823F4E052F4
:102F30007B68DB68164913438B607B681B6803F072
:102F40000803002B09D0124B9B6823F460427B6876
:102F50001B69DB000E4913438B6000F021F8024629
:102F60000B4B9B681B0903F00F030A49CB5C22FA49
:102F700003F3094A1360094B1B681846FFF72EFC40
:102F8000002318461037BD4680BD00BF003C0240FC
:102F9000003802403435000864000020680000203A
:102FA0002DE9B04384B000AF00237B600023FB60B9
:102FB00000233B600023BB60674B9B6803F00C035E
:102FC000082B0DD0082B00F2BD80002B02D0042B63
:102FD00003D0B7E0614BBB60B7E0614BBB60B4E0CE
:102FE0005D4B5B6803F03F037B605B4B5B6803F406
:102FF0008003002B4DD0584B5B689B091A464FF05D
:10300000000340F2FF104FF0000102EA000803EA5B
:103010000109404649464FF000024FF000034B01C2
:1030200043EAD063420110461946B0EB080061EB59
:1030300009014FF000024FF000038B0143EA906357
:103040008201121A63EB01034FF000004FF0000100
:10305000D90041EA5271D00002460B4612EB080239
:1030600043EB09034FF000004FF00001590241EA21
:10307000D251500202460B46104619467B681A464A
:103080004FF00003FEF7C2FD02460B461346FB60FD
:103090004AE0314B5B689B091A464FF0000340F24F
:1030A000FF104FF0000102EA000403EA0105204688
:1030B00029464FF000024FF000034B0143EAD06372
:1030C000420110461946001B61EB05014FF000025A
:1030D0004FF000038B0143EA90638201121A63EB05
:1030E00001034FF000004FF00001D90041EA527196
:1030F000D00002460B46121945EB03034FF00000C7
:103100004FF00001990241EA9251900202460B46AB
:10311000104619467B681A464FF00003FEF776FD0D
:1031200002460B461346FB600B4B5B681B0C03F01F
:10313000030301335B003B60FA683B68B2FBF3F3C7
:10314000BB6002E0054BBB6000BFBB681846103790
:10315000BD46BDE8B08300BF003802400024F40043
:1031600000127A0080B400AF72B600BFFEE7000024
:1031700080B594B000AF07F120033022002118463B
:10318000FDF7FCF807F10C0300221A605A609A6000
:10319000DA601A610023BB60234B1B6C224A43F0A8
:1031A00080531364204B1B6C03F08053BB60BB68DF
:1031B00000237B601D4B1B6823F440431B4A43F4F0
:1031C00080431360194B1B6803F440437B607B68AA
:1031D00002233B620123FB6210233B630023BB639A
:1031E00007F120031846FFF77DFB0346002B01D0B3
:1031F000FFF7B8FF0F23FB6000233B6100237B61D7
:103200004FF48053BB610023FB6107F10C030021E5
:103210001846FFF7DFFD0346002B01D0FFF7A2FFA2
:1032200000BF5037BD4680BD0038024000700040EE
:1032300080B590B002AFF8603B1D83E8060007F14F
:10324000240301221E491846FEF76EFF07F1140001
:103250000123019307F1240300933B1D0CCBF96874
:10326000FFF730F87B697B6322E07B6B9B68194634
:103270007B6B5B681A461348FDF736FD07F12C039C
:10328000042211491846FEF74FFF796B2023009363
:1032900007F12C030CCB043103C9FEF763FF03468F
:1032A000002B02D00948FDF7A7FD7B6B1B687B63F1
:1032B0007B6B002BD9D100BF00BF3837BD4680BD26
:1032C0009433000898330008A0330008A83300089E
:1032D00090B587B000AFFFF75FFAFFF749FF4FF4F3
:1032E0000040FEF738FE78614FF40040FEF7B6FE6E
:1032F0003B1D002200211846FEF7CCFE7C6807F13A
:103300000C03182205491846FEF70EFF07F10C03BF
:1033100093E806002046FFF78BFFFEE7B033000876
:10332000F8B500BFF8BC08BC9E467047F8B500BFB2
:08333000F8BC08BC9E46704782
:10333800464154414C204552524F5220545249471D
:10334800474552454421202825733A25733A256478
:10335800290A222573220A00464154414C2045522D
:10336800524F52204552524E4F20545249474745DA
:1033780052454421202825733A25733A2564290AA1
:1033880025730A222573220A00000000200000008D
:10339800252E2A730A0000007279616E0000000071
:1033A8005259414E21210000686920746865726590
:1033B800206D79206E616D65206973207279616E68
:1033C8000000000000202020202020202020282885
:1033D80028282820202020202020202020202020CD
:1033E800202020202088101010101010101010100D
:1033F800101010101004040404040404040404103D
:1034080010101010101041414141414101010101CA
:103418000101010101010101010101010101010194
:1034280010101010101042424242424202020202A0
:103438000202020202020202020202020202020264
:103448001010101020000000000000000000000014
:103458000000000000000000000000000000000064
:103468000000000000000000000000000000000054
:103478000000000000000000000000000000000044
:103488000000000000000000000000000000000034
:103498000000000000000000000000000000000024
:1034A8000000000000000000000000000000000014
:1034B8000000000000000000000000000000000004
:1034C80000000000000000000400002000000000D0
:1034D80000000000000000000000000000000000E4
:1034E80000000000000000000000000000000000D4
:1034F80000000000000000000000000000000000C4
:1035080000000000000000000000000000000000B3
:1035180000000000000000000000000000000000A3
:103528000000000000000000000000000000000093
:10353800000000000102030406070809232D302BB0
:1035480020000000686C4C0065666745464700002F
:1035580030313233343536373839414243444546C1
:103568000000000030313233343536373839616283
:083578006364656600000000B9
:08358000BCE6FF7F0100000022
:04358800190200081C
:04358C00F101000841
:10359000040000200000000014350008F434000886
:1035A000D43400080000000000000000000000000B
:1035B000000000000000000000000000000000000B
:1035C00000000000000000000000000000000000FB
:1035D00000000000000000000000000000000000EB
:1035E00000000000000000000000000000000000DB
:1035F000000000000024F4001000000001000000A2
:0400000508001F05CB
:00000001FF
