:020000040800F2
:10000000000003205D130008491D0008651D00085D
:10001000811D00089D1D0008B91D0008000000009A
:10002000000000000000000000000000D51D0008D6
:10003000E31D000800000000F11D0008FF1D00087E
:10004000AD130008AD130008AD130008AD13000890
:10005000AD130008AD130008AD130008AD13000880
:10006000AD130008AD130008AD130008AD13000870
:10007000AD130008AD130008AD130008AD13000860
:10008000AD130008AD130008AD130008AD13000850
:10009000AD130008AD130008AD130008AD13000840
:1000A000AD130008AD130008AD130008AD13000830
:1000B000AD130008AD130008AD130008AD13000820
:1000C000AD130008AD130008AD130008AD13000810
:1000D000AD130008AD130008AD1300086136000829
:1000E000AD130008AD130008AD130008AD130008F0
:1000F000AD130008AD130008AD130008AD130008E0
:10010000AD130008AD130008AD130008AD130008CF
:10011000AD130008AD130008AD130008AD130008BF
:10012000AD130008AD130008AD130008AD130008AF
:10013000AD130008AD130008AD130008AD1300089F
:10014000AD130008AD130008AD130008AD1300088F
:10015000AD130008AD130008AD130008AD1300087F
:10016000AD130008AD130008AD130008AD1300086F
:10017000AD130008AD130008AD1300080000000027
:10018000AD130008AD130008AD130008AD1300084F
:10019000AD130008AD130008AD130008AD1300083F
:0C01A000AD130008AD130008AD130008FB
:1001B0000348044B834202D0034B03B118477047F6
:1001C0007C0000207C00002000000000054806495B
:1001D0000B1AD90F01EBA301491002D0034B03B155
:1001E000184770477C0000207C00002000000000C1
:1001F00010B5064C237843B9FFF7DAFF044B13B16F
:100200000448AFF300800123237010BD7C00002060
:10021000000000001C51000808B5044B1BB1044944
:100220000448AFF30080BDE80840CFE700000000BD
:10023000800000201C510008014B1868704700BF67
:100240000000002070B50D4E0D4D761BB61006D087
:100250000024013455F8043B9847A642F9D1094ED1
:10026000094D761B04F05AFFB61006D00024013465
:1002700055F8043B9847A642F9D170BD905B000841
:10028000905B0008945B0008905B0008024B0146FD
:10029000186800F019B900BF00000020024B0146A9
:1002A000186800F0BBB800BF000000208842F0B41E
:1002B0000DD98B1883420AD9841832B1224613F81B
:1002C000014D02F8014D9942F9D1F0BC70470F2A57
:1002D0000ED80346541E002AF7D001340C44013BCB
:1002E00011F8012B03F8012FA142F9D1F0BC70479E
:1002F00040EA01039B073BD1A2F110073F0901F13E
:10030000200606EB071601F1100300F1100453F864
:10031000105C44F8105C53F80C5C44F80C5C53F827
:10032000085C44F8085C53F8045C44F8045C10333F
:10033000B34204F11004EAD17B1C1B0112F00C0F34
:10034000194402F00F05034415D0043DAD0803EB3A
:10035000850C1C1F0E4656F8047B44F8047F644548
:10036000F9D10135AD002B44294402F00302B1E775
:10037000541E0346B1E72A46ACE700BFF0B4860737
:1003800046D0541E002A3CD0CAB2034602E014F103
:10039000FF3436D303F8012B9D07F8D1032C29D95C
:1003A000CDB245EA05250F2C45EA054533D9A4F120
:1003B0001006360903F1200707EB061703F11002B8
:1003C00042E9045542E902551032BA42F8D1721C92
:1003D00014F00C0F03EB021204F00F0613D0331FBE
:1003E00023F003030433134442F8045B9342FBD12C
:1003F00006F003042CB1C9B21C4403F8011B9C4253
:10040000FBD1F0BC704734461346002CF3D1F8E71B
:1004100014460346C2E71A462646E0E700293CD0C8
:1004200038B551F8043C0C1F002BB8BFE418054642
:1004300000F0D0FB234B1A682AB1A2420DD92168E3
:100440006018824223D0626028461C60BDE83840B4
:1004500000F0C2BBA34203D81A465368002BF9D15F
:1004600011685018A04219D024D82168601883421E
:1004700006D0636054602846BDE8384000F0ACBB4D
:10048000D3E900030144636021605460F3E7D2E9DB
:100490000002014462602160D6E770472068014491
:1004A000501883421160E6D1D3E900030144536040
:1004B0001160E0E70C232B602846BDE8384000F0CF
:1004C0008BBB00BF98000020F8B5CD1C25F00305BC
:1004D00008350C2D38BF0C25002D064633DBA9420C
:1004E00031D82A4F00F076FB3A6852B113685B1B93
:1004F00004D43FE023685B1B29D522465468002CB6
:10050000F8D1796800293BD02946304600F022FA1C
:10051000431C28D0C41C24F00304A04205D0211A97
:10052000304600F017FA01301DD02560304600F04B
:1005300053FB04F10B0020F00700231DC21A01D069
:100540001B1AA350F8BD0C2232600020F8BD0B2B03
:1005500005D8A242636811D05360E7E714462360D0
:100560001C442560E2E70C233046336000F034FB86
:100570000020F8BD0B2BF1D8536814463B60D5E73B
:10058000304600F0E7F97860BEE700BF9800002031
:100590002DE9F0470C4691460A698968DDF820800C
:1005A0008A42B8BF0A46C9F8002094F843100646AC
:1005B0001F4611B10132C9F80020236899065CD5A5
:1005C000D9F800200232C9F80020236813F0060F82
:1005D00019461DD1E1688A1A002AD8BF194617DDCD
:1005E00004F1190A002505E0E368D9F800209B1AF8
:1005F000AB420CDD0123524639463046C04701303C
:1006000005F10105F0D14FF0FF30BDE8F08721681A
:1006100094F84330003318BF01238A060AD5E11845
:100620005A1C302081F84300224494F8451082F887
:100630004310023304F1430239463046C0470130CB
:10064000E1D02368A268216903F00603042B1DD0C2
:100650008A4226DD4FF00009521A91441A340025CF
:1006600001E04D451DDA0123224639463046C04798
:10067000013005F10105F4D1C5E713F0060F13D0E1
:1006800094F84330003318BF0123D3E7D9F80000B2
:10069000E3688A42A3EB000323EAE379DCDC002B66
:1006A000DCDC0020BDE8F087E168D9F800208A1A78
:1006B000002AD8BF194693DCAAE700BF2DE9F04312
:1006C0000C46097E85B06E29064617460C9898465A
:1006D00004F1430E6DD039D9732900F0F68044D966
:1006E000752900F00481782940F01181782322686F
:1006F000DFF858C284F845300168150651F8043B0C
:10070000016040F1A180D10744BF42F02002226085
:10071000002B00F093801022002184F843106068C1
:10072000A0600028C0F2C880216821F00401216087
:10073000002B40F0A380002840F0C0807546082AB6
:1007400000F0AC80AEEB0503236141E0632900F0CB
:10075000E5801AD8002938D0582940F0D88084F88C
:1007600045102268DFF8E8C1C6E76F2900F0BF80B6
:10077000702940F0CC802268DFF8D0C142F020021E
:100780007823226084F84530B6E7642902D06929CD
:1007900040F0BD8022680368110603F1040557D5B7
:1007A000196805600B46002959DBDFF8A4C10A224D
:1007B000B5E70368226861691D1D056015061B68A1
:1007C00002D4500600F1BD801960002375462361F4
:1007D000CDF800803B4603AA21463046FFF7D8FEFD
:1007E000013020D02A46236939463046C0470130BF
:1007F00019D022680398E368920719D51A1A002ABB
:1008000016DD04F11909002504E0E36803981A1ABB
:10081000AA420DDD01234A4639463046C047013021
:1008200005F10105F1D14FF0FF3005B0BDE8F083CF
:100830009842B8BF184605B0BDE8F083226822F0A0
:1008400020022260102267E7500648BF9BB25AE799
:100850005106A5D5B3F9003005601946A3E76168D4
:10086000A1602D200029C3F1000384F8430002DBBE
:1008700022F004022260DFF8D8C00A22754600E0A8
:100880000B46B3FBF2F102FB113093421CF800005F
:1008900005F8010DF4D2082A7FF454AF2368DB0772
:1008A0007FF550AF626823699A423FF74BAF302320
:1008B00005F8013C013D45E7002BDFD19CF80030F5
:1008C00084F8423004F1420539E703686268191D73
:1008D00001601D680021284600F092F8002832D0FF
:1008E000401B60602061002384F8433070E7226879
:1008F000036812F0800F03F104051AD01B6805602D
:100900006F290CBF08220A22DFF844C004E7012344
:1009100084F84210236104F14205E4E703681A6891
:10092000191D0123016004F1420584F8422023616E
:10093000D9E712F0400F0DBF1B6805601B880560EA
:10094000DEE7198041E76068CCE700BF605B000824
:100950004C5B000838B5074C002305460846236069
:1009600001F054FA431C00D038BD2368002BFBD0A3
:100970002B6038BD8801002070B5141E9AB0054662
:100980002BDB1A464FF4027300910491ADF80C3042
:1009900013D0013C4FF6FF761E9B029469460594E6
:1009A000ADF80E6000F01CFA421C01DA8B232B60BC
:1009B000009B00221A701AB070BD1E9B02944FF665
:1009C000FF7669460594ADF80E6000F009FA431C05
:1009D00001DA8B232B601AB070BD8B2303604FF0BC
:1009E000FF30F8E710B5054C82B0009313460A4675
:1009F00001462068FFF7C0FF02B010BD00000020D4
:100A000001F0FF01102A2BDB10F0070F08D010F8BF
:100A1000013B013A8B422DD010F0070F42B3F6D1C3
:100A2000F0B441EA012141EA014122F007047FF0DC
:100A300000070023F0E80256083C85EA010586EA33
:100A4000010685FA47F5A3FA87F586FA47F6A5FA6F
:100A500087F68EB9EED1F0BC01F0FF0102F007027B
:100A600032B110F8013B013A83EA010313B1F8D126
:100A70000020704701387047002D06BF3546033807
:100A8000073815F0010F07D1013015F4807F02BF40
:100A9000013015F4C03F0130F0BC0138704700BF91
:100AA000844641EA000313F003036DD1403A41D379
:100AB00051F8043B40F8043B51F8043B40F8043B38
:100AC00051F8043B40F8043B51F8043B40F8043B28
:100AD00051F8043B40F8043B51F8043B40F8043B18
:100AE00051F8043B40F8043B51F8043B40F8043B08
:100AF00051F8043B40F8043B51F8043B40F8043BF8
:100B000051F8043B40F8043B51F8043B40F8043BE7
:100B100051F8043B40F8043B51F8043B40F8043BD7
:100B200051F8043B40F8043B51F8043B40F8043BC7
:100B3000403ABDD2303211D351F8043B40F8043B67
:100B400051F8043B40F8043B51F8043B40F8043BA7
:100B500051F8043B40F8043B103AEDD20C3205D377
:100B600051F8043B40F8043B043AF9D2043208D06F
:100B7000D2071CBF11F8013B00F8013B01D30B88E1
:100B800003806046704700BF082A13D38B078DD0BF
:100B900010F003038AD0C3F10403D21ADB071CBF91
:100BA00011F8013B00F8013B80D331F8023B20F8FB
:100BB000023B7BE7043AD9D3013A11F8013B00F834
:100BC000013BF9D20B7803704B7843708B788370BC
:100BD00060467047704700BF704700BF09B3F8B563
:100BE0001446CAB106460D4600F034FAA04202D3BC
:100BF0002F463846F8BD21463046FFF765FC0746CC
:100C00000028F6D022462946FFF74AFF30462946FB
:100C1000FFF704FC3846F8BD2746FFF7FFFB3846D0
:100C2000F8BD1146FFF750BC2DE9F0478E681D4610
:100C3000AE420C460B68174636D88046888910F4B9
:100C4000906F0ED1354618462A463946FFF72EFBDF
:100C5000A2682368961B2B44A66023600020BDE891
:100C6000F087D1E9041606EB4606A3EB010906EB73
:100C7000D6766B1C76104B44B342324684BF1E4678
:100C80003246430512D511464046FFF71DFC824609
:100C900000B34A462169FFF703FFA38923F4906359
:100CA00043F08003A38106E02E46CCE74046FFF7E1
:100CB00095FF824650B1A6EB09020AEB0903666173
:100CC000C4F810A02360A2602E46BCE7216940460C
:100CD000FFF7A4FB0C23C8F80030A38943F04003BE
:100CE000A3814FF0FF30BAE72DE9F04F936883B04E
:100CF0009046002B6DD017688D6882460C460868B8
:100D0000083743E0A38913F4906F2ED0D4E904157B
:100D100005EB4505A0EB010B05EBD5750BEB0600CC
:100D20006D100130A8422A4684BF05462A465B055D
:100D300036D511465046FFF7C7FB00283AD05A4631
:100D400021690190FFF7ACFEA289019B22F4906219
:100D500042F08002A281A5EB0B0203EB0B00656160
:100D600023612060A2603546B3465A464946FFF7E4
:100D70009DFAD8F80830A2682068551B58449E1B7D
:100D8000A5602060C8F808601EB3083757E90296CE
:100D9000AB46002EF9D0AE42B4D23546B346E4E7B6
:100DA0005046FFF71BFF03460028D4D12169504667
:100DB000FFF734FB0C23CAF80030A389002243F06C
:100DC00040034FF0FF30A381C8E9012203B0BDE822
:100DD000F08F0020C8F8040003B0BDE8F08F00BF1A
:100DE0002DE9F04F90468A899FB014068B460290F9
:100DF00003D50A69002A00F00B81059330238DF892
:100E0000323098F800308E4E002120220B918DF860
:100E100031200127002B00F08480252B00F0F68084
:100E2000454603E0252B00F0868025466B786C1C38
:100E3000002BF7D1B4EB080A73D04246534659460B
:100E40000298FFF7F1FE01306BD00B9B6A78534498
:100E50000B93002A65D000234FF0FF320134069334
:100E6000CDE908338DF85B301C93079205E0069AB4
:100E700007FA03F313432C4606932546052215F87B
:100E8000011B3046FFF7BCFDAA46831B0028EED1AC
:100E9000069BD90644BF20228DF85B2021781A07D3
:100EA00044BF2B228DF85B202A2948D1059A11686E
:100EB0000432002905927EDB09916178A51C2E2958
:100EC00056D0604C03222046FFF79AFD002868D0D8
:100ED000001B069B402404FA00F00343069305F12F
:100EE0000108297858488DF830100622FFF788FD50
:100EF000002866D0554B002B56D005AB00935A46C0
:100F0000534B029806A9AFF300808146B9F1FF3F29
:100F100007D00B9B4B440B9398F80030002B7FF4C9
:100F20007CAFBBF80C305B0654BF0B984FF0FF3022
:100F30001FB0BDE8F08FB4EB080A8CD07DE7A1F1BB
:100F40003002092A88BFA246B9D8099B01E02C4685
:100F50000135297803EB830302EB4303A1F130024F
:100F6000092AAA46F3D92E2904F102050993A8D12A
:100F70009AF801102A292ED1059B9AF802101A68B6
:100F800007920433002A05930AF103050AF10203CC
:100F900037DB2C4C032220469A46FFF731FD002810
:100FA00096D1A84655469CE7059B073323F00703D7
:100FB00008330593ADE7494243F0020309910693D4
:100FC0007BE705AB00935A46214B029806A9FFF731
:100FD00075FB81469AE7A1F130020023092A0793A5
:100FE00001D923E05546697803EB830302EB430301
:100FF000A1F13002092A05F1010AF3D9023507935C
:101000005FE74FF0FF329A4607925AE7444622E7DD
:1010100040210393FFF758FA039BCBF80000CBF86D
:10102000100030B14022CBF81420E6E6AA46013584
:1010300047E7029A0C2313604FF0FF3078E700BFB8
:10104000745B00087C5B0008805B00080000000007
:10105000290C000851F8043C181F002BBCBF0B588A
:10106000C018704753B94AB9002908BF00281CBFEF
:101070004FF0FF314FF0FF3000F06EB9ADF1080CCA
:101080006DE904CE00F006F8DDF804E0DDE90223A6
:1010900004B070472DE9F047089D04468C46002BAC
:1010A00040F083808A42174647D9B2FA82F242B1B1
:1010B000C2F1200024FA00F09140974040EA010C70
:1010C00094404FEA1748230CBCFBF8F61FFA87FE42
:1010D00008FB16C143EA014306FB0EF1994209D908
:1010E000FB1806F1FF3080F01981994240F2168119
:1010F000023E3B445B1AA4B2B3FBF8F008FB10338A
:1011000044EA034400FB0EFEA64509D93C1900F150
:10111000FF3380F00581A64540F2028102383C444D
:1011200040EA0640A4EB0E0400261DB1D440002383
:10113000C5E900433146BDE8F08702B9FFDEB2FAE7
:1011400082F2002A50D1CB1B4FEA174E1FFA87F8C4
:101150000126B3FBFEFC210C0EFB1C3341EA0341CC
:1011600008FB0CF38B4207D979180CF1FF3002D23F
:101170008B4200F2E9808446C91AA3B2B1FBFEF0AB
:101180000EFB101143EA014408FB00F8A04507D903
:101190003C1900F1FF3302D2A04500F2D980184675
:1011A000A4EB080440EA0C40BFE78B4209D9002DAC
:1011B00000F0B1800026C5E9000130463146BDE8A7
:1011C000F087B3FA83F6002E4AD18B4202D38242D3
:1011D00000F2B880841A61EB030101208C46002DD7
:1011E000A8D0C5E9004CA5E7C2F1200320FA03F618
:1011F000974001FA02F04FEA174ED9403043030CF2
:10120000B1FBFEF61FFA87F80EFB161143EA014305
:1012100006FB08F1994204FA02F409D9FB1806F119
:10122000FF3C80F08D80994240F28A80023E3B4430
:101230005B1A81B2B3FBFEF00EFB103341EA0341AF
:1012400000FB08F38B4207D9791800F1FF3C73D2F9
:101250008B4271D902383944CB1A40EA064678E706
:10126000C6F1200C03FA06F422FA0CF31C4320FA10
:101270000CF701FA06F34FEA144E21FA0CF11F4362
:101280003B0CB1FBFEF91FFA84F80EFB191143EA7F
:10129000014109FB08FA8A4502FA06F200FA06F350
:1012A00008D9611809F1FF3048D28A4546D9A9F119
:1012B00002092144A1EB0A01BFB2B1FBFEF00EFB13
:1012C000101147EA014700FB08F8B84507D9E719AC
:1012D00000F1FF312ED2B8452CD90238274440EA1C
:1012E0000940A7EB0807A0FB02894F45C6464946BF
:1012F0001AD317D05DB1B3EB0E0267EB010707FA03
:101300000CFCF2404CEA0202F740C5E90027002637
:101310003146BDE8F0872E4628460BE70646E9E64B
:101320001846FDE64345E5D2B8EB020E69EB040131
:101330000138DFE70846D2E760468DE78146B9E726
:10134000664675E730464AE7ACF1020C394413E7CC
:1013500002383C4424E700BF704700BFDFF834D0B8
:101360000D480E490E4A002302E0D458C4500433FD
:10137000C4188C42F9D30B4A0B4C002301E01360D4
:101380000432A242FBD300F077FDFEF75BFF03F0CF
:1013900061FD704700000320000000207C00002059
:1013A000985B00087C0000208C010020FEE780B5DF
:1013B00084B000AF78607868FEF768FF0346FB6092
:1013C000FB6803F5C872FB681A60FB687A689A606C
:1013D000FB681422DA60FB6808221A61FB68184671
:1013E0001037BD4680BD80B48DB000AFF860B960E5
:1013F0007A600023FB62FB681B697A68934238BFFE
:101400001346BB62FB68DB687B62FB687A6A134445
:101410003B623B6A5A42BB6A5B4213405B42FB61E0
:10142000FA693B6AD31ABB617A6ABB691A44BB6822
:101430001A44FB689B689A4210D8FB687B617A6A01
:10144000BB6913447A691344FB627A6ABB6913442B
:10145000BA6813443B61FB683A69DA60FB6A184674
:101460003437BD465DF8047B704780B582B000AF6D
:10147000786039607B681B691A4639687868FFF7BD
:10148000B2FF034618460837BD4680BD80B584B01C
:1014900000AF7860396039687868FFF7E6FFF86078
:1014A0003A680021F868FEF769FFFB6818461037B4
:1014B000BD4680BD80B485B000AF786039603B68C0
:1014C000142B38BF1423FB607B68DB68FA689A42F0
:1014D00002D27B68FA68DA6000BF1437BD465DF857
:1014E000047B704780B584B000AF78600023FB6058
:1014F0000AE07868FFF75BFF02460749FB6841F89E
:101500002320FB680133FB60FB68012BF1D900BF8E
:1015100000BF1037BD4680BDA000002080B48BB056
:1015200000AFF860B9607A6007F1140300221A6016
:101530005A6000237B6228E000233B62BB68FB61AA
:101540000DE0FB691A6819497B6A51F823309A4209
:1015500002D101233B6209E0FB690433FB617B6834
:101560009B00BA681344FA699A42EAD33B6A002B9B
:1015700008D10E4A7B6A52F823307B617B69DB68B5
:10158000BB6105E07B6A01337B627B6A012BD3D9A7
:10159000FB681A4607F1140393E8030082E803008E
:1015A000F8682C37BD465DF8047B7047A00000202A
:1015B00080B582B000AF3B4683E803003B687A68A1
:1015C00011461846FFF776FF00BF0837BD4680BDBD
:1015D00080B487B000AFF860B9607A6007F110039B
:1015E00000221A605A60BB683B617B687B61FB68C4
:1015F0001A4607F1100393E8030082E80300F86835
:101600001C37BD465DF8047B7047000090B488B07D
:1016100000AF07F1080484E80300394681E80C00B4
:101620000023FB61FA687B689A4204D0BB6A03F02E
:101630001003002B56D00123FB610023BB6149E05E
:10164000BA68BB6913441A783968BB690B441B78C4
:101650009A420CBF01230023DBB27B61BB6A03F01B
:101660002003002B2DD0BA68BB6913441B78FB7490
:10167000FB7C01331E4A13441B7803F00303012B48
:1016800003D1FB7C03F1200200E0FA7C3968BB69DE
:101690000B441B78BB74BB7C013315490B441B788E
:1016A00003F00303012B02D1BB7C203300E0BB7CA1
:1016B0009A420CBF01230023DBB21A467B69134315
:1016C0007B617B69002B02D10023FB610AE0BB69CF
:1016D0000133BB61FB68BA699A4203D27B68BA697D
:1016E0009A42ADD3FB6918462037BD4690BC70477F
:1016F000D059000880B588B000AFF860B9607A6052
:101700003B6007F1140300221A605A603B687A6854
:1017100000210020FFF766F903460133FB61F969F8
:10172000B868FFF7A2FE03467B61FB69013BBB6122
:101730007A69FB69013B134400221A7078693B689F
:101740007A68F969FFF74EF9FB681A4607F1140346
:1017500093E8030082E80300F8682037BD4680BDA7
:1017600080B586B000AFF860B960394681E80C00FA
:101770000C21F868FFF78AFE78617B6904333A46EA
:1017800092E8030083E80300BB681B68002B0AD1C2
:10179000BB687A695A60BB685A68BB681A607B6923
:1017A00000221A6009E0BB685B687A691A60BB684E
:1017B0007A695A607B6900221A60BB689B685A1C70
:1017C000BB689A60BB68DA687B681A44BB68DA60F9
:1017D00000BF1837BD4680BD90B593B000AFF8602C
:1017E000B960394681E80C0007F1200300221A6035
:1017F0005A609A60DA6000237B6400233B648AE0CD
:101800000023FB630023BB6361E000237B63BB6BAE
:10181000DB00BA6D13445A683B6C1A447B689A42E9
:1018200028D801237B6300233B6315E0BB6BDB00FF
:10183000BA6D13441A683B6B13441A783968386CD4
:101840003B6B03440B441B789A4202D000237B631A
:1018500010E03B6B01333B63BB6BDB00BA6D1344A1
:101860005B683A6B9A4205D23A6C3B6B1A447B68D0
:101870009A42DBD37B6B002B26D03A687B6CD11865
:101880003A6C7B6CD21A07F118031846FFF7A0FEDA
:1018900007F1200107F118030CCBB868FFF760FFD0
:1018A000BB6BDB00BA6D13445B683A6C13447B641A
:1018B000BB6BDB00BA6D13445A683B6C1344013BAD
:1018C0003B640123FB6306E0BB6B0133BB63BA6B74
:1018D000FB6D9A4299DBFB6B002B19D17B68013BB6
:1018E0003A6C9A4214D13A687B6CD1183A6C7B6C92
:1018F000D31A5A1C07F110031846FFF769FE07F1C7
:10190000200107F110030CCBB868FFF729FF07E0AF
:101910003B6C01333B647B683A6C9A42FFF470AFD6
:10192000FB681C4607F120030FCB84E80F00F86822
:101930004C37BD4690BD000080B485B000AF034673
:10194000FB710023FB60FB79303B362B00F2A28059
:1019500001A252F823F000BF351A00083B1A000814
:10196000411A0008471A00084D1A0008531A0008C7
:10197000591A00085F1A0008651A00086B1A000857
:10198000951A0008951A0008951A0008951A00087B
:10199000951A0008951A0008951A0008711A00088F
:1019A000771A00087D1A0008831A0008891A0008AF
:1019B0008F1A0008951A0008951A0008951A000851
:1019C000951A0008951A0008951A0008951A00083B
:1019D000951A0008951A0008951A0008951A00082B
:1019E000951A0008951A0008951A0008951A00081B
:1019F000951A0008951A0008951A0008951A00080B
:101A0000951A0008951A0008951A0008951A0008FA
:101A1000951A0008951A0008951A0008711A00080E
:101A2000771A00087D1A0008831A0008891A00082E
:101A30008F1A00080023FB602DE00123FB602AE0E1
:101A40000223FB6027E00323FB6024E00423FB6008
:101A500021E00523FB601EE00623FB601BE007235B
:101A6000FB6018E00823FB6015E00923FB6012E02F
:101A70000A23FB600FE00B23FB600CE00C23FB60F0
:101A800009E00D23FB6006E00E23FB6003E00F235B
:101A9000FB6000E000BFFB6818461437BD465DF8E8
:101AA000047B704780B588B000AF07F1080383E876
:101AB00003007A600023FB610A23BB6100237B6182
:101AC000FB68022B3CD9BA687B6913441B78302B26
:101AD00036D17B6901337B61BA687B6913441B781B
:101AE000782B2DD11023BB617B6901337B6127E00B
:101AF000BA687B6913441B781846FFF71DFF3861ED
:101B00003A69BB699A4203D37B6801221A601BE0E1
:101B1000104B1A683B69D21ABB69B2FBF3F3FA693E
:101B20009A4203D97B6801221A600DE0FB69BA6909
:101B300002FB03F33A691344FB617B6901337B6168
:101B4000FB687A699A42D3D3FB6918462037BD46B1
:101B500080BD00BF6800002080B485B000AF786011
:101B60007B6803F00703FB600C4BDB68BB60BA6863
:101B70004FF6FF031340BB60FB681A02BB681343B8
:101B800043F0BF6343F40033BB60044ABB68D360D7
:101B900000BF1437BD465DF8047B704700ED00E0E0
:101BA00080B400AF044BDB681B0A03F00703184640
:101BB000BD465DF8047B704700ED00E080B483B063
:101BC00000AF0346FB7197F90730002B0BDBFB7965
:101BD00003F01F02074997F907305B09012000FA5B
:101BE00002F241F8232000BF0C37BD465DF8047BAC
:101BF000704700BF00E100E080B483B000AF03464F
:101C00003960FB7197F90730002B0ADB3B68DAB2C9
:101C10000C4997F907301201D2B20B4483F8002324
:101C20000AE03B68DAB20849FB7903F00F03043B92
:101C30001201D2B20B441A7600BF0C37BD465DF8D4
:101C4000047B704700E100E000ED00E080B489B063
:101C500000AFF860B9607A60FB6803F00703FB61CE
:101C6000FB69C3F10703042B28BF0423BB61FB6995
:101C70000433062B02D9FB69033B00E000237B61A0
:101C80004FF0FF32BB6902FA03F3DA43BB681A4034
:101C90007B699A404FF0FF317B6901FA03F3D94326
:101CA0007B680B40134318462437BD465DF8047B20
:101CB0007047000080B582B000AF78607B68013B60
:101CC000B3F1807F01D301230FE00A4A7B68013B17
:101CD00053600F214FF0FF30FFF78EFF054B0022BE
:101CE0009A60044B07221A60002318460837BD4645
:101CF00080BD00BF10E000E080B483B000AF0023DF
:101D00007B60104B5B6C0F4A43F4804353640D4B74
:101D10005B6C03F480437B607B6800233B60094B72
:101D20001B6C084A43F080531364064B1B6C03F092
:101D300080533B603B6800BF0C37BD465DF8047BB9
:101D4000704700BF0038024080B500AF034B1B68EE
:101D5000034A1268012110469847FEE7AC000020B4
:101D6000A800002080B500AF034B1B68034A12682F
:101D7000012110469847FEE7AC000020A800002093
:101D800080B500AF034B1B68034A1268012110465F
:101D90009847FEE7AC000020A800002080B500AF07
:101DA000034B1B68034A1268012110469847FEE75F
:101DB000AC000020A800002080B500AF034B1B68DA
:101DC000034A1268012110469847FEE7AC00002044
:101DD000A800002080B400AF00BFBD465DF8047BC2
:101DE000704780B400AF00BFBD465DF8047B70470C
:101DF00080B400AF00BFBD465DF8047B704780B57E
:101E000000AF00F07BF800BF80BD000080B586B059
:101E100000AF7860144A154BD31A7B617B693B6134
:101E2000134B1B68002B02D1114B124A1A60104B46
:101E30001A687B6813443A699A4207D2FEF7FCF9A4
:101E400003460C221A604FF0FF3309E0084B1B6871
:101E5000FB60074B1A687B681344054A1360FB68F4
:101E600018461837BD4680BD00000320000400005E
:101E7000B00000209001002080B400AF064BD3F8E2
:101E80008830054A43F47003C2F8883000BFBD466D
:101E90005DF8047B704700BF00ED00E080B582B0C4
:101EA00000AF7860124B1A68124B1B7819464FF43A
:101EB0007A73B3FBF1F3B2FBF3F3184600F065F865
:101EC0000346002B01D001230EE07B680F2B0AD8BC
:101ED000002279684FF0FF3000F03BF8064A7B683B
:101EE0001360002300E0012318460837BD4680BD7B
:101EF0006C000020740000207000002080B400AF4F
:101F0000064B1B781A46064B1B681344044A1360A1
:101F100000BFBD465DF8047B704700BF7400002021
:101F2000B400002080B400AF034B1B681846BD46C8
:101F30005DF8047B704700BFB400002080B582B01C
:101F400000AF78607868FFF707FE00BF0837BD462E
:101F500080BD80B586B000AF0346B9607A60FB7380
:101F600000237B61FFF71CFE78617A68B9687869A5
:101F7000FFF76CFE024697F90F3011461846FFF73F
:101F80003BFE00BF1837BD4680BD80B582B000AFB4
:101F900078607868FFF78EFE034618460837BD461E
:101FA00080BD000080B586B000AF78607B68002BF4
:101FB00001D1012364E27B681B6803F00103002B5D
:101FC00075D0A34B9B6803F00C03042B0CD0A04BE3
:101FD0009B6803F00C03082B12D19D4B5B6803F444
:101FE0008003B3F5800F0BD1994B1B6803F40033CA
:101FF000002B5BD07B685B68002B57D101233FE24D
:102000007B685B68B3F5803F06D1914B1B68904AB3
:1020100043F4803313601DE07B685B68B3F5A02F49
:102020000CD18B4B1B688A4A43F480231360884B86
:102030001B68874A43F4803313600BE0844B1B68B2
:10204000834A23F480331360814B1B68804A23F456
:10205000802313607B685B68002B13D0FFF762FF5F
:10206000386108E0FFF75EFF02463B69D31A642B34
:1020700001D9032304E2764B1B6803F40033002BE1
:10208000F0D014E0FFF74EFF386108E0FFF74AFF99
:1020900002463B69D31A642B01D90323F0E16C4B50
:1020A0001B6803F40033002BF0D100E000BF7B6815
:1020B0001B6803F00203002B63D0654B9B6803F0A1
:1020C0000C03002B0BD0624B9B6803F00C03082B16
:1020D0001CD15F4B5B6803F48003002B16D15C4B73
:1020E0001B6803F00203002B05D07B68DB68012B23
:1020F00001D00123C4E1564B1B6823F0F8027B6832
:102100001B69DB00524913430B603AE07B68DB68D4
:10211000002B20D04F4B01221A60FFF703FF3861DC
:1021200008E0FFF7FFFE02463B69D31A022B01D9F4
:102130000323A5E1464B1B6803F00203002BF0D0FC
:10214000434B1B6823F0F8027B681B69DB004049A6
:1021500013430B6015E03F4B00221A60FFF7E2FECD
:10216000386108E0FFF7DEFE02463B69D31A022B16
:1021700001D9032384E1364B1B6803F00203002BD3
:10218000F0D17B681B6803F00803002B30D07B681C
:102190005B69002B16D0304B01221A60FFF7C2FE9C
:1021A000386108E0FFF7BEFE02463B69D31A022BF6
:1021B00001D9032364E1264B5B6F03F00203002B7C
:1021C000F0D015E0244B00221A60FFF7ABFE386117
:1021D00008E0FFF7A7FE02463B69D31A022B01D99C
:1021E00003234DE11A4B5B6F03F00203002BF0D188
:1021F0007B681B6803F00403002B00F0A080002321
:10220000FB75134B1B6C03F08053002B0FD1002385
:10221000BB600F4B1B6C0E4A43F0805313640C4B96
:102220001B6C03F08053BB60BB680123FB750B4B39
:102230001B6803F48073002B21D1084B1B68074AED
:1022400043F480731360FFF76DFE386111E000BF47
:102250000038024000004742800E474200700040B4
:10226000FFF760FE02463B69D31A022B01D9032314
:1022700006E1854B1B6803F48073002BF0D07B686C
:102280009B68012B06D1814B1B6F804A43F00103F1
:1022900013671CE07B689B68052B0CD17B4B1B6F85
:1022A0007A4A43F004031367784B1B6F774A43F075
:1022B000010313670BE0754B1B6F744A23F0010396
:1022C0001367724B1B6F714A23F0040313677B681B
:1022D0009B68002B15D0FFF725FE38610AE0FFF759
:1022E00021FE02463B69D31A41F28832934201D95A
:1022F0000323C5E0654B1B6F03F00203002BEED0F8
:1023000014E0FFF70FFE38610AE0FFF70BFE02460C
:102310003B69D31A41F28832934201D90323AFE0DB
:102320005A4B1B6F03F00203002BEED1FB7D012BF8
:1023300005D1564B1B6C554A23F0805313647B68C0
:102340009B69002B00F09B80504B9B6803F00C03B3
:10235000082B5CD07B689B69022B41D14C4B00223F
:102360001A60FFF7DFFD386108E0FFF7DBFD02468A
:102370003B69D31A022B01D9032381E0434B1B682D
:1023800003F00073002BF0D17B68DA697B681B6A6D
:102390001A437B685B6A9B011A437B689B6A5B08F4
:1023A000013B1B041A437B68DB6A1B063749134356
:1023B0004B60374B01221A60FFF7B4FD386108E02B
:1023C000FFF7B0FD02463B69D31A022B01D9032364
:1023D00056E02E4B1B6803F00073002BF0D04EE04C
:1023E0002B4B00221A60FFF79DFD386108E0FFF7D4
:1023F00099FD02463B69D31A022B01D903233FE022
:10240000224B1B6803F00073002BF0D137E07B6890
:102410009B69012B01D1012332E01C4B5B68FB60FF
:102420007B689B69012B28D0FB6803F480027B68E2
:10243000DB699A4221D1FB6803F03F027B681B6A8B
:102440009A421AD1FA6847F6C07313407A68526A02
:102450009201934211D1FB6803F440327B689B6A7E
:102460005B08013B1B049A4207D1FB6803F07062D2
:102470007B68DB6A1B069A4201D0012300E000233F
:1024800018461837BD4680BD007000400038024035
:102490006000474280B584B000AF786039607B68E7
:1024A000002B01D10123CCE0684B1B6803F00F0324
:1024B0003A689A420CD9654B3A68D2B21A70634BAB
:1024C0001B6803F00F033A689A4201D00123B8E079
:1024D0007B681B6803F00203002B20D07B681B681D
:1024E00003F00403002B05D0594B9B68584A43F472
:1024F000E05393607B681B6803F00803002B05D052
:10250000534B9B68524A43F460439360504B9B6823
:1025100023F0F0027B689B684D4913438B607B6816
:102520001B6803F00103002B44D07B685B68012B20
:1025300007D1474B1B6803F40033002B19D101234B
:102540007FE07B685B68022B03D07B685B68032BB2
:1025500007D13F4B1B6803F00073002B09D1012307
:102560006FE03B4B1B6803F00203002B01D10123FA
:1025700067E0374B9B6823F003027B685B68344954
:1025800013438B60FFF7CEFCF8600AE0FFF7CAFC4C
:102590000246FB68D31A41F28832934201D90323E1
:1025A0004FE02B4B9B6803F00C027B685B689B0041
:1025B0009A42EBD1254B1B6803F00F033A689A420D
:1025C0000CD2224B3A68D2B21A70204B1B6803F02F
:1025D0000F033A689A4201D0012332E07B681B68FE
:1025E00003F00403002B08D0194B9B6823F4E0523E
:1025F0007B68DB68164913438B607B681B6803F0BC
:102600000803002B09D0124B9B6823F460427B68BF
:102610001B69DB000E4913438B6000F021F8024672
:102620000B4B9B681B0903F00F030A49CB5C22FA92
:1026300003F3094A1360094B1B681846FFF72EFC89
:10264000002318461037BD4680BD00BF003C024045
:1026500000380240345B00086C000020700000204D
:102660002DE9B04384B000AF00237B600023FB6002
:1026700000233B600023BB60674B9B6803F00C03A7
:10268000082B0DD0082B00F2BD80002B02D0042BAC
:1026900003D0B7E0614BBB60B7E0614BBB60B4E017
:1026A0005D4B5B6803F03F037B605B4B5B6803F44F
:1026B0008003002B4DD0584B5B689B091A464FF0A6
:1026C000000340F2FF104FF0000102EA000803EAA5
:1026D0000109404649464FF000024FF000034B010C
:1026E00043EAD063420110461946B0EB080061EBA3
:1026F00009014FF000024FF000038B0143EA9063A1
:102700008201121A63EB01034FF000004FF0000149
:10271000D90041EA5271D00002460B4612EB080282
:1027200043EB09034FF000004FF00001590241EA6A
:10273000D251500202460B46104619467B681A4693
:102740004FF00003FEF78EFC02460B461346FB607B
:102750004AE0314B5B689B091A464FF0000340F298
:10276000FF104FF0000102EA000403EA01052046D1
:1027700029464FF000024FF000034B0143EAD063BB
:10278000420110461946001B61EB05014FF00002A3
:102790004FF000038B0143EA90638201121A63EB4E
:1027A00001034FF000004FF00001D90041EA5271DF
:1027B000D00002460B46121945EB03034FF0000010
:1027C0004FF00001990241EA9251900202460B46F5
:1027D000104619467B681A464FF00003FEF742FC8C
:1027E00002460B461346FB600B4B5B681B0C03F069
:1027F000030301335B003B60FA683B68B2FBF3F311
:10280000BB6002E0054BBB6000BFBB6818461037D9
:10281000BD46BDE8B08300BF003802400024F4008C
:1028200000127A0080B400AF034B1B681846BD4607
:102830005DF8047B704700BF6C00002080B500AFDE
:10284000FFF7F0FF0246054B9B689B0A03F0070366
:102850000349CB5C22FA03F3184680BD00380240DE
:10286000445B000880B500AFFFF7DCFF0246054B74
:102870009B685B0B03F007030349CB5C22FA03F36D
:10288000184680BD00380240445B000880B489B01F
:1028900000AF7860396000237B6100233B61002337
:1028A000BB610023FB6177E10122FB6902FA03F3BC
:1028B0007B613B681B687A6913403B613A697B69BD
:1028C0009A4240F066813B685B6803F00303012B8A
:1028D00005D03B685B6803F00303022B30D17B68B3
:1028E0009B68BB61FB695B00032202FA03F3DB43D5
:1028F000BA691340BB613B68DA68FB695B0002FAA6
:1029000003F3BA691343BB617B68BA699A607B6859
:102910005B68BB610122FB6902FA03F3DB43BA691E
:102920001340BB613B685B681B0903F00102FB6954
:1029300002FA03F3BA691343BB617B68BA695A6050
:102940003B685B6803F00303032B17D07B68DB68ED
:10295000BB61FB695B00032202FA03F3DB43BA6944
:102960001340BB613B689A68FB695B0002FA03F3A2
:10297000BA691343BB617B68BA69DA603B685B681C
:1029800003F00303022B23D1FB69DA087B680832CA
:1029900053F82230BB61FB6903F007039B000F2251
:1029A00002FA03F3DB43BA691340BB613B681A695F
:1029B000FB6903F007039B0002FA03F3BA691343B0
:1029C000BB61FB69DA087B680832B96943F82210F9
:1029D0007B681B68BB61FB695B00032202FA03F39F
:1029E000DB43BA691340BB613B685B6803F00302D9
:1029F000FB695B0002FA03F3BA691343BB617B68AE
:102A0000BA691A603B685B6803F44033002B00F03E
:102A1000C0800023FB60664B5B6C654A43F48043D7
:102A20005364634B5B6C03F48043FB60FB68614A57
:102A3000FB699B08023352F82330BB61FB6903F04A
:102A400003039B000F2202FA03F3DB43BA6913402E
:102A5000BB617B68584A934237D07B68574A9342A0
:102A600031D07B68564A93422BD07B68554A9342BB
:102A700025D07B68544A93421FD07B68534A9342C7
:102A800019D07B68524A934213D07B68514A9342D3
:102A90000DD07B68504A934207D07B684F4A9342DF
:102AA00001D1092312E00A2310E008230EE00723D6
:102AB0000CE006230AE0052308E0042306E00323D4
:102AC00004E0022302E0012300E00023FA6902F09F
:102AD000030292009340BA691343BB613549FB6915
:102AE0009B080233BA6941F823203D4B9B68BB61C8
:102AF0003B69DB43BA691340BB613B685B6803F425
:102B00008013002B03D0BA693B691343BB61344A7D
:102B1000BB699360324BDB68BB613B69DB43BA69DD
:102B20001340BB613B685B6803F40013002B03D0C8
:102B3000BA693B691343BB61294ABB69D360284B1F
:102B40005B68BB613B69DB43BA691340BB613B68AF
:102B50005B6803F40033002B03D0BA693B6913436D
:102B6000BB611F4ABB6953601D4B1B68BB613B695E
:102B7000DB43BA691340BB613B685B6803F4803395
:102B8000002B03D0BA693B691343BB61144ABB698C
:102B90001360FB690133FB61FB690F2B7FF684AE89
:102BA00000BF00BF2437BD465DF8047B704700BFFF
:102BB000003802400038014000000240000402409A
:102BC00000080240000C02400010024000140240C5
:102BD00000180240001C0240002002400024024075
:102BE000003C014080B485B000AF78600B467B802C
:102BF0007B681A697B881340002B02D00123FB738A
:102C000001E00023FB73FB7B18461437BD465DF8DB
:102C1000047B704780B483B000AF78600B467B8044
:102C200013467B707B78002B03D07A887B689A618F
:102C300003E07B881A047B689A6100BF0C37BD46AD
:102C40005DF8047B704780B582B000AF78607B6828
:102C5000002B01D101233FE07B6893F83D30DBB2CC
:102C6000002B06D17B68002283F83C20786800F0B6
:102C700037F87B68242283F83D207B681B68DA687C
:102C80007B681B6822F40052DA60786800F032F842
:102C90007B681B681A697B681B6822F490421A6182
:102CA0007B681B685A697B681B6822F02A025A619C
:102CB0007B681B68DA687B681B6842F40052DA6044
:102CC0007B6800221A647B68202283F83D207B68A1
:102CD000202283F83E20002318460837BD4680BDD9
:102CE00080B483B000AF786000BF0C37BD465DF89C
:102CF000047B70472DE9F04F9FB000AFF866FB6E84
:102D00001B681B6923F44050FB6ED968FB6E1A6880
:102D100040EA01031361FB6E9A68FB6E1B691A435C
:102D2000FB6E5B691A43FB6EDB6913433B67FB6E0B
:102D30001B68DB6823F4164121F00C01FB6E1A6856
:102D40003B6F0B43D360FB6E1B685B6923F44070E1
:102D5000FB6E9969FB6E1A6840EA01035361FB6ED2
:102D60001A68C54B9A4204D0FB6E1A68C34B9A424C
:102D700003D1FFF777FD786702E0FFF75FFD786723
:102D8000FB6EDB69B3F5004F40F0B6807B6F1C46ED
:102D90004FF0000522462B46911839645B417B6455
:102DA000D7E91023121945EB03034FF000004FF051
:102DB0000001D90041EA5271D00002460B461119B8
:102DC00039666B417B66FB6E5B681A464FF0000309
:102DD0009118B9635B41FB63D7E90E23D7E918016A
:102DE000FEF740F902460B46A54BA3FB02235B0905
:102DF0001E017B6F1C464FF0000522462B469118A2
:102E000039635B417B63D7E90C23121945EB03035C
:102E10004FF000004FF00001D90041EA5271D0009C
:102E200002460B461119B9656B41FB65FB6E5B6889
:102E30001A464FF000039118B9625B41FB62D7E973
:102E40000A23D7E91601FEF70DF902460B468C4B13
:102E5000A3FB02135B09642101FB03F3D31ADB001C
:102E60003233874AA2FB03235B095B0003F4F87348
:102E70001E447B6F18464FF0000102460B46941823
:102E80003C625B417B62D7E90823121841EB0303E4
:102E90004FF000044FF00005DD0045EA5275D40004
:102EA00022462B4614183C654B417B65FB6E5B68E4
:102EB0001A464FF000039118B9615B41FB61D7E9F5
:102EC0000623D7E91401FEF7CDF802460B466C4BFA
:102ED000A3FB02135B09642101FB03F3D31ADB009C
:102EE0003233674AA2FB03235B0903F00702FB6E40
:102EF0001B6832449A60B9E07B6F1C464FF00005B6
:102F000022462B46911839615B417B61D7E9042346
:102F1000121945EB03034FF000004FF00001D900F8
:102F200041EA5271D00002460B4612EB040843EB13
:102F30000509FB6E5B6818464FF000014FF0000278
:102F40004FF000038B0043EA9073820040464946ED
:102F5000FEF788F802460B46494BA3FB02235B09A8
:102F60001E017B6F18464FF0000102460B46941875
:102F7000BC605B41FB60D7E90223121841EB0303FD
:102F80004FF000044FF00005DD0045EA5275D40013
:102F900022462B461418BC644B41FB64FB6E5B68F5
:102FA00018464FF000014FF000024FF000038B0075
:102FB00043EA90738200D7E91201FEF753F8024604
:102FC0000B462F4BA3FB02135B09642101FB03F3A8
:102FD000D31A1B0132332A4AA2FB03235B0903F0F5
:102FE000F0031E447B6F18464FF0000102460B466B
:102FF00094183C605B417B60D7E90023121841EBD9
:1030000003034FF000044FF00005DD0045EA527560
:10301000D40022462B4612EB000A43EB010BFB6E59
:103020005B6818464FF000014FF000024FF00003BC
:103030008B0043EA9073820050465946FEF712F81F
:1030400002460B460E4BA3FB02135B09642101FBF6
:1030500003F3D31A1B013233094AA2FB03235B0992
:1030600003F00F02FB6E1B6832449A6000BF7C378E
:10307000BD46BDE8F08F00BF0010014000140140C4
:103080001F85EB5180B59CB000AF0023FB666D4BF4
:103090001B686C4A43F4007313606A4B1B68694AEF
:1030A00043F480631360674B1B68664A43F4807384
:1030B00013600320FEF742FF0020FEF7EFFEFEF74D
:1030C0001BFE07F13C03302200211846FDF756F99C
:1030D00007F1280300221A605A609A60DA601A61C8
:1030E00000237B62584B1B6C574A43F08053136498
:1030F000554B1B6C03F080537B627B6A00233B6261
:10310000524B1B6823F44043504A43F480431360FE
:103110004E4B1B6803F440433B623B6A0223FB6354
:103120000123BB641023FB6400237B6507F13C0390
:103130001846FEF737FF0346002B7BD10F23BB62F7
:103140000023FB6200233B634FF480537B63002327
:10315000BB6307F1280300211846FFF79BF90346DC
:10316000002B64D10023FB61374B1B6B364A43F0C5
:1031700008031363344B1B6B03F00803FB61FB690B
:103180000023BB61304B1B6B2F4A43F010031363CA
:103190002D4B1B6B03F01003BB61BB6900237B61EC
:1031A000294B1B6B284A43F020031363264B1B6BF0
:1031B00003F020037B617B6900233B61224B1B6B87
:1031C000214A43F0400313631F4B1B6B03F0400382
:1031D0003B613B690023FB601B4B1B6B1A4A43F4AA
:1031E00080731363184B1B6B03F48073FB60FB68E5
:1031F0000023BB60144B1B6B134A43F4007313632F
:10320000114B1B6B03F40073BB60BB6800237B6036
:103210000D4B1B6B0C4A43F4806313630A4B1B6B0F
:1032200003F480637B607B680123FB6604E000237A
:10323000FB6601E00023FB66FB6E18467037BD4657
:1032400080BD00BF003C02400038024000700040DA
:1032500080B485B000AF7860144BFB607B68042BB2
:103260001BD801A252F823F07D32000883320008F7
:10327000893200088F320008953200080C4BFB6041
:103280000CE00C4BFB6009E00B4BFB6006E00B4BCA
:10329000FB6003E00A4BFB6000E000BFFB681846E0
:1032A0001437BD465DF8047B704700BF905100089D
:1032B00098510008A0510008A8510008B05100081A
:1032C000B8510008B0B594B000AFF860B9607A604A
:1032D0000023FB64694AFB681361684B01221A6092
:1032E000664B04225A60654ABB685361634B0022F7
:1032F0009A61B968F868FEF7C9F803465F4AD36176
:103300005E4B00221A6207F1340300221A605A60F1
:103310009A60DA601A617B685B687B630223BB6337
:103320000123FB6303233B647B689B687B647B68AE
:10333000DB6807F1340211461846FFF7A7FA7B68ED
:103340001B687B630223BB630123FB6303233B6492
:103350007B689B687B647B68DB6807F134021146FD
:103360001846FFF793FA00237B61454B1B6C444AD8
:1033700043F480231364424B1B6C03F480237B6172
:103380007B6907F1180300221A605A609A60DA60BC
:103390001A615A619A617B681B69BB610023FB61FA
:1033A00000233B6200237B620C23BB620023FB6291
:1033B00000233B637B68DB69304A53622F4B03F188
:1033C000280407F118050FCD0FC495E8070084E81D
:1033D00007002C48FFF737FC034687F84B3097F877
:1033E0004B30002B02D00023FB6442E07B689B69DA
:1033F000224AC2F88430214B1B69204AD2F884202B
:1034000011461846FEF742F803461C4AC2F88030BF
:103410007B685B69194A5367184B1B69174A526FDF
:1034200011461846FEF732F80346144A1367134B49
:103430005B6ADA68114B5B6A42F08002DA600F4B1C
:103440005B6ADA680D4B5B6A42F02002DA60FEF7D5
:10345000A7FB0346002200211846FEF7F7FB0346B0
:1034600019462720FEF7C8FB2720FEF7A7FB0123FC
:10347000FB64FB6C18465037BD46B0BDBC00002055
:1034800000380240E000002080B487B000AF714BEC
:103490005B6A1B683B61EFF31083BB60BB686E4ADD
:1034A00013600123FB60FB6883F3108800BF3B6956
:1034B00003F02003002B2ED0664BDB6E01337B61C3
:1034C000644B5B6F7A699A4201D300237B61614B45
:1034D0009B6E7A699A4211D15E4BD3F888305F4A6D
:1034E0001288934202D35D4B1B8803E0594BD3F8FB
:1034F00088300133574AC2F888300CE0554B5B6A7C
:103500005968544B1A6F534BDB6E1344CAB21A708E
:10351000504A7B69D3663B6903F08003002B29D0B6
:103520004C4B9A6F4B4BDB6F9A4208D1494B5B6A0D
:10353000DA68484B5B6A22F08002DA601AE0454B99
:10354000D3F88020434B9B6F13441A78414B5B6A3E
:103550005A60404B9A6F3F4BD3F88430013B9A42FC
:1035600005D23C4B9B6F01333A4A936702E0394BDB
:1035700000229A673B6903F00F03002B5DD0354BA7
:103580005B6A5B683B6903F00803002B11D0314B89
:10359000D3F89030314A1288934202D32F4B1B88C4
:1035A00003E02C4BD3F8903001332A4AC2F8903014
:1035B00043E03B6903F00403002B11D0254BD3F803
:1035C0009430264A1288934202D3244B1B8803E08E
:1035D000204BD3F8943001331E4AC2F894302CE0CB
:1035E0003B6903F00203002B11D01A4BD3F898303B
:1035F0001A4A1288934202D3184B1B8803E0154BDA
:10360000D3F898300133134AC2F8983015E03B697B
:1036100003F00103002B10D00E4BD3F89C300F4A5F
:103620001288934202D30D4B1B8803E0094BD3F859
:103630009C300133074AC2F89C30074B1B687B6003
:103640007B6883F3108800BF00BF1C37BD465DF860
:10365000047B7047BC000020B800002064000020FC
:1036600080B500AFFFF710FF00BF80BD80B489B008
:1036700000AF0346FB71EFF310837B617B69284A3F
:1036800013600123BB61BB6983F3108800BF254B26
:10369000DB6F0133FB61234BD3F88430FA699A4224
:1036A00001D30023FB611F4B9B6FFA699A4218D12B
:1036B0001C4BD3F88C301C4A1288934202D31A4B0D
:1036C0001B8803E0174BD3F88C300133154AC2F83E
:1036D0008C30134B1B683B613B6983F3108800BF40
:1036E00019E0104BD3F880200E4BDB6F1344FA79AE
:1036F0001A700C4AFB69D3670A4B5B6ADA68094B9C
:103700005B6A42F08002DA60054B1B68FB60FB6875
:1037100083F3108800BF2437BD465DF8047B7047F3
:10372000B8000020BC0000206400002080B487B0F6
:1037300000AF0023FB74EFF31083BB60BB681D4A2E
:1037400013600123FB60FB6883F3108800BF1A4BF2
:103750009A6E194BDB6E9A4208D1164B1B687B6040
:103760007B6883F3108800BFFB7C1CE0124B9B6ED0
:1037700001337B61104B5B6F7A699A4201D300235E
:103780007B610D4B1A6F0C4B9B6E13441B78FB74C3
:10379000094A7B699366074B1B683B603B6883F370
:1037A000108800BFFB7C18461C37BD465DF8047BC3
:1037B000704700BFB8000020BC0000200FB480B5E7
:1037C00086B000AF07F124033B6107F10803002234
:1037D00000211846FDF7A2FEB96838463B693A6AEF
:1037E000FDF788FF00237B6109E03A687B69134499
:1037F0001B781846FFF73AFF7B6901337B617B68D2
:103800007A699A42F1D307F1080393E80300FDF7C0
:10381000CFFE00BF1837BD46BDE8804004B07047FA
:1038200080B588B000AF7860396007F114030022DA
:1038300000211846FDF772FE796907F10C003B681C
:103840007A68FDF757FF0023FB6109E0FA68FB691E
:1038500013441B781846FFF709FFFB690133FB612E
:103860003B69FA699A42F1D300BF00BF2037BD46D9
:1038700080BD00000FB480B582B000AF07F1140323
:103880003B60FEF74FFB78607B680E4AA2FB032388
:1038900099097A680B4BA3FB02039B094FF47A70DA
:1038A00000FB03F3D31A1A460748FFF787FF39686E
:1038B0003869FFF7B5FF00BF0837BD46BDE8804057
:1038C00004B07047D34D6210C0510008B0B5A4B029
:1038D00004AF3B4683E8030007F1240300220021E4
:1038E0001846FDF71BFE07F11C030122A2491846EA
:1038F000FDF76EFE796A07F10C000123019307F1D1
:103900001C0300933B460CCBFDF766FFFB68BB66D0
:103910007B69012B40F09F81BB6E5B681B783F2B5E
:103920004BD19648FFF74AFF9548FFF747FF954868
:10393000FFF744FF9448FFF741FF94499448FFF78D
:103940003DFF9448FFF73AFF9348FFF737FF93484E
:10395000FFF734FF924B9B68FB672AE0FB6F9B6885
:103960001946FB6F5B681A468E48FFF727FFFB6F0F
:10397000DB68BB6714E0BB6F9B681846BB6F596878
:10398000FB6F1B69BA6F9A4201D1874B00E0874BEE
:103990000A4601468648FFF711FFBB6F1B68BB67ED
:1039A000BB6F002BE7D18348FFF708FFFB6F1B6855
:1039B000FB67FB6F002BD1D1BFE1BB6E5B681B784F
:1039C0002B2B06D1764B01221A607B48FFF7F6FEBF
:1039D000B3E1BB6E5B681B782D2B06D1704B0022C8
:1039E0001A607648FFF7EAFEA7E1BB6E5B681B78BA
:1039F0002A2B3CD16A4B5B681846FFF729FCF86517
:103A0000674B1B68002B01D06D4B00E06D4B1A46D5
:103A1000F96D6D48FFF7D2FE614BD3F88830194637
:103A20006A48FFF7CBFE5E4BD3F88C3019466848E6
:103A3000FFF7C4FE5A4BD3F8903019466548FFF79C
:103A4000BDFE574BD3F8943019466348FFF7B6FED6
:103A5000534BD3F8983019466048FFF7AFFE504BF0
:103A6000D3F89C3019465E48FFF7A8FE65E107F1E0
:103A70002C0304225B491846FDF7AAFDB96E2023EA
:103A8000009307F12C030CCB043103C9FDF7BEFDF5
:103A90000346002B03D05448FFF790FE4DE107F199
:103AA0003403052251491846FDF792FDB96E2023D3
:103AB000009307F134030CCB043103C9FDF7A6FDD5
:103AC0000346002B06D0364B00225A604848FFF7C9
:103AD00075FE32E107F13C03072246491846FDF71F
:103AE00077FDB96E2023009307F13C030CCB043122
:103AF00003C9FDF78BFD0346002B06D0284B01229E
:103B00005A603D48FFF75AFE17E107F144030422CB
:103B10003A491846FDF75CFDB96E2023009307F182
:103B200044030CCB043103C9FDF770FD0346002BA1
:103B300006D01B4B02225A603148FFF73FFEFCE0E3
:103B400007F14C0305222F491846FDF741FDB96ED8
:103B50002023009307F14C030CCB043103C9FDF77C
:103B600055FD0346002B51D00D4B03225A602648C9
:103B7000FFF724FEE1E000BFCC510008D05100085F
:103B8000DC510008FC5100081052000828520008BF
:103B90004C520008705200088C520008AC520008C9
:103BA000BC000020BC520008C4520008C8520008E3
:103BB000CC520008D4520008D8520008EC52000839
:103BC0000053000808530008145300082853000845
:103BD00048530008685300088053000894530008B5
:103BE000A8530008C0530008C8530008D053000869
:103BF000D8530008F0530008F85300081454000884
:103C00001C540008345400083C54000807F15403C5
:103C100007224F491846FDF7DBFCB96E20230093BD
:103C200007F154030CCB043103C9FDF7EFFC034645
:103C3000002B06D0474B04225A604748FFF7BEFDD1
:103C40007BE0BB6E9B681946BB6E5B681A464348B7
:103C5000FFF7B4FD71E0BB6E1B687B667B6E1B6873
:103C60003B663C4B9B687B675DE07B6FB96E2022B7
:103C7000009204330CCB043103C9FDF7C7FC0346A3
:103C8000002B4DD07B6E5B681B783F2B22D17B6F66
:103C9000DB683B671AE07B6F9B681C467B6F59684B
:103CA0003B6F9B681D463B6F5B683A6F126910461D
:103CB0003A6FD2680292019000932B460A46214641
:103CC0002748FFF77BFD3B6F1B683B673B6F002B73
:103CD000E1D13AE07B6FDB68FB661EE0FB6E796E3C
:103CE0002022009204330CCB043103C9FDF78EFC73
:103CF0000346002B0ED0FB6E5B69386E9847034677
:103D0000002B21D1FB6E0C3393E806001548FFF71A
:103D100055FD19E0FB6E1B68FB66FB6E002BDDD1C9
:103D20007B6F1B687B677B6F002B9ED17B6819467E
:103D30003B681A460C48FFF741FD07F1240393E85E
:103D40000300FDF735FC00E000BF8037BD46B0BD85
:103D500054540008BC0000205C540008785400084B
:103D600090540008A4540008A854000880B588B0F6
:103D700000AFF860B9607A603B60214B1B68FB6163
:103D80000023BB6126E01F4B1968BA6913465B002C
:103D90001344DB000B447B617B691B68002B16D14D
:103DA0007B69FA685A60FEF7BDF802467B699A6043
:103DB0007B6901221A607B697A68DA607B693A68FC
:103DC0001A617B69BA685A61BB69FB6107E0BB692C
:103DD0000133BB610B4B5B68BA699A42D3D3084B82
:103DE0001B68FA699A4206D1074B1B68002B02D068
:103DF0000648FFF73FFDFB6918462037BD4680BDEA
:103E0000680000205C010020BC000020CC540008A9
:103E100080B584B000AF78600C4B5B687A689A42DA
:103E200010D20A4B19687A6813465B001344DB0012
:103E30000B44FB60FEF776F80246FB689A60FB686D
:103E400002221A6000BF1037BD4680BD5C01002011
:103E500080B485B000AF786039600B4B5B687A68DE
:103E60009A420BD2084B19687A6813465B001344D8
:103E7000DB000B44FB60FB683A685A6000BF1437F4
:103E8000BD465DF8047B70475C01002080B584B0BE
:103E900000AFFEF747F8F860234B1B68FA689A42B8
:103EA0003ED0214AFB6813600023BB6032E01F4B09
:103EB0001968BA6813465B001344DB000B447B604F
:103EC0007B681B68022B22D17B689B68FA68D21A38
:103ED0007B685B689A421AD37B6803221A607B680E
:103EE000DB687A6812691146B8689847FEF71AF8D5
:103EF000F8607B685B69002B09D07B6802221A603E
:103F00007B689A687B685B681A447B689A60BB68C8
:103F10000133BB60054B5B68BA689A42C7D300E0C7
:103F200000BF1037BD4680BD840100205C01002029
:103F300080B485B000AF7860114BFB607B68032BC9
:103F400016D801A252F823F0593F00085F3F00083D
:103F5000653F00086B3F00080A4BFB6009E00A4B15
:103F6000FB6006E0094BFB6003E0094BFB6000E0EF
:103F700000BFFB6818461437BD465DF8047B7047E8
:103F8000F8540008005500080855000810550008AE
:103F900018550008F0B58BB004AF786000233B6182
:103FA000FDF7C0FFF860F9682848FFF707FC2848CC
:103FB000FFF704FC2748FFF701FC00237B6139E091
:103FC000254B19687A6913465B001344DB000B44E8
:103FD000BB60BB681B68002B28D0BB685E68BB68F1
:103FE0009B683B60BB681B68022B07D1BB685A68A3
:103FF000BB689968FB68CB1AD41800E00024BB6842
:104000005B69002B01D0154D00E0154DBB681B68A6
:104010001846FFF78DFF03460293019500943B6815
:10402000324679690F48FFF7C9FB00E000BF7B69A2
:1040300001337B61084B5B687A699A42C0D30123E4
:104040003B613B6918461C37BD46F0BD2055000852
:10405000405500087C5500085C010020B855000858
:10406000BC550008C055000890B585B000AF374B6F
:104070001B6914211846FDF709FAF860FC683B46F5
:10408000052233491846FDF7A3FA231D3A4692E864
:10409000030083E803002D4B1B6918211846FDF728
:1040A000F5F9B860BC683B4606222A491846FDF778
:1040B0008FFA231D3A4692E8030083E80300BC68A8
:1040C0003B460D2224491846FDF782FA04F10C0301
:1040D0003A4692E8030083E80300BB681F4A5A612E
:1040E000FB68DB68002B0AD1FB68BA681A61FB68C1
:1040F0001A69FB68DA60BB6800221A6009E0FB6895
:104100001B69BA681A60FB68BA681A61BB6800224A
:104110001A600E4B9B68002B0AD10C4AFB68D360D7
:104120000A4BDB68094A9360FB6800221A6009E0C9
:10413000064BDB68FA681A60044AFB68D360FB68C8
:1041400000221A6000BF1437BD4690BDBC0000209D
:10415000E0550008E8550008F0550008953F0008B4
:1041600080B582B000AF786039603A6813465B0072
:104170001344DB0019467868FDF788F903460B4ABB
:1041800013600A4A3B685360094B1B68002B06D03A
:10419000074B5B68022B02D90648FFF76BFBFFF762
:1041A00063FF00BF0837BD4680BD00BF5C01002033
:1041B000BC0000200056000890B587B000AF07F1A2
:1041C000080484E803007A603B6000237B611E4B97
:1041D000DA681D4B1B699A420BD31C4B1B68002BE2
:1041E0002DD01A4B5B68002B29D01948FFF742FBF2
:1041F00025E0154B9968144BDA6813469B0013446D
:104200009B000B443B613B691A4607F1080393E8A6
:10421000030082E803003B69BA6A9A607B681A6807
:104220003B691A613B693A68DA6079683868FEF779
:104230002DFB054BDB685A1C0349CA607B617B6917
:1042400018461C37BD4690BD64010020BC0000200C
:104250005856000880B584B000AF78600023FB603A
:10426000104B5B687A689A4217D20E4B19687A68CD
:1042700013469B0013449B000B44BB60BB68DA6889
:10428000BB681B699BB219461046FEF7ABFC0346A0
:104290001A46BB689B685340FB60FB6818461037A2
:1042A000BD4680BD6401002080B584B000AF786059
:1042B0000023FB60104BDB687A689A4217D20E4BE2
:1042C00099687A6813469B0013449B000B44BB60BB
:1042D000BB68DA68BB681B699BB219461046FEF7DB
:1042E00081FC03461A46BB689B685340FB60FB6831
:1042F00018461037BD4680BD6401002080B584B0EB
:1043000000AF78603960104BDB687A689A4217D248
:104310000D4B99687A6813469B0013449B000B442D
:10432000FB60FB68D868FB681B6999B2FB689B68F7
:10433000DAB23B68DBB25340DBB21A46FEF76AFCE6
:1043400000BF1037BD4680BD64010020B0B588B005
:1043500002AF78600023FB602F48FFF72FFA00239D
:104360007B6120E02D4B19687A6913469B0013444A
:104370009B000B445B681D46284B19687A691346FD
:104380009B0013449B000B441C687869FFF762FF95
:104390000346009323462A4679692148FFF70EFA1F
:1043A0007B6901337B611D4B5B687A699A42D9D383
:1043B0001C48FFF703FA00233B6120E0174B996884
:1043C0003A6913469B0013449B000B445B681D46EF
:1043D000124B99683A6913469B0013449B000B44A7
:1043E0001C683869FFF760FF0346009323462A469E
:1043F00039690B48FFF7E2F93B6901333B61074B31
:10440000DB683A699A42D9D30123FB60FB681846FE
:104410001837BD46B0BD00BF9856000864010020A3
:10442000A4560008B8560008B0B594B002AF786042
:104430000023FB637B68002B79D07A6807F1340393
:10444000043292E8030083E8030000237B642CE03D
:104450003B4B19687A6C13469B0013449B000B443A
:1044600007F120041D460FCD0FC42B6823602023C5
:10447000009307F134030CCB07F1200103C9FDF7CA
:10448000C5F80346002B0DD07B6A1D463C6A786C4C
:10449000FFF7E0FE0346224629462A48FFF78EF939
:1044A000012348E07B6C01337B64254B5B687A6CAD
:1044B0009A42CDD300233B642CE0214B99683A6C9F
:1044C00013469B0013449B000B4407F10C041D464C
:1044D0000FCD0FC42B6823602023009307F1340312
:1044E0000CCB07F10C0103C9FDF790F80346002B34
:1044F0000DD03B691D46FC68386CFFF7D5FE0346BE
:10450000224629460F48FFF759F9012313E03B6C77
:1045100001333B640A4BDB683A6C9A42CDD3BB6BE8
:1045200019467B6B1A460848FFF748F902E007482E
:10453000FFF744F9FB6B18464837BD46B0BD00BFD6
:1045400064010020C4560008D0560008E856000850
:10455000B0B590B002AF786000237B637B68002B1E
:1045600067D07A6807F11C03043292E8030083E8FD
:104570000300344B1B683B630023FB6221E0324B9A
:104580009968FA6A13469B0013449B000B4407F199
:1045900008041D460FCD0FC42B6823602023009311
:1045A00007F11C030CCB07F1080103C9FDF72EF836
:1045B0000346002B02D0FB6A3B6307E0FB6A013332
:1045C000FB62214BDB68FA6A9A42D8D31D4B1B6809
:1045D0003A6B9A4225D07B681B68BB62BB6A002B92
:1045E0001BD0BB6A5B681B78303B7B627B6A002B0D
:1045F00002D07B6A012B06D1796A386BFFF77EFE09
:1046000001237B6318E0BB6A9B681946BB6A5B6841
:104610001A460E48FFF7D2F80EE00D48FFF7CEF825
:104620000AE03B6A1946FB691A460A48FFF7C6F8D2
:1046300002E00948FFF7C2F87B6B18463837BD46E1
:10464000B0BD00BF6800002064010020FC560008D7
:1046500020570008D05600083857000890B587B09A
:1046600000AF754B1B6914211846FCF70FFF7861EA
:104670007C693B46032271491846FCF7A9FF231DBC
:104680003A4692E8030083E803006B4B1B6918214C
:104690001846FCF7FBFE38613C693B460622684938
:1046A0001846FCF795FF231D3A4692E8030083E87D
:1046B00003003C693B460D2262491846FCF788FF1F
:1046C00004F10C033A4692E8030083E803003B69D7
:1046D0005D4A5A617B69DB68002B0AD17B693A69C4
:1046E0001A617B691A697B69DA603B6900221A608A
:1046F00009E07B691B693A691A607B693A691A614A
:104700003B6900221A604C4B1B6918211846FCF7C4
:10471000BDFEF860FC683B4603224C491846FCF796
:1047200057FF231D3A4692E8030083E80300FC6824
:104730003B46162246491846FCF74AFF04F10C0393
:104740003A4692E8030083E80300FB68414A5A6155
:104750007B69DB68002B0AD17B69FA681A617B6987
:104760001A697B69DA60FB6800221A6009E07B69DC
:104770001B69FA681A607B69FA681A61FB68002293
:104780001A602D4B1B6918211846FCF77FFEB86094
:10479000BC683B46032230491846FCF719FF231D2D
:1047A0003A4692E8030083E80300BC683B461322C4
:1047B0002A491846FCF70CFF04F10C033A4692E82C
:1047C000030083E80300BB68254A5A617B69DB6804
:1047D000002B0AD17B69BA681A617B691A697B6907
:1047E000DA60BB6800221A6009E07B691B69BA685D
:1047F0001A607B69BA681A61BB6800221A600E4BA6
:104800009B68002B0AD10C4A7B69D3600A4BDB689A
:10481000094A93607B6900221A6009E0064BDB6855
:104820007A691A60044A7B69D3607B6900221A6046
:1048300000BF1C37BD4690BDBC0000205457000887
:10484000E8550008F05500084D4300085857000887
:104850005C5700082944000874570008785700087E
:104860005145000880B582B000AF786039603A6881
:1048700013469B0013449B0019467868FCF706FE1C
:104880000346114A13603A6813469B0013449B0089
:1048900019467868FCF7FAFD03460B4A93600A4A0A
:1048A0003B681361FFF7DAFE084B1B68002B06D04C
:1048B000064B5B68022B02D90548FEF7DBFF00BF01
:1048C0000837BD4680BD00BF64010020BC00002049
:1048D0008C57000880B58AB000AF7860324B1B68F7
:1048E000BB6100237B627B68002B55D07B687B61BA
:1048F0000023FB6007F10C027B69043393E803009B
:10490000FDF7D0F803463B62FB68012B40D07B6982
:104910001B683B613B69002B36D007F10C023B69F9
:10492000043393E80300FDF7BDF8F86124E03B6A27
:1049300019461E48FEF742FF3B6A1A1D3A621B6881
:1049400019461B48FEF73AFF3B6A1A1D3A621B687C
:1049500019461748FEF732FF3B6A1A1D3A621B6878
:1049600019461348FEF72AFF3B6A1A1D3A621B6874
:1049700019461048FEF722FFFB695A1EFA61002B08
:10498000D5D101237B620AE00B48FEF717FF06E052
:104990000A48FEF713FF02E00948FEF70FFF7B6AA3
:1049A00018462837BD4680BD78000020A057000873
:1049B000A8570008B0570008B8570008D05700089B
:1049C000E857000880B58AB000AF786000237B62AA
:1049D0007B68002B67D07B683B620023BB6007F1DC
:1049E00008023B6A043393E80300FDF75BF80346D3
:1049F000FB61BB68012B52D03B6A1B68BB61BB6982
:104A0000002B48D007F10802BB69043393E8030088
:104A1000FDF748F87861BB691B683B613B69002B77
:104A200035D007F108023B69043393E80300FDF732
:104A300039F8F8607B69022B0FD07B69042B19D001
:104A4000FB68DAB2FB691A70FB68DBB21946FB69D6
:104A50001A461948FEF7B2FE16E0FB689AB2FB69E7
:104A60001A80FB689BB21946FB691A461348FEF789
:104A7000A5FE09E0FB69FA681A60FB691A46F96845
:104A80000F48FEF79BFE00BF01237B620EE00D483E
:104A9000FEF794FE0AE00C48FEF790FE06E00B4895
:104AA000FEF78CFE02E00A48FEF788FE7B6A184695
:104AB0002837BD4680BD00BFFC57000810580008CD
:104AC00024580008385800084C580008D0570008EF
:104AD000E857000890B587B000AF564B1B6914210A
:104AE0001846FCF7D3FC78617C693B4603225249A7
:104AF0001846FCF76DFD231D3A4692E8030083E853
:104B000003004C4B1B6918211846FCF7BFFC3861A9
:104B10003C693B46042249491846FCF759FD231DD0
:104B20003A4692E8030083E803003C693B462F22A3
:104B300043491846FCF74CFD04F10C033A4692E851
:104B4000030083E803003B693E4A5A617B69DB68E6
:104B5000002B0AD17B693A691A617B691A697B6902
:104B6000DA603B6900221A6009E07B691B693A69D7
:104B70001A607B693A691A613B6900221A602D4B01
:104B80001B6918211846FCF781FCF860FC683B465D
:104B900005222D491846FCF71BFD231D3A4692E8D5
:104BA000030083E80300FC683B463522274918468A
:104BB000FCF70EFD04F10C033A4692E8030083E88B
:104BC0000300FB68224A5A617B69DB68002B0AD12B
:104BD0007B69FA681A617B691A697B69DA60FB682C
:104BE00000221A6009E07B691B69FA681A607B6918
:104BF000FA681A61FB6800221A600E4B9B68002B52
:104C00000AD10C4A7B69D3600A4BDB68094A93607E
:104C10007B6900221A6009E0064BDB687A691A603A
:104C2000044A7B69D3607B6900221A6000BF1C378D
:104C3000BD4690BDBC000020685800086C580008B4
:104C400074580008D5480008A4580008AC5800085B
:104C5000C549000880B582B000AF786039600D4B5F
:104C60001B68002B06D00B4B5B68022B02D90A484D
:104C7000FEF700FE3B685B0119467868FCF706FC0E
:104C80000346064A1360054A3B68536000BF083775
:104C9000BD4680BDBC000020E4580008780100201B
:104CA00080B586B000AF786039603B68BB60002398
:104CB0007B6100233B610023FB60BB689B69013B78
:104CC000032B0BD801A252F823F000BFED4C0008D3
:104CD000034D0008394D0008494D00082B4B1B6857
:104CE000002B39D02A48FEF7C5FD35E002237B6151
:104CF000BB68DB68FB6001233B61BB6800229A60F4
:104D00002BE0BB689B685A1CBB689A60BB689A68BA
:104D1000BB685B689A4207D203237B6100233B6137
:104D2000BB68DB68FB6018E004237B6100233B6108
:104D3000BB685B69FB6010E002237B6101233B6180
:104D4000BB68DB68FB6008E001237B6100233B61FB
:104D5000BB681B69FB6000E000BFBB687A699A61B1
:104D6000BB681B6839691846FFF7C8FABB68DB697E
:104D7000F9681846FFF76CF8BB68DB691846FFF75F
:104D800047F800BF1837BD4680BD00BFBC000020FB
:104D9000F858000880B586B000AFF860B9607A6056
:104DA0003B6000237B611E4B9A681D4B5B689A42F7
:104DB0000BD31C4B1B68002B2DD01A4B5B68002BB0
:104DC00029D01948FEF756FD25E0154B1A68144BFB
:104DD0009B685B0113443B613B69BA685A603B695D
:104DE0007A68DA603B693A681A613B693A6A5A61E3
:104DF0003B6918693B690D4A0021FEF7B7FF02467F
:104E00003B69DA613B69FA681A60054B9B685A1C7A
:104E100003498A607B617B6918461837BD4680BDAF
:104E200078010020BC00002018590008A14C00089F
:104E300080B584B000AF78600023FB600448FEF7C3
:104E4000BDFC0123FB60FB6818461037BD4680BDE2
:104E50005459000890B59FB002AFFEF713F903460E
:104E6000012B00D0FEE74FF40040FCF7A0FAB86633
:104E70004FF40040FCF736FB07F13C030022002111
:104E80001846FCF74BFB07F11C03202200211846B3
:104E9000FBF774FA4FF480733B624FF40073FB61CD
:104EA00007237B628F4BBB624FF46143FB628E4BE7
:104EB000BB634FF480733B634FF480737B63402389
:104EC0007B6607F11C031A46796EB86EFEF7FAF995
:104ED0000346002B00D1FEE7844B1B68002B06D055
:104EE000824B5B68022B02D98148FEF7C3FC142178
:104EF000B86EFCF7CBFA38663C6E3B4604227D491F
:104F00001846FCF765FB231D3A4692E8030083E848
:104F100003001821B86EFCF7B9FAF865FC6D3B4642
:104F2000062275491846FCF753FB231D3A4692E8C2
:104F3000030083E80300FC6D3B4616226F491846C8
:104F4000FCF746FB04F10C033A4692E8030083E8C1
:104F50000300FB6D6A4A5A613B6EDB68002B0AD185
:104F60003B6EFA6D1A613B6E1A693B6EDA60FB6D3F
:104F700000221A6009E03B6E1B69FA6D1A603B6EF5
:104F8000FA6D1A61FB6D00221A60584B9B68002B6A
:104F90000AD1564A3B6ED360544BDB68534A936048
:104FA0003B6E00221A6009E0504BDB683A6E1A60D3
:104FB0004E4A3B6ED3603B6E00221A600521B86EEC
:104FC000FFF7CEF80821B86EFFF74CFC07F1080395
:104FD00000221A605A609A60DA601A610423BB608A
:104FE0000123FB6000233B6102237B6107F1440343
:104FF000092244491846FCF7EBFA07F1080200239E
:105000000093414B07F1440103C9FFF7D5F8B86598
:105010000823BB600123FB6000233B6102237B610B
:1050200007F14C03072239491846FCF7D1FA07F17A
:10503000080200230093344B07F14C0103C9FFF72A
:10504000BBF80346324A1360324B334A1A60FFF70B
:1050500041FD0421B86EFFF7FDFD4FF47A73009314
:105060004FF47A734FF4FA720A21B86DFFF792FE8B
:105070007865FEF75BFB034687F86F3025E097F80D
:105080006F300A2B0CD1194B1C3393E80300FEF749
:105090001DFC164B00221A62144B00229A611EE07E
:1050A000124BDA69114B9B69591C104881611344FA
:1050B00097F86F201A700D4B1B6A01330B4A13626D
:1050C000FEF734FB034687F86F3097F86F30002BFC
:1050D00005D0064B9A69054B5B699A42CFD1FEF722
:1050E000D5FEC6E7000C024000480040BC0000208E
:1050F000845900089C590008E8550008A459000884
:10510000314E0008BC59000800180240C859000878
:10511000A8000020AC000020FD420008F8B500BF48
:10512000F8BC08BC9E467047F8B500BFF8BC08BC88
:045130009E467047E0
:10513400464154414C204552524F52205452494703
:10514400474552454421202825733A25733A25645E
:10515400290A222573220A00464154414C20455213
:10516400524F52204552524E4F20545249474745C0
:1051740052454421202825733A25733A2564290A87
:1051840025730A222573220A00000000756E6B6ED7
:105194006F776E004552524F520000005741524EF5
:1051A400494E4700494E464F0000000044454255D1
:1051B40047000000564552424F534500256C752E5A
:1051C4002530336C7520000020000000434F4E53FF
:1051D4004F4C453A0A0000003F2028446973706C24
:1051E4006179207468697320696E666F726D617489
:1051F400696F6E290A0000002B2028456E61626CDD
:1052040065206C6F6767696E67290A002D20284442
:10521400697361626C65206C6F6767696E67290AE0
:1052240000000000286572726F727C7761726E698B
:105234006E677C696E666F7C64656275677C766593
:1052440072626F73652900004368616E6765206C44
:105254006F67206C6576656C20627920656E746575
:1052640072696E673A2025730A0000002A202844D8
:105274006973706C617920636F6E736F6C652069FC
:105284006E666F290A0000007465737420284469EF
:1052940073706C61792074657374206D65737361C8
:1052A4006765290A000000000A53554253595354B4
:1052B400454D533A0A000000252E2A732028000089
:1052C400000000002C000000252E2A732573000026
:1052D400290A00004C6F6767696E6720656E61621A
:1052E4006C65640A000000004C6F6767696E672094
:1052F40064697361626C65640A000000656E6162D2
:105304006C65640064697361626C6564000000002C
:105314002573206C6F6767696E6720697320257336
:105324000A000000525820427566666572204F7666
:10533400657272756E204572726F723A2025640A26
:1053440000000000545820427566666572204F764E
:10535400657272756E204572726F723A2025640A06
:10536400000000005258204F76657272756E204519
:1053740072726F723A2025640A0000005258204E5F
:105384006F697365204572726F723A2025640A0052
:105394005258204672616D65204572726F723A20D0
:1053A40025640A005258205061726974792045724C
:1053B400726F723A2025640A0000000074657374E9
:1053C40000000000546573740A0000006572726F77
:1053D400720000004C6F67206C6576656C20736505
:1053E4007420746F204552524F520A007761726ED6
:1053F400696E67004C6F67206C6576656C20736519
:105404007420746F205741524E494E470A000000E1
:10541400696E666F000000004C6F67206C657665EE
:105424006C2073657420746F20494E464F0A000047
:1054340064656275670000004C6F67206C65766573
:105444006C2073657420746F2044454255470A00EC
:10545400766572626F7365004C6F67206C65766564
:105464006C2073657420746F20564552424F534527
:105474000A000000556E6B6E6F776E20636F6D6D62
:10548400616E643A20252E2A730A0000252E2A73A1
:1054940020252E2A733A20252E2A730A00000000A4
:1054A40025730A00556E6B6E6F776E20636F6D6D9A
:1054B400616E6420696E766F636174696F6E3A2001
:1054C400252E2A730A0000004552524F523A2045B5
:1054D40078636565646564206E756D626572206FBE
:1054E400662074696D65727320696E207573650A30
:1054F40000000000554E4B4E4F574E00554E55532D
:105504004544000053544F505045440052554E4EAC
:10551400494E4700455850495245440043757272FC
:10552400656E74206D696C6C697365636F6E64205D
:1055340074696D65723D256C750A0000494420202C
:1055440020506572696F6420202053746172742046
:1055540074696D652054696D65206C6566742020DE
:1055640057616E7420526573746172742020537491
:105574006174650A000000002D2D202D2D2D2D2D88
:105584002D2D2D2D2D202D2D2D2D2D2D2D2D2D2D54
:10559400202D2D2D2D2D2D2D2D2D2D202D2D2D2D51
:1055A4002D2D2D2D2D2D2D2D2D202D2D2D2D2D2D34
:1055B4000A000000590000004E00000025326C75FE
:1055C400202531306C75202531306C752025313023
:1055D4006C7520253132732025730A0074696D655A
:1055E4007200000073746174757300005072696E08
:1055F40074732073746174757300000044454255DC
:10560400473A2054696D65727320637265617465ED
:10561400640A00005741524E494E473A204E6F7477
:1056240020616464696E67206E65772064696F2009
:10563400696E707574206173207265616368656456
:10564400206D6178696D756D206E756D6265720A85
:10565400000000005741524E494E473A204E6F74A5
:1056640020616464696E67206E65772064696F20C9
:105674006F757470757420617320726561636865F9
:1056840064206D6178696D756D206E756D626572EB
:105694000A000000496E707574733A0A0000000035
:1056A400202025326C753A20252E2A73203D202592
:1056B4006C640A004F7574707574733A0A000000C4
:1056C400252E2A73203D20256C640A00556E6B6ECE
:1056D4006F776E2064696F206E616D6520252E2AB8
:1056E400730A00004E6F2064696F206E616D65203F
:1056F4007061737365640A00496E76616C69642035
:105704006F75747075742076616C75652070617343
:105714007365642027252E2A73270A004E6F206F95
:1057240075747075742076616C756520706173731F
:1057340065640A004E6F2064696F206F757470751C
:1057440074206E616D65207061737365640A000076
:1057540064696F006765740052657475726E2064C5
:10576400696F20696E666F726D6174696F6E000097
:10577400736574005365742064696F20696E666F85
:10578400726D6174696F6E0044454255473A204416
:10579400696F20696E69740A00000000253038784A
:1057A4003A20000025303878200000002530387871
:1057B4000A000000436F756E74206E6F742073705E
:1057C400656369666965640A00000000496E766174
:1057D4006C696420616464726573732070617373AF
:1057E40065640A004E6F206164647265737320708F
:1057F40061737365640A000057726F746520253005
:10580400327820746F20253038780A0057726F740C
:1058140065202530347820746F20253038780A00CC
:1058240057726F7465202530387820746F202530C6
:1058340038780A0044617461206E6F742073706557
:105844006369666965640A00446174612073697AF6
:1058540065206E6F74207370656369666965640A98
:10586400000000006D656D00726561640000000059
:1058740052656164206D656D6F72792C207573615A
:1058840067653A206D656D2072656164203C6164D2
:1058940064723E203C6E756D2D6C696E65733E00BE
:1058A40077726974650000005772697465206D65CC
:1058B4006D6F72792C2075736167653A206D656D23
:1058C400207772697465203C616464723E203C6296
:1058D400797465733E203C76616C75653E0000000A
:1058E40044454255473A20426C696E6B7920696E93
:1058F40069740A004552524F523A20556E6B6E6FCE
:10590400776E20626C696E6B792073746174650ABA
:10591400000000005741524E494E473A204E6F74E2
:1059240020616464696E67206E657720626C696EBD
:105934006B792061732072656163686564206D61B1
:1059440078696D756D206E756D6265720A00000070
:10595400756172742073746174757320636F6D6DF7
:10596400616E640A00000000494E464F3A204869BF
:105974002066726F6D2074696D6572210A000000E3
:1059840044454255473A20436F6E736F6C652063FC
:105994007265617465640A007561727400000000C8
:1059A4005072696E7473207374617475732C2075EE
:1059B400736167653A200000677265656E5F6C65A8
:1059C400640000007265645F6C6564000020202040
:1059D400202020202020282828282820202020209B
:1059E400202020202020202020202020208810106B
:1059F40010101010101010101010101010040404C7
:105A04000404040404040410101010101010414184
:105A14004141414101010101010101010101010172
:105A24000101010101010101101010101010424286
:105A34004242424202020202020202020202020242
:105A440002020202020202021010101020000000E2
:105A54000000000000000000000000000000000042
:105A64000000000000000000000000000000000032
:105A74000000000000000000000000000000000022
:105A84000000000000000000000000000000000012
:105A94000000000000000000000000000000000002
:105AA40000000000000000000000000000000000F2
:105AB40000000000000000000000000000000000E2
:105AC40000000000000000000000000000000000D2
