:020000040800F2
:100000000000032069130008851B00088B1B0008F3
:10001000911B0008971B00089D1B000800000000B2
:10002000000000000000000000000000A31B00080A
:10003000B11B000800000000BF1B0008CD1B00081A
:10004000B9130008B9130008B9130008B913000860
:10005000B9130008B9130008B9130008B913000850
:10006000B9130008B9130008B9130008B913000840
:10007000B9130008B9130008B9130008B913000830
:10008000B9130008B9130008B9130008B913000820
:10009000B9130008B9130008B9130008B913000810
:1000A000B9130008B9130008B9130008B913000800
:1000B000B9130008B9130008B9130008B9130008F0
:1000C000B9130008B9130008B9130008B9130008E0
:1000D000B9130008B9130008B9130008B9130008D0
:1000E000B9130008B9130008B9130008B9130008C0
:1000F000B9130008B9130008B9130008B9130008B0
:10010000B9130008B9130008B9130008B91300089F
:10011000B9130008B9130008B9130008B91300088F
:10012000B9130008B9130008B9130008B91300087F
:10013000B9130008B9130008B9130008B91300086F
:10014000B9130008B9130008B9130008B91300085F
:10015000B9130008B9130008B9130008B91300084F
:10016000B9130008B9130008B9130008B91300083F
:10017000B9130008B9130008B91300080000000003
:10018000B9130008B9130008B9130008B91300081F
:10019000B9130008B9130008B9130008B91300080F
:0C01A000B9130008B9130008B9130008D7
:1001B0000348044B834202D0034B03B118477047F6
:1001C0007000002070000020000000000548064973
:1001D0000B1AD90F01EBA301491002D0034B03B155
:1001E00018477047700000207000002000000000D9
:1001F00010B5064C237843B9FFF7DAFF044B13B16F
:100200000448AFF300800123237010BD700000206C
:1002100000000000503A000808B5044B1BB1044927
:100220000448AFF30080BDE80840CFE700000000BD
:1002300074000020503A0008014B1868704700BF56
:100240000000002070B50D4E0D4D761BB61006D087
:100250000024013455F8043B9847A642F9D1094ED1
:10026000094D761B03F0F4FBB61006D000240134D0
:1002700055F8043B9847A642F9D170BD603E00088E
:10028000603E0008643E0008603E0008024B0146E4
:10029000186800F0B3B900BF00000020024B01460F
:1002A000186800F055B900BF00000020844641EAFC
:1002B000000313F003036DD1403A41D351F8043BDE
:1002C00040F8043B51F8043B40F8043B51F8043B30
:1002D00040F8043B51F8043B40F8043B51F8043B20
:1002E00040F8043B51F8043B40F8043B51F8043B10
:1002F00040F8043B51F8043B40F8043B51F8043B00
:1003000040F8043B51F8043B40F8043B51F8043BEF
:1003100040F8043B51F8043B40F8043B51F8043BDF
:1003200040F8043B51F8043B40F8043B51F8043BCF
:1003300040F8043B51F8043B40F8043B403ABDD23E
:10034000303211D351F8043B40F8043B51F8043BE0
:1003500040F8043B51F8043B40F8043B51F8043B9F
:1003600040F8043B103AEDD20C3205D351F8043B6F
:1003700040F8043B043AF9D2043208D0D2071CBF3B
:1003800011F8013B00F8013B01D30B880380604664
:10039000704700BF082A13D38B078DD010F00303DA
:1003A0008AD0C3F10403D21ADB071CBF11F8013B4A
:1003B00000F8013B80D331F8023B20F8023B7BE799
:1003C000043AD9D3013A11F8013B00F8013BF9D2C4
:1003D0000B7803704B7843708B788370604670475E
:1003E0008842F0B40DD98B1883420AD9841832B1EF
:1003F000224613F8014D02F8014D9942F9D1F0BCA3
:1004000070470F2A0ED80346541E002AF7D0013435
:100410000C44013B11F8012B03F8012FA142F9D143
:10042000F0BC704740EA01039B073BD1A2F11007E3
:100430003F0901F1200606EB071601F1100300F158
:10044000100453F8105C44F8105C53F80C5C44F84A
:100450000C5C53F8085C44F8085C53F8045C44F8FE
:10046000045C1033B34204F11004EAD17B1C1B017D
:1004700012F00C0F194402F00F05034415D0043D8F
:10048000AD0803EB850C1C1F0E4656F8047B44F8A0
:10049000047F6445F9D10135AD002B44294402F0B5
:1004A0000302B1E7541E0346B1E72A46ACE700BF9A
:1004B000F0B4860746D0541E002A3CD0CAB2034688
:1004C00002E014F1FF3436D303F8012B9D07F8D175
:1004D000032C29D9CDB245EA05250F2C45EA05455F
:1004E00033D9A4F11006360903F1200707EB0617EC
:1004F00003F1100242E9045542E902551032BA42B2
:10050000F8D1721C14F00C0F03EB021204F00F066A
:1005100013D0331F23F003030433134442F8045B66
:100520009342FBD106F003042CB1C9B21C4403F87A
:10053000011B9C42FBD1F0BC704734461346002C93
:10054000F3D1F8E714460346C2E71A462646E0E729
:1005500000293CD038B551F8043C0C1F002BB8BF23
:10056000E418054600F03CFB234B1A682AB1A2426E
:100570000DD921686018824223D0626028461C6031
:10058000BDE8384000F02EBBA34203D81A4653689A
:10059000002BF9D111685018A04219D024D8216835
:1005A0006018834206D0636054602846BDE8384036
:1005B00000F018BBD3E9000301446360216054607C
:1005C000F3E7D2E90002014462602160D6E7704798
:1005D00020680144501883421160E6D1D3E900033A
:1005E000014453601160E0E70C232B602846BDE80E
:1005F000384000F0F7BA00BF8C000020F8B5CD1CE1
:1006000025F0030508350C2D38BF0C25002D0646B6
:1006100033DBA94231D82A4F00F0E2FA3A6852B1EE
:1006200013685B1B04D43FE023685B1B29D522467B
:100630005468002CF8D1796800293BD0294630460F
:1006400000F022FA431C28D0C41C24F00304A0426A
:1006500005D0211A304600F017FA01301DD0256070
:10066000304600F0BFFA04F10B0020F00700231D14
:10067000C21A01D01B1AA350F8BD0C223260002010
:10068000F8BD0B2B05D8A242636811D05360E7E791
:10069000144623601C442560E2E70C233046336097
:1006A00000F0A0FA0020F8BD0B2BF1D853681446D7
:1006B0003B60D5E7304600F0E7F97860BEE700BF61
:1006C0008C0000202DE9F0470C4691460A698968A4
:1006D000DDF820808A42B8BF0A46C9F8002094F8A5
:1006E000431006461F4611B10132C9F800202368A5
:1006F00099065CD5D9F800200232C9F80020236899
:1007000013F0060F19461DD1E1688A1A002AD8BFD6
:10071000194617DD04F1190A002505E0E368D9F848
:1007200000209B1AAB420CDD01235246394630466D
:10073000C047013005F10105F0D14FF0FF30BDE8B1
:10074000F087216894F84330003318BF01238A06EC
:100750000AD5E1185A1C302081F84300224494F84D
:10076000451082F84310023304F143023946304603
:10077000C0470130E1D02368A268216903F0060375
:10078000042B1DD08A4226DD4FF00009521A9144F5
:100790001A34002501E04D451DDA01232246394671
:1007A0003046C047013005F10105F4D1C5E713F02B
:1007B000060F13D094F84330003318BF0123D3E75A
:1007C000D9F80000E3688A42A3EB000323EAE37947
:1007D000DCDC002BDCDC0020BDE8F087E168D9F828
:1007E00000208A1A002AD8BF194693DCAAE700BF66
:1007F0002DE9F0430C46097E85B06E290646174662
:100800000C98984604F1430E6DD039D9732900F045
:10081000F68044D9752900F00481782940F01181CF
:1008200078232268DFF858C284F84530016815063D
:1008300051F8043B016040F1A180D10744BF42F070
:1008400020022260002B00F093801022002184F807
:1008500043106068A0600028C0F2C880216821F0C1
:1008600004012160002B40F0A380002840F0C080EC
:100870007546082A00F0AC80AEEB0503236141E029
:10088000632900F0E5801AD8002938D0582940F0B3
:10089000D88084F845102268DFF8E8C1C6E76F29E0
:1008A00000F0BF80702940F0CC802268DFF8D0C112
:1008B00042F020027823226084F84530B6E76429AC
:1008C00002D0692940F0BD8022680368110603F157
:1008D000040557D5196805600B46002959DBDFF878
:1008E000A4C10A22B5E70368226861691D1D05607D
:1008F00015061B6802D4500600F1BD801960002364
:1009000075462361CDF800803B4603AA2146304658
:10091000FFF7D8FE013020D02A46236939463046F9
:10092000C047013019D022680398E368920719D5AF
:100930001A1A002A16DD04F11909002504E0E368FB
:1009400003981A1AAA420DDD01234A463946304659
:10095000C047013005F10105F1D14FF0FF3005B07E
:10096000BDE8F0839842B8BF184605B0BDE8F083F3
:10097000226822F020022260102267E7500648BF5A
:100980009BB25AE75106A5D5B3F900300560194668
:10099000A3E76168A1602D200029C3F1000384F85A
:1009A000430002DB22F004022260DFF8D8C00A22F2
:1009B000754600E00B46B3FBF2F102FB11309342A7
:1009C0001CF8000005F8010DF4D2082A7FF454AF9A
:1009D0002368DB077FF550AF626823699A423FF7CF
:1009E0004BAF302305F8013C013D45E7002BDFD13B
:1009F0009CF8003084F8423004F1420539E703687E
:100A00006268191D01601D680021284600F098F8F1
:100A1000002832D0401B60602061002384F84330FE
:100A200070E72268036812F0800F03F104051AD002
:100A30001B6805606F290CBF08220A22DFF844C03A
:100A400004E7012384F84210236104F14205E4E73E
:100A500003681A68191D0123016004F1420584F836
:100A600042202361D9E712F0400F0DBF1B680560DB
:100A70001B880560DEE7198041E76068CCE700BFAE
:100A8000303E00081C3E000838B5074C00230546E0
:100A90000846236001F0A0F8431C00D038BD23684D
:100AA000002BFBD02B6038BDBC00002070B5141E9D
:100AB0009AB005462BDB1A464FF40273009104915D
:100AC000ADF80C3013D0013C4FF6FF761E9B02941C
:100AD00069460594ADF80E6000F088F9421C01DA11
:100AE0008B232B60009B00221A701AB070BD1E9BD6
:100AF00002944FF6FF7669460594ADF80E6000F05B
:100B000075F9431C01DA8B232B601AB070BD8B235F
:100B100003604FF0FF30F8E710B5054C82B000934A
:100B200013460A4601462068FFF7C0FF02B010BD19
:100B30000000002000000000000000000000000095
:100B400001F0FF01102A2BDB10F0070F08D010F87E
:100B5000013B013A8B422DD010F0070F42B3F6D182
:100B6000F0B441EA012141EA014122F007047FF09B
:100B700000070023F0E80256083C85EA010586EAF2
:100B8000010685FA47F5A3FA87F586FA47F6A5FA2E
:100B900087F68EB9EED1F0BC01F0FF0102F007023A
:100BA00032B110F8013B013A83EA010313B1F8D1E5
:100BB0000020704701387047002D06BF35460338C6
:100BC000073815F0010F07D1013015F4807F02BFFF
:100BD000013015F4C03F0130F0BC0138704700BF50
:100BE000704700BF704700BF09B3F8B51446CAB1DB
:100BF00006460D4600F034FAA04202D32F4638468E
:100C0000F8BD21463046FFF7F9FC07460028F6D02C
:100C100022462946FFF74AFB30462946FFF798FC53
:100C20003846F8BD2746FFF793FC3846F8BD114615
:100C3000FFF7E4BC2DE9F0478E681D46AE420C4636
:100C40000B68174636D88046888910F4906F0ED10D
:100C5000354618462A463946FFF7C2FBA268236884
:100C6000961B2B44A66023600020BDE8F087D1E9E5
:100C7000041606EB4606A3EB010906EBD6766B1CC1
:100C800076104B44B342324684BF1E46324643057B
:100C900012D511464046FFF7B1FC824600B34A46E2
:100CA0002169FFF703FBA38923F4906343F08003DA
:100CB000A38106E02E46CCE74046FFF795FF82462B
:100CC00050B1A6EB09020AEB09036661C4F810A053
:100CD0002360A2602E46BCE721694046FFF738FC3E
:100CE0000C23C8F80030A38943F04003A3814FF0E0
:100CF000FF30BAE72DE9F04F936883B09046002BA0
:100D00006DD017688D6882460C460868083743E046
:100D1000A38913F4906F2ED0D4E9041505EB450593
:100D2000A0EB010B05EBD5750BEB06006D10013048
:100D3000A8422A4684BF05462A465B0536D5114699
:100D40005046FFF75BFC00283AD05A4621690190D3
:100D5000FFF7ACFAA289019B22F4906242F0800274
:100D6000A281A5EB0B0203EB0B0065612361206000
:100D7000A2603546B3465A464946FFF731FBD8F8DC
:100D80000830A2682068551B58449E1BA56020604F
:100D9000C8F808601EB3083757E90296AB46002E24
:100DA000F9D0AE42B4D23546B346E4E75046FFF739
:100DB0001BFF03460028D4D121695046FFF7C8FB2A
:100DC0000C23CAF80030A389002243F040034FF0FF
:100DD000FF30A381C8E9012203B0BDE8F08F0020F5
:100DE000C8F8040003B0BDE8F08F00BF2DE9F04F54
:100DF00090468A899FB014068B46029003D50A69F3
:100E0000002A00F00B81059330238DF8323098F8DA
:100E100000308E4E002120220B918DF831200127C9
:100E2000002B00F08480252B00F0F680454603E07F
:100E3000252B00F0868025466B786C1C002BF7D1A3
:100E4000B4EB080A73D04246534659460298FFF75E
:100E5000F1FE01306BD00B9B6A7853440B93002A50
:100E600065D000234FF0FF3201340693CDE90833FB
:100E70008DF85B301C93079205E0069A07FA03F39E
:100E800013432C4606932546052215F8011B3046D0
:100E9000FFF756FEAA46831B0028EED1069BD90613
:100EA00044BF20228DF85B2021781A0744BF2B22F3
:100EB0008DF85B202A2948D1059A1168043200294F
:100EC00005927EDB09916178A51C2E2956D0604CD5
:100ED00003222046FFF734FE002868D0001B069B43
:100EE000402404FA00F00343069305F10108297831
:100EF00058488DF830100622FFF722FE002866D0F1
:100F0000554B002B56D005AB00935A46534B0298D5
:100F100006A9AFF300808146B9F1FF3F07D00B9BD4
:100F20004B440B9398F80030002B7FF47CAFBBF858
:100F30000C305B0654BF0B984FF0FF301FB0BDE87C
:100F4000F08FB4EB080A8CD07DE7A1F13002092ABA
:100F500088BFA246B9D8099B01E02C460135297803
:100F600003EB830302EB4303A1F13002092AAA46F3
:100F7000F3D92E2904F102050993A8D19AF801109A
:100F80002A292ED1059B9AF802101A680792043379
:100F9000002A05930AF103050AF1020337DB2C4C02
:100FA000032220469A46FFF7CBFD002896D1A8469B
:100FB00055469CE7059B073323F007030833059349
:100FC000ADE7494243F00203099106937BE705AB85
:100FD00000935A46214B029806A9FFF709FC814667
:100FE0009AE7A1F130020023092A079301D923E0EF
:100FF0005546697803EB830302EB4303A1F130020A
:10100000092A05F1010AF3D9023507935FE74FF08A
:10101000FF329A4607925AE7444622E7402103935B
:10102000FFF7ECFA039BCBF80000CBF8100030B1CF
:101030004022CBF81420E6E6AA46013547E7029A9B
:101040000C2313604FF0FF3078E700BF443E0008E8
:101050004C3E0008503E000800000000350C00081F
:1010600051F8043C181F002BBCBF0B58C018704728
:1010700053B94AB9002908BF00281CBF4FF0FF31FF
:101080004FF0FF3000F06EB9ADF1080C6DE904CE01
:1010900000F006F8DDF804E0DDE9022304B0704753
:1010A0002DE9F047089D04468C46002B40F08380D4
:1010B0008A42174647D9B2FA82F242B1C2F1200001
:1010C00024FA00F09140974040EA010C94404FEA26
:1010D0001748230CBCFBF8F61FFA87FE08FB16C165
:1010E00043EA014306FB0EF1994209D9FB1806F1C8
:1010F000FF3080F01981994240F21681023E3B4454
:101100005B1AA4B2B3FBF8F008FB103344EA0344C3
:1011100000FB0EFEA64509D93C1900F1FF3380F013
:101120000581A64540F2028102383C4440EA06406F
:10113000A4EB0E0400261DB1D4400023C5E90043F2
:101140003146BDE8F08702B9FFDEB2FA82F2002A2A
:1011500050D1CB1B4FEA174E1FFA87F80126B3FB7D
:10116000FEFC210C0EFB1C3341EA034108FB0CF38F
:101170008B4207D979180CF1FF3002D28B4200F272
:10118000E9808446C91AA3B2B1FBFEF00EFB101130
:1011900043EA014408FB00F8A04507D93C1900F1D7
:1011A000FF3302D2A04500F2D9801846A4EB080410
:1011B00040EA0C40BFE78B4209D9002D00F0B18016
:1011C0000026C5E9000130463146BDE8F087B3FA94
:1011D00083F6002E4AD18B4202D3824200F2B880BD
:1011E000841A61EB030101208C46002DA8D0C5E9CB
:1011F000004CA5E7C2F1200320FA03F6974001FA5C
:1012000002F04FEA174ED9403043030CB1FBFEF613
:101210001FFA87F80EFB161143EA014306FB08F19B
:10122000994204FA02F409D9FB1806F1FF3C80F058
:101230008D80994240F28A80023E3B445B1A81B223
:10124000B3FBFEF00EFB103341EA034100FB08F351
:101250008B4207D9791800F1FF3C73D28B4271D9C8
:1012600002383944CB1A40EA064678E7C6F1200C2A
:1012700003FA06F422FA0CF31C4320FA0CF701FAE5
:1012800006F34FEA144E21FA0CF11F433B0CB1FB5D
:10129000FEF91FFA84F80EFB191143EA014109FB1C
:1012A00008FA8A4502FA06F200FA06F308D961182C
:1012B00009F1FF3048D28A4546D9A9F102092144F3
:1012C000A1EB0A01BFB2B1FBFEF00EFB101147EA21
:1012D000014700FB08F8B84507D9E71900F1FF31CD
:1012E0002ED2B8452CD90238274440EA0940A7EB52
:1012F0000807A0FB02894F45C64649461AD317D0B6
:101300005DB1B3EB0E0267EB010707FA0CFCF2408C
:101310004CEA0202F740C5E9002700263146BDE845
:10132000F0872E4628460BE70646E9E61846FDE616
:101330004345E5D2B8EB020E69EB04010138DFE763
:101340000846D2E760468DE78146B9E7664675E70D
:1013500030464AE7ACF1020C394413E702383C440A
:1013600024E700BF704700BFDFF834D00D480E49B6
:101370000E4A002302E0D458C4500433C4188C42EF
:10138000F9D30B4A0B4C002301E013600432A24254
:10139000FBD300F057FCFEF755FF02F01DFA704733
:1013A000000003200000002070000020683E0008BC
:1013B00070000020C0000020FEE780B584B000AFC0
:1013C00078607868FEF762FF0346FB60FB6803F510
:1013D000C872FB681A60FB687A689A60FB6814221E
:1013E000DA60FB6808221A61FB6818461037BD46B0
:1013F00080BD80B48DB000AFF860B9607A60002322
:10140000FB62FB681B697A68934238BF1346BB6274
:10141000FB68DB687B62FB687A6A13443B623B6A69
:101420005A42BB6A5B4213405B42FB61FA693B6A0A
:10143000D31ABB617A6ABB691A44BB681A44FB6859
:101440009B689A4210D8FB687B617A6ABB69134437
:101450007A691344FB627A6ABB691344BA6813441D
:101460003B61FB683A69DA60FB6A18463437BD466F
:101470005DF8047B704780B582B000AF786039605A
:101480007B681B691A4639687868FFF7B2FF034624
:1014900018460837BD4680BD80B584B000AF78607F
:1014A000396039687868FFF7E6FFF8603A6800212C
:1014B000F868FEF7FDFFFB6818461037BD4680BD93
:1014C00080B485B000AF786039603B68142B38BFBA
:1014D0001423FB607B68DB68FA689A4202D27B685F
:1014E000FA68DA6000BF1437BD465DF8047B7047C8
:1014F00080B584B000AF78600023FB600AE07868B4
:10150000FFF75BFF02460749FB6841F82320FB68B1
:101510000133FB60FB68012BF1D900BF00BF10371E
:10152000BD4680BD9400002080B48BB000AFF86051
:10153000B9607A6007F1140300221A605A60002330
:101540007B6228E000233B62BB68FB610DE0FB6926
:101550001A6819497B6A51F823309A4202D1012353
:101560003B6209E0FB690433FB617B689B00BA685E
:101570001344FA699A42EAD33B6A002B08D10E4A17
:101580007B6A52F823307B617B69DB68BB6105E0D5
:101590007B6A01337B627B6A012BD3D9FB681A46D5
:1015A00007F1140393E8030082E80300F8682C377E
:1015B000BD465DF8047B70479400002080B582B082
:1015C00000AF3B4683E803003B687A681146184643
:1015D000FFF776FF00BF0837BD4680BD80B487B0F7
:1015E00000AFF860B9607A6007F1100300221A605A
:1015F0005A60BB683B617B687B61FB681A4607F1F8
:10160000100393E8030082E80300F8681C37BD4626
:101610005DF8047B704780B487B000AFF860381D78
:1016200080E806003B60BB683A6A9A4201D9BB6811
:101630003B62BB683A689A4201D9BB683B603A6832
:101640003B6A9A4205D93B687B613B6A3B607B6998
:101650003B623A6A3B68D31ABB607A683B681344C2
:101660007B60FB681A463B1D93E8030082E8030099
:10167000F8681C37BD465DF8047B704780B586B0BE
:1016800002AFF860381D80E806003B60F8683B68F0
:10169000009300233A1D06CAFFF7BDFFF868103714
:1016A000BD4680BD90B488B000AF07F1080484E85F
:1016B0000300394681E80C000023FB61FA687B686F
:1016C0009A4204D0BB6A03F01003002B56D00123CA
:1016D000FB610023BB6149E0BA68BB6913441A7817
:1016E0003968BB690B441B789A420CBF0123002365
:1016F000DBB27B61BB6A03F02003002B2DD0BA68FC
:10170000BB6913441B78FB74FB7C01331E4A1344F2
:101710001B7803F00303012B03D1FB7C03F12002B0
:1017200000E0FA7C3968BB690B441B78BB74BB7C56
:10173000013315490B441B7803F00303012B02D13D
:10174000BB7C203300E0BB7C9A420CBF012300230A
:10175000DBB21A467B6913437B617B69002B02D1A4
:101760000023FB610AE0BB690133BB61FB68BA6916
:101770009A4203D27B68BA699A42ADD3FB69184694
:101780002037BD4690BC7047A03C000880B588B0AB
:1017900000AFF860B9607A603B6007F11403002283
:1017A0001A605A603B687A6800210020FFF7B4F99C
:1017B00003460133FB61F969B868FFF75CFE034635
:1017C0007B61FB69013BBB617A69FB69013B1344A7
:1017D00000221A7078693B687A68F969FFF79CF90A
:1017E000FB681A4607F1140393E8030082E803003C
:1017F000F8682037BD4680BD80B586B000AFF86080
:10180000B960394681E80C000C21F868FFF744FE06
:1018100078617B6904333A4692E8030083E8030069
:10182000BB681B68002B0AD1BB687A695A60BB6829
:101830005A68BB681A607B6900221A6009E0BB68BD
:101840005B687A691A60BB687A695A607B690022B2
:101850001A60BB689B685A1CBB689A60BB68DA68F0
:101860007B681A44BB68DA6000BF1837BD4680BD8C
:1018700090B593B000AFF860B960394681E80C00CC
:1018800007F1200300221A605A609A60DA60002390
:101890007B6400233B648AE00023FB630023BB637B
:1018A00061E000237B63BB6BDB00BA6D13445A68B5
:1018B0003B6C1A447B689A4228D801237B6300233F
:1018C0003B6315E0BB6BDB00BA6D13441A683B6BDE
:1018D00013441A783968386C3B6B03440B441B780B
:1018E0009A4202D000237B6310E03B6B01333B63E1
:1018F000BB6BDB00BA6D13445B683A6B9A4205D24E
:101900003A6C3B6B1A447B689A42DBD37B6B002BAF
:1019100026D03A687B6CD1183A6C7B6CD21A07F1EE
:1019200018031846FFF75AFE07F1200107F11803C4
:101930000CCBB868FFF760FFBB6BDB00BA6D1344DC
:101940005B683A6C13447B64BB6BDB00BA6D134479
:101950005A683B6C1344013B3B640123FB6306E084
:10196000BB6B0133BB63BA6BFB6D9A4299DBFB6BBC
:10197000002B19D17B68013B3A6C9A4214D13A682A
:101980007B6CD1183A6C7B6CD31A5A1C07F110038C
:101990001846FFF723FE07F1200107F110030CCBD7
:1019A000B868FFF729FF07E03B6C01333B647B68B5
:1019B0003A6C9A42FFF470AFFB681C4607F12003B3
:1019C0000FCB84E80F00F8684C37BD4690BD00008F
:1019D00080B485B000AF78607B6803F00703FB60DC
:1019E0000C4BDB68BB60BA684FF6FF031340BB606B
:1019F000FB681A02BB68134343F0BF6343F4003330
:101A0000BB60044ABB68D36000BF1437BD465DF8B5
:101A1000047B704700ED00E080B400AF044BDB684E
:101A20001B0A03F007031846BD465DF8047B7047A8
:101A300000ED00E080B483B000AF03463960FB7175
:101A400097F90730002B0ADB3B68DAB20C4997F9AB
:101A500007301201D2B20B4483F800230AE03B683E
:101A6000DAB20849FB7903F00F03043B1201D2B24A
:101A70000B441A7600BF0C37BD465DF8047B7047F7
:101A800000E100E000ED00E080B489B000AFF86054
:101A9000B9607A60FB6803F00703FB61FB69C3F17F
:101AA0000703042B28BF0423BB61FB690433062B07
:101AB00002D9FB69033B00E000237B614FF0FF325A
:101AC000BB6902FA03F3DA43BB681A407B699A40A8
:101AD0004FF0FF317B6901FA03F3D9437B680B4078
:101AE000134318462437BD465DF8047B7047000059
:101AF00080B582B000AF78607B68013BB3F1807F36
:101B000001D301230FE00A4A7B68013B53600F2198
:101B10004FF0FF30FFF78EFF054B00229A60044B19
:101B200007221A60002318460837BD4680BD00BF53
:101B300010E000E080B483B000AF00237B60104B66
:101B40005B6C0F4A43F4804353640D4B5B6C03F4AE
:101B500080437B607B6800233B60094B1B6C084A19
:101B600043F080531364064B1B6C03F080533B60BF
:101B70003B6800BF0C37BD465DF8047B704700BF73
:101B80000038024080B400AFFEE780B400AFFEE74B
:101B900080B400AFFEE780B400AFFEE780B400AFD2
:101BA000FEE780B400AF00BFBD465DF8047B704720
:101BB00080B400AF00BFBD465DF8047B704780B4C1
:101BC00000AF00BFBD465DF8047B704780B500AF35
:101BD00000F07AF800BF80BD80B586B000AF7860B5
:101BE000144A154BD31A7B617B693B61134B1B680D
:101BF000002B02D1114B124A1A60104B1A687B68F5
:101C000013443A699A4207D2FEF716FB03460C22A8
:101C10001A604FF0FF3309E0084B1B68FB60074B6D
:101C20001A687B681344054A1360FB681846183726
:101C3000BD4680BD00000320000400009C00002081
:101C4000C000002080B400AF064BD3F88830054AAE
:101C500043F47003C2F8883000BFBD465DF8047BD2
:101C6000704700BF00ED00E080B582B000AF786043
:101C7000124B1A68124B1B7819464FF47A73B3FB58
:101C8000F1F3B2FBF3F3184600F065F80346002BBE
:101C900001D001230EE07B680F2B0AD8002279685F
:101CA0004FF0FF3000F03BF8064A7B6813600023DA
:101CB00000E0012318460837BD4680BD64000020BF
:101CC0006C0000206800002080B400AF064B1B7839
:101CD0001A46064B1B681344044A136000BFBD46F6
:101CE0005DF8047B704700BF6C000020A00000205E
:101CF00080B400AF034B1B681846BD465DF8047BFB
:101D0000704700BFA000002080B582B000AF7860AF
:101D10007868FFF75DFE00BF0837BD4680BD80B51F
:101D200086B000AF0346B9607A60FB7300237B6125
:101D3000FFF772FE78617A68B9687869FFF7A4FEE8
:101D4000024697F90F3011461846FFF773FE00BFA1
:101D50001837BD4680BD80B582B000AF7860786826
:101D6000FFF7C6FE034618460837BD4680BD000093
:101D700080B586B000AF78607B68002B01D101236D
:101D800064E27B681B6803F00103002B75D0A34B52
:101D90009B6803F00C03042B0CD0A04B9B6803F052
:101DA0000C03082B12D19D4B5B6803F48003B3F541
:101DB000800F0BD1994B1B6803F40033002B5BD0D1
:101DC0007B685B68002B57D101233FE27B685B682F
:101DD000B3F5803F06D1914B1B68904A43F48033A2
:101DE00013601DE07B685B68B3F5A02F0CD18B4BB3
:101DF0001B688A4A43F480231360884B1B68874A18
:101E000043F4803313600BE0844B1B68834A23F454
:101E100080331360814B1B68804A23F48023136056
:101E20007B685B68002B13D0FFF762FF386108E026
:101E3000FFF75EFF02463B69D31A642B01D90323E7
:101E400004E2764B1B6803F40033002BF0D014E05F
:101E5000FFF74EFF386108E0FFF74AFF02463B6993
:101E6000D31A642B01D90323F0E16C4B1B6803F4F4
:101E70000033002BF0D100E000BF7B681B6803F04B
:101E80000203002B63D0654B9B6803F00C03002B0F
:101E90000BD0624B9B6803F00C03082B1CD15F4BEB
:101EA0005B6803F48003002B16D15C4B1B6803F0C6
:101EB0000203002B05D07B68DB68012B01D00123D6
:101EC000C4E1564B1B6823F0F8027B681B69DB00FA
:101ED000524913430B603AE07B68DB68002B20D04B
:101EE0004F4B01221A60FFF703FF386108E0FFF74C
:101EF000FFFE02463B69D31A022B01D90323A5E159
:101F0000464B1B6803F00203002BF0D0434B1B68C9
:101F100023F0F8027B681B69DB00404913430B6028
:101F200015E03F4B00221A60FFF7E2FE386108E03F
:101F3000FFF7DEFE02463B69D31A022B01D90323C9
:101F400084E1364B1B6803F00203002BF0D17B6861
:101F50001B6803F00803002B30D07B685B69002B03
:101F600016D0304B01221A60FFF7C2FE386108E03C
:101F7000FFF7BEFE02463B69D31A022B01D90323A9
:101F800064E1264B5B6F03F00203002BF0D015E0F9
:101F9000244B00221A60FFF7ABFE386108E0FFF720
:101FA000A7FE02463B69D31A022B01D903234DE158
:101FB0001A4B5B6F03F00203002BF0D17B681B68A8
:101FC00003F00403002B00F0A0800023FB75134BEB
:101FD0001B6C03F08053002B0FD10023BB600F4B11
:101FE0001B6C0E4A43F0805313640C4B1B6C03F0C4
:101FF0008053BB60BB680123FB750B4B1B6803F46C
:102000008073002B21D1084B1B68074A43F480736F
:102010001360FFF76DFE386111E000BF0038024029
:1020200000004742800E474200700040FFF760FE0C
:1020300002463B69D31A022B01D9032306E1854BE3
:102040001B6803F48073002BF0D07B689B68012B26
:1020500006D1814B1B6F804A43F0010313671CE0DC
:102060007B689B68052B0CD17B4B1B6F7A4A43F036
:1020700004031367784B1B6F774A43F00103136720
:102080000BE0754B1B6F744A23F001031367724B0F
:102090001B6F714A23F0040313677B689B68002B56
:1020A00015D0FFF725FE38610AE0FFF721FE024652
:1020B0003B69D31A41F28832934201D90323C5E028
:1020C000654B1B6F03F00203002BEED014E0FFF70B
:1020D0000FFE38610AE0FFF70BFE02463B69D31A98
:1020E00041F28832934201D90323AFE05A4B1B6F70
:1020F00003F00203002BEED1FB7D012B05D1564BE3
:102100001B6C554A23F0805313647B689B69002B3A
:1021100000F09B80504B9B6803F00C03082B5CD0B5
:102120007B689B69022B41D14C4B00221A60FFF760
:10213000DFFD386108E0FFF7DBFD02463B69D31A9B
:10214000022B01D9032381E0434B1B6803F000738A
:10215000002BF0D17B68DA697B681B6A1A437B68C5
:102160005B6A9B011A437B689B6A5B08013B1B040B
:102170001A437B68DB6A1B06374913434B60374BB6
:1021800001221A60FFF7B4FD386108E0FFF7B0FDE7
:1021900002463B69D31A022B01D9032356E02E4B8A
:1021A0001B6803F00073002BF0D04EE02B4B002295
:1021B0001A60FFF79DFD386108E0FFF799FD0246C0
:1021C0003B69D31A022B01D903233FE0224B1B6842
:1021D00003F00073002BF0D137E07B689B69012B83
:1021E00001D1012332E01C4B5B68FB607B689B697B
:1021F000012B28D0FB6803F480027B68DB699A42DC
:1022000021D1FB6803F03F027B681B6A9A421AD116
:10221000FA6847F6C07313407A68526A9201934293
:1022200011D1FB6803F440327B689B6A5B08013B79
:102230001B049A4207D1FB6803F070627B68DB6A7B
:102240001B069A4201D0012300E0002318461837EC
:10225000BD4680BD0070004000380240600047422B
:1022600080B584B000AF786039607B68002B01D105
:102270000123CCE0684B1B6803F00F033A689A42D5
:102280000CD9654B3A68D2B21A70634B1B6803F0E5
:102290000F033A689A4201D00123B8E07B681B68BB
:1022A00003F00203002B20D07B681B6803F00403BB
:1022B000002B05D0594B9B68584A43F4E053936078
:1022C0007B681B6803F00803002B05D0534B9B6809
:1022D000524A43F460439360504B9B6823F0F002F2
:1022E0007B689B684D4913438B607B681B6803F0D8
:1022F0000103002B44D07B685B68012B07D1474B5F
:102300001B6803F40033002B19D101237FE07B68A5
:102310005B68022B03D07B685B68032B07D13F4BC4
:102320001B6803F00073002B09D101236FE03B4BC6
:102330001B6803F00203002B01D1012367E0374B38
:102340009B6823F003027B685B68344913438B600E
:10235000FFF7CEFCF8600AE0FFF7CAFC0246FB6814
:10236000D31A41F28832934201D903234FE02B4B19
:102370009B6803F00C027B685B689B009A42EBD180
:10238000254B1B6803F00F033A689A420CD2224B8C
:102390003A68D2B21A70204B1B6803F00F033A68F8
:1023A0009A4201D0012332E07B681B6803F00403EA
:1023B000002B08D0194B9B6823F4E0527B68DB6844
:1023C000164913438B607B681B6803F00803002BDE
:1023D00009D0124B9B6823F460427B681B69DB00C9
:1023E0000E4913438B6000F021F802460B4B9B68AB
:1023F0001B0903F00F030A49CB5C22FA03F3094AD5
:102400001360094B1B681846FFF72EFC0023184683
:102410001037BD4680BD00BF003C0240003802407E
:10242000043E000864000020680000202DE9B0434D
:1024300084B000AF00237B600023FB6000233B607F
:102440000023BB60674B9B6803F00C03082B0DD087
:10245000082B00F2BD80002B02D0042B03D0B7E084
:10246000614BBB60B7E0614BBB60B4E05D4B5B6848
:1024700003F03F037B605B4B5B6803F48003002B3E
:102480004DD0584B5B689B091A464FF0000340F251
:10249000FF104FF0000102EA000803EA010940467C
:1024A00049464FF000024FF000034B0143EAD0636E
:1024B000420110461946B0EB080061EB09014FF0EC
:1024C00000024FF000038B0143EA90638201121A6D
:1024D00063EB01034FF000004FF00001D90041EA27
:1024E0005271D00002460B4612EB080243EB09037F
:1024F0004FF000004FF00001590241EAD251500262
:1025000002460B46104619467B681A464FF00003F8
:10251000FEF7AEFD02460B461346FB604AE0314B28
:102520005B689B091A464FF0000340F2FF104FF022
:10253000000102EA000403EA0105204629464FF0A3
:1025400000024FF000034B0143EAD0634201104602
:102550001946001B61EB05014FF000024FF000032C
:102560008B0143EA90638201121A63EB01034FF07F
:1025700000004FF00001D90041EA5271D00002463C
:102580000B46121945EB03034FF000004FF000011A
:10259000990241EA9251900202460B4610461946B2
:1025A0007B681A464FF00003FEF762FD02460B46B9
:1025B0001346FB600B4B5B681B0C03F003030133FA
:1025C0005B003B60FA683B68B2FBF3F3BB6002E080
:1025D000054BBB6000BFBB6818461037BD46BDE861
:1025E000B08300BF003802400024F40000127A00DB
:1025F00080B400AF034B1B681846BD465DF8047BF2
:10260000704700BF6400002080B500AFFFF7F0FF07
:102610000246054B9B689B0A03F007030349CB5C0A
:1026200022FA03F3184680BD00380240143E000829
:1026300080B500AFFFF7DCFF0246054B9B685B0BE4
:1026400003F007030349CB5C22FA03F3184680BD6D
:1026500000380240143E000880B489B000AF7860B2
:10266000396000237B6100233B610023BB610023B1
:10267000FB6177E10122FB6902FA03F37B613B68AE
:102680001B687A6913403B613A697B699A4240F062
:1026900066813B685B6803F00303012B05D03B6850
:1026A0005B6803F00303022B30D17B689B68BB613E
:1026B000FB695B00032202FA03F3DB43BA691340B0
:1026C000BB613B68DA68FB695B0002FA03F3BA6935
:1026D0001343BB617B68BA699A607B685B68BB61C6
:1026E0000122FB6902FA03F3DB43BA691340BB61C1
:1026F0003B685B681B0903F00102FB6902FA03F304
:10270000BA691343BB617B68BA695A603B685B680E
:1027100003F00303032B17D07B68DB68BB61FB6905
:102720005B00032202FA03F3DB43BA691340BB6187
:102730003B689A68FB695B0002FA03F3BA691343CA
:10274000BB617B68BA69DA603B685B6803F00303CE
:10275000022B23D1FB69DA087B68083253F8223058
:10276000BB61FB6903F007039B000F2202FA03F32E
:10277000DB43BA691340BB613B681A69FB6903F02C
:1027800007039B0002FA03F3BA691343BB61FB69B9
:10279000DA087B680832B96943F822107B681B6845
:1027A000BB61FB695B00032202FA03F3DB43BA69F6
:1027B0001340BB613B685B6803F00302FB695B008D
:1027C00002FA03F3BA691343BB617B68BA691A6002
:1027D0003B685B6803F44033002B00F0C0800023AB
:1027E000FB60664B5B6C654A43F480435364634B08
:1027F0005B6C03F48043FB60FB68614AFB699B08E8
:10280000023352F82330BB61FB6903F003039B00E2
:102810000F2202FA03F3DB43BA691340BB617B6802
:10282000584A934237D07B68574A934231D07B68ED
:10283000564A93422BD07B68554A934225D07B68F9
:10284000544A93421FD07B68534A934219D07B6805
:10285000524A934213D07B68514A93420DD07B6811
:10286000504A934207D07B684F4A934201D10923D3
:1028700012E00A2310E008230EE007230CE00623F1
:102880000AE0052308E0042306E0032304E0022312
:1028900002E0012300E00023FA6902F00302920043
:1028A0009340BA691343BB613549FB699B08023306
:1028B000BA6941F823203D4B9B68BB613B69DB4310
:1028C000BA691340BB613B685B6803F48013002B5B
:1028D00003D0BA693B691343BB61344ABB69936057
:1028E000324BDB68BB613B69DB43BA691340BB61B8
:1028F0003B685B6803F40013002B03D0BA693B69A3
:102900001343BB61294ABB69D360284B5B68BB6139
:102910003B69DB43BA691340BB613B685B6803F406
:102920000033002B03D0BA693B691343BB611F4AD4
:10293000BB6953601D4B1B68BB613B69DB43BA69D4
:102940001340BB613B685B6803F48033002B03D00A
:10295000BA693B691343BB61144ABB691360FB69E5
:102960000133FB61FB690F2B7FF684AE00BF00BF14
:102970002437BD465DF8047B704700BF0038024035
:1029800000380140000002400004024000080240FC
:10299000000C0240001002400014024000180240E7
:1029A000001C02400020024000240240003C014084
:1029B00080B582B000AF78607B68002B01D1012325
:1029C0003FE07B6893F83D30DBB2002B06D17B689B
:1029D000002283F83C20786800F037F87B682422D6
:1029E00083F83D207B681B68DA687B681B6822F4EB
:1029F0000052DA60786800F0D5F97B681B681A69C4
:102A00007B681B6822F490421A617B681B685A69D4
:102A10007B681B6822F02A025A617B681B68DA68AF
:102A20007B681B6842F40052DA607B6800221A64FB
:102A30007B68202283F83D207B68202283F83E209B
:102A4000002318460837BD4680BD80B483B000AF70
:102A5000786000BF0C37BD465DF8047B704780B5D9
:102A60008AB002AFF860B9603B601346FB80002378
:102A70007B61FB6893F83D30DBB2202B7CD1BB68D7
:102A8000002B02D0FB88002B01D1012375E0FB68ED
:102A900093F83C30012B01D102236EE0FB68012248
:102AA00083F83C20FB6800221A64FB68212283F82B
:102AB0003D20FFF71DF97861FB68FA889A84FB686E
:102AC000FA88DA84FB689B68B3F5805F08D1FB68FD
:102AD0001B69002B04D10023FB61BB68BB6103E0D1
:102AE000BB68FB610023BB61FB68002283F83C20CC
:102AF0002AE03B6800937B6900228021F86800F09F
:102B0000E2F80346002B01D0032336E0FB69002BDB
:102B10000BD1BB691B881A46FB681B68C2F308020D
:102B20005A60BB690233BB6107E0FB691A78FB6836
:102B30001B685A60FB690133FB61FB68DB8C9BB24D
:102B4000013B9AB2FB68DA84FB68DB8C9BB2002BFA
:102B5000CFD13B6800937B6900224021F86800F0E8
:102B6000B2F80346002B01D0032306E0FB682022C5
:102B700083F83D20002300E0022318462037BD469D
:102B800080BD80B58AB002AFF860B9603B60134683
:102B9000FB8000237B61FB6893F83E30DBB2202B87
:102BA00040F08C80BB68002B02D0FB88002B01D149
:102BB000012384E0FB6893F83C30012B01D1022310
:102BC0007DE0FB68012283F83C20FB6800221A6448
:102BD000FB68222283F83E20FB6800221A63FFF77D
:102BE00087F87861FB68FA889A85FB68FA88DA8545
:102BF000FB689B68B3F5805F08D1FB681B69002BFD
:102C000004D10023FB61BB68BB6103E0BB68FB61CF
:102C10000023BB61FB68002283F83C2043E03B6853
:102C200000937B6900222021F86800F04CF80346ED
:102C3000002B01D0032342E0FB69002B0CD1FB6881
:102C40001B685B689BB2C3F308039AB2BB691A8026
:102C5000BB690233BB611FE0FB689B68B3F5805F13
:102C600007D0FB689B68002B0AD1FB681B69002B0F
:102C700006D1FB681B685B68DAB2FB691A7008E072
:102C8000FB681B685B68DBB203F07F03DAB2FB69A9
:102C90001A70FB690133FB61FB68DB8D9BB2013B62
:102CA0009AB2FB68DA85FB68DB8D9BB2002BB6D14C
:102CB000FB68202283F83E20002300E00223184610
:102CC0002037BD4680BD80B590B000AFF860B960D8
:102CD0003B601346FB7150E0BB6CB3F1FF3F4CD03F
:102CE000BB6C002B07D0FFF703F802463B68D31AF2
:102CF000BA6C9A4241D2FB681B680C33BB62BB6A58
:102D000053E8003F7B627B6A23F4D073FB63FB686C
:102D10001B680C33FA6B7A633B63396B7A6B41E85F
:102D20000023FB62FB6A002BE5D1FB681B681433B0
:102D30007B617B6953E8003F3B613B6923F0010302
:102D4000BB63FB681B681433BA6B3A62FB61F969B9
:102D50003A6A41E80023BB61BB69002BE5D1FB68FF
:102D6000202283F83D20FB68202283F83E20FB6868
:102D7000002283F83C2003230FE0FB681B681A68DD
:102D8000BB681340BA689A420CBF01230023DBB230
:102D90001A46FB799A429FD0002318464037BD4619
:102DA00080BD00002DE9F04F9FB000AFF866FB6ECC
:102DB0001B681B6923F44050FB6ED968FB6E1A68D0
:102DC00040EA01031361FB6E9A68FB6E1B691A43AC
:102DD000FB6E5B691A43FB6EDB6913433B67FB6E5B
:102DE0001B68DB6823F4164121F00C01FB6E1A68A6
:102DF0003B6F0B43D360FB6E1B685B6923F4407031
:102E0000FB6E9969FB6E1A6840EA01035361FB6E21
:102E10001A68C54B9A4204D0FB6E1A68C34B9A429B
:102E200003D1FFF705FC786702E0FFF7EDFB786759
:102E3000FB6EDB69B3F5004F40F0B6807B6F1C463C
:102E40004FF0000522462B46911839645B417B64A4
:102E5000D7E91023121945EB03034FF000004FF0A0
:102E60000001D90041EA5271D00002460B46111907
:102E700039666B417B66FB6E5B681A464FF0000358
:102E80009118B9635B41FB63D7E90E23D7E91801B9
:102E9000FEF7EEF802460B46A54BA3FB02235B09A7
:102EA0001E017B6F1C464FF0000522462B469118F1
:102EB00039635B417B63D7E90C23121945EB0303AC
:102EC0004FF000004FF00001D90041EA5271D000EC
:102ED00002460B461119B9656B41FB65FB6E5B68D9
:102EE0001A464FF000039118B9625B41FB62D7E9C3
:102EF0000A23D7E91601FEF7BBF802460B468C4BB6
:102F0000A3FB02135B09642101FB03F3D31ADB006B
:102F10003233874AA2FB03235B095B0003F4F87397
:102F20001E447B6F18464FF0000102460B46941872
:102F30003C625B417B62D7E90823121841EB030333
:102F40004FF000044FF00005DD0045EA5275D40053
:102F500022462B4614183C654B417B65FB6E5B6833
:102F60001A464FF000039118B9615B41FB61D7E944
:102F70000623D7E91401FEF77BF802460B466C4B9B
:102F8000A3FB02135B09642101FB03F3D31ADB00EB
:102F90003233674AA2FB03235B0903F00702FB6E8F
:102FA0001B6832449A60B9E07B6F1C464FF0000505
:102FB00022462B46911839615B417B61D7E9042396
:102FC000121945EB03034FF000004FF00001D90048
:102FD00041EA5271D00002460B4612EB040843EB63
:102FE0000509FB6E5B6818464FF000014FF00002C8
:102FF0004FF000038B0043EA90738200404649463D
:10300000FEF736F802460B46494BA3FB02235B0949
:103010001E017B6F18464FF0000102460B469418C4
:10302000BC605B41FB60D7E90223121841EB03034C
:103030004FF000044FF00005DD0045EA5275D40062
:1030400022462B461418BC644B41FB64FB6E5B6844
:1030500018464FF000014FF000024FF000038B00C4
:1030600043EA90738200D7E91201FEF701F80246A5
:103070000B462F4BA3FB02135B09642101FB03F3F7
:10308000D31A1B0132332A4AA2FB03235B0903F044
:10309000F0031E447B6F18464FF0000102460B46BA
:1030A00094183C605B417B60D7E90023121841EB28
:1030B00003034FF000044FF00005DD0045EA5275B0
:1030C000D40022462B4612EB000A43EB010BFB6EA9
:1030D0005B6818464FF000014FF000024FF000030C
:1030E0008B0043EA9073820050465946FDF7C0FFBB
:1030F00002460B460E4BA3FB02135B09642101FB46
:1031000003F3D31A1B013233094AA2FB03235B09E1
:1031100003F00F02FB6E1B6832449A6000BF7C37DD
:10312000BD46BDE8F08F00BF001001400014014013
:103130001F85EB5180B596B000AF00237B65434BF4
:103140001B68424A43F400731360404B1B683F4ABC
:1031500043F4806313603D4B1B683C4A43F4807327
:1031600013600320FEF7D0FD0020FEF77DFDFEF783
:10317000E1FC07F12403302200211846FDF798F9FD
:1031800007F1100300221A605A609A60DA601A612F
:103190000023FB602E4B1B6C2D4A43F080531364BD
:1031A0002B4B1B6C03F08053FB60FB680023BB6060
:1031B000284B1B6823F44043264A43F480431360A2
:1031C000244B1B6803F44043BB60BB6802237B6253
:1031D00001233B6310237B630023FB6307F124037C
:1031E0001846FEF7C5FD0346002B27D10F233B6190
:1031F00000237B610023BB614FF48053FB610023FC
:103200003B6207F1100300211846FFF729F8034637
:10321000002B10D100237B600D4B1B6B0C4A43F03D
:10322000080313630A4B1B6B03F008037B607B6886
:1032300001237B6504E000237B6501E000237B65BF
:103240007B6D18465837BD4680BD00BF003C02402C
:103250000038024000700040B0B5A2B000AF786006
:10326000396007F13C03482200211846FDF720F998
:1032700007F1280300221A605A609A60DA601A6126
:103280003B685B68BB620223FB6201233B63032351
:103290007B633B689B68BB633B68DB6807F1280284
:1032A00011461846FFF7D8F93B681B68BB6202233A
:1032B000FB6201233B6303237B633B689B68BB6327
:1032C0003B68DB6807F1280211461846FFF7C4F98E
:1032D0000023BB60284B1B6C274A43F480231364F4
:1032E000254B1B6C03F48023BB60BB6807F10C0308
:1032F00000221A605A609A60DA601A615A619A6113
:103300003B681B69FB6000233B6100237B6100235A
:10331000BB610C23FB6100233B6200237B623B68A3
:103320005B69FB6307F1400407F10C050FCD0FC487
:1033300095E8070084E8070007F13C031846FFF70B
:1033400037FB034687F8873097F88730002B03D088
:103350000023C7F8803002E00123C7F880307B6883
:10336000184607F13C0348221946FCF79FFF78688E
:103370008837BD46B0BD00BF0038024080B485B07C
:1033800000AF7860144BFB607B68042B1BD801A254
:1033900052F823F0A9330008AF330008B533000812
:1033A000BB330008C13300080C4BFB600CE00C4B36
:1033B000FB6009E00B4BFB6006E00B4BFB6003E09E
:1033C0000A4BFB6000E000BFFB6818461437BD469F
:1033D0005DF8047B704700BFC43A0008CC3A00088F
:1033E000D43A0008DC3A0008E43A0008EC3A000855
:1033F0000FB480B586B000AF07F124033B6107F13D
:103400000803002200211846FEF78EF8B9683846F6
:103410003B693A6AFEF7BAF90B4B586939687B6821
:103420009AB24FF4FA73FFF71AFB0346FB7507F1E4
:10343000080393E80300FEF7C1F800BF1837BD4644
:10344000BDE8804004B07047A400002080B588B07B
:1034500000AF7860396007F114030022002118469C
:10346000FEF762F8796907F10C003B687A68FEF7AD
:103470008DF9074B5869F9683B699AB24FF4FA73B2
:10348000FFF7EDFA0346FB7700BF2037BD4680BD4E
:10349000A40000200FB480B582B000AF07F1140380
:1034A0003B60FEF725FC78607B680E4AA2FB032395
:1034B00099097A680B4BA3FB02039B094FF47A70BE
:1034C00000FB03F3D31A1A460748FFF791FF396848
:1034D0003869FFF7BBFF00BF0837BD46BDE8804035
:1034E00004B07047D34D6210F43A000880B59AB02A
:1034F00002AF3B4683E8030007F118030122984915
:103500001846FEF76BF8974B196907F1080001237D
:10351000019307F1180300933B460CCBFEF7A8F983
:10352000BB687B653B69012B40F0CA807B6D5B68A3
:103530001B783F2B03D18C48FFF75AFF0CE17B6DC2
:103540005B681B782B2B06D1864B01221A608748BB
:10355000FFF74EFF00E17B6D5B681B782D2B06D1DA
:10356000804B00221A608248FFF742FFF4E07B6D37
:103570005B681B782A2B12D17A4B5B681846FFF7E1
:10358000FDFEB864774B1B68002B01D0794B00E03F
:10359000794B1A46B96C7948FFF72AFFDCE007F14E
:1035A0002003052276491846FEF718F8796D202386
:1035B000009307F120030CCB043103C9FEF772F826
:1035C0000346002B06D0674B00225A606D48FFF778
:1035D0000FFFC1E007F1280307226B491846FDF7EA
:1035E000FDFF796D2023009307F128030CCB0431F4
:1035F00003C9FEF757F80346002B06D0594B0122AA
:103600005A606248FFF7F4FEA6E007F13003042297
:103610005F491846FDF7E2FF796D2023009307F11B
:1036200030030CCB043103C9FEF73CF80346002BF2
:1036300006D04C4B02225A605648FFF7D9FE8BE069
:1036400007F13803052254491846FDF7C7FF796D85
:103650002023009307F138030CCB043103C9FEF794
:1036600021F80346002B06D03E4B03225A604B48FC
:10367000FFF7BEFE70E007F14003072248491846F5
:10368000FDF7ACFF796D2023009307F140030CCBCD
:10369000043103C9FEF706F80346002B06D0314B70
:1036A00004225A603F48FFF7A3FE55E07B6D9B68FC
:1036B00019467B6D5B681A463B48FFF799FE4BE065
:1036C0007B6D1B683B653B6D1B68FB64254B9B68F2
:1036D000FB6535E0FB6D796D2022009204330CCB45
:1036E000043103C9FDF7DEFF0346002B25D0FB6D37
:1036F000DB68BB651EE0BB6D396D20220092043390
:103700000CCB043103C9FDF7CDFF0346002B0ED0CF
:10371000BB6D5B69F86C98470346002B1BD1BB6DF2
:103720000C3393E806002148FFF762FE14E0BB6DFE
:103730001B68BB65BB6D002BDDD1FB6D1B68FB659A
:10374000FB6D002BC6D17B6819463B681A461848AA
:10375000FFF74EFE00E000BF6037BD4680BD00BFF2
:10376000003B0008A4000020043B00080C3B0008BC
:10377000203B0008343B00083C3B0008483B000865
:103780005C3B0008643B00087C3B0008843B00086D
:10379000A03B0008A83B0008C03B0008C83B00084D
:1037A000E03B0008E83B0008043C00081C3C000823
:1037B000203C000880B584B000AF78600023FB6037
:1037C0000448FFF715FE0123FB60FB68184610371D
:1037D000BD4680BD443C000890B5A9B000AFFFF7DE
:1037E000A9FC0346012B02D072B600BFFEE74FF4DE
:1037F0000040FDF7E2FDC7F898004FF40040FDF7E8
:1038000077FE07F17C03002200211846FDF78CFEAD
:1038100007F1640300221A605A609A60DA601A6144
:103820005A614FF48073BB664FF400737B660723C5
:10383000FB667F4B3B674FF416537B677D4BBB6743
:1038400007F11C0307F1640211461846FFF704FD57
:103850003B6E002B00D1FEE7774A07F11C03536152
:10386000FB6F754A1361744B01221A60724B04227C
:103870005A60714B1B68002B06D06F4B5B68012BA5
:1038800002D96E48FFF706FE1421D7F89800FDF71D
:1038900003FEC7F89400D7F894403B4604226849D9
:1038A0001846FDF79BFE231D3A4692E8030083E885
:1038B00003001821D7F89800FDF7EEFDC7F8900037
:1038C000D7F890403B4606225E491846FDF786FE33
:1038D000231D3A4692E8030083E80300D7F890409E
:1038E0003B460D2258491846FDF778FE04F10C03BB
:1038F0003A4692E8030083E80300D7F89030534A31
:103900005A61D7F89430DB68002B0FD1D7F8943088
:10391000D7F890201A61D7F894301A69D7F8943004
:10392000DA60D7F8903000221A600EE0D7F89430B1
:103930001B69D7F890201A60D7F89430D7F89020F8
:103940001A61D7F8903000221A603B4B9B68002B1D
:103950000CD1394AD7F89430D360374BDB68364AFC
:103960009360D7F8943000221A600CE0324BDB6889
:10397000D7F894201A60304AD7F89430D360D7F83B
:10398000943000221A604023C7F88C30FB6FD7F8C0
:103990008C101846FDF780FDC7F8880007F1140366
:1039A00000221A605A60D7F888307B61D7F88C30D3
:1039B000BB61D7F88C309AB207F11C004FF47A73D0
:1039C000D7F88810FFF7DDF8034687F8873097F8B7
:1039D0008730012B25D00023C7F89C301BE0D7F897
:1039E0008820D7F89C3013441B780A2B0ED107F19E
:1039F0000C00D7F89C3007F1140206CAFDF73EFE12
:103A000007F10C0393E80300FFF770FDD7F89C3033
:103A10000133C7F89C30D7F89C20D7F88C309A42F5
:103A2000DDD307F17C0393E80300FDF7C7FDAAE7A8
:103A3000000C024000480040A40000205C3C00084C
:103A4000803C0008883C0008903C0008B53700081E
:103A5000F8B500BFF8BC08BC9E467047F8B500BF7B
:083A6000F8BC08BC9E4670474B
:103A6800464154414C204552524F522054524947E6
:103A7800474552454421202825733A25733A256441
:103A8800290A222573220A00464154414C204552F6
:103A9800524F52204552524E4F20545249474745A3
:103AA80052454421202825733A25733A2564290A6A
:103AB80025730A222573220A00000000756E6B6EBA
:103AC8006F776E004552524F520000005741524ED8
:103AD800494E4700494E464F0000000044454255B4
:103AE80047000000564552424F534500256C752E3D
:103AF8002530336C752000002000000048656C708C
:103B08000A0000004C6F6767696E6720656E616226
:103B18006C65640A000000004C6F6767696E672077
:103B280064697361626C65640A000000656E6162B5
:103B38006C65640064697361626C65640000000010
:103B48002573206C6F6767696E672069732025731A
:103B58000A0000006572726F720000004C6F6720E7
:103B68006C6576656C2073657420746F20455252BD
:103B78004F520A007761726E696E67004C6F67205A
:103B88006C6576656C2073657420746F205741529C
:103B98004E494E470A000000696E666F000000003B
:103BA8004C6F67206C6576656C2073657420746F44
:103BB80020494E464F0A00006465627567000000A0
:103BC8004C6F67206C6576656C2073657420746F24
:103BD8002044454255470A00766572626F73650056
:103BE8004C6F67206C6576656C2073657420746F04
:103BF80020564552424F53450A000000556E6B6EE1
:103C08006F776E20636F6D6D616E643A20252E2A82
:103C1800730A000025730A00556E6B6E6F776E206D
:103C2800636F6D6D616E6420696E766F6361746930
:103C38006F6E3A20252E2A730A000000756172748F
:103C48002073746174757320636F6D6D616E640A9F
:103C580000000000494E464F20286D61696E293AE0
:103C680020696E697469616C6973656420636F6E3D
:103C7800736F6C650A0000007561727400000000C3
:103C880073746174757300005072696E7473207375
:103C9800746174757300000000202020202020200B
:103CA80020202828282828202020202020202020E4
:103CB80020202020202020202088101010101010F4
:103CC8001010101010101010100404040404040440
:103CD80004040410101010101010414141414141DA
:103CE80001010101010101010101010101010101BC
:103CF80001010101101010101010424242424242CC
:103D0800020202020202020202020202020202028B
:103D18000202020210101010200000000000000033
:103D2800000000000000000000000000000000008B
:103D3800000000000000000000000000000000007B
:103D4800000000000000000000000000000000006B
:103D5800000000000000000000000000000000005B
:103D6800000000000000000000000000000000004B
:103D7800000000000000000000000000000000003B
:103D8800000000000000000000000000000000002B
:103D9800000000000000000000000000000000001B
:103DA800000000000000000000000000000000000B
:103DB80000000000000000000000000000000000FB
:103DC80000000000000000000000000000000000EB
:103DD80000000000000000000000000000000000DB
:103DE80000000000000000000000000000000000CB
:103DF80000000000000000000000000000000000BB
:103E08000000000001020304060708090000000082
:103E18000102030430313233343536373839414200
:103E280043444546000000003031323334353637DC
:103E3800383961626364656600000000232D302B09
:103E480020000000686C4C00656667454647000026
:083E580048D2FF7F01000000C9
:043E6000190200083B
:043E6400F101000860
:103E68000400002000000000E43D0008C43D0008F4
:103E7800A43D000800000000000000000000000051
:103E8800000000000000000000000000000000002A
:103E9800000000000000000000000000000000001A
:103EA800000000000000000000000000000000000A
:103EB80000000000000000000000000000000000FA
:103EC800000000000024F4001000000001000000C1
:040000050800136973
:00000001FF
