:020000040800F2
:100000000000032015090008390E00083F0E000803
:10001000450E00084B0E0008510E000800000000BD
:10002000000000000000000000000000570E000863
:10003000650E000800000000730E0008810E000825
:1000400065090008650900086509000865090008D8
:1000500065090008650900086509000865090008C8
:1000600065090008650900086509000865090008B8
:1000700065090008650900086509000865090008A8
:100080006509000865090008650900086509000898
:100090006509000865090008650900086509000888
:1000A0006509000865090008650900086509000878
:1000B0006509000865090008650900086509000868
:1000C0006509000865090008650900086509000858
:1000D0006509000865090008650900086509000848
:1000E0006509000865090008650900086509000838
:1000F0006509000865090008650900086509000828
:100100006509000865090008650900086509000817
:100110006509000865090008650900086509000807
:1001200065090008650900086509000865090008F7
:1001300065090008650900086509000865090008E7
:1001400065090008650900086509000865090008D7
:1001500065090008650900086509000865090008C7
:1001600065090008650900086509000865090008B7
:10017000650900086509000865090008000000001D
:100180006509000865090008650900086509000897
:100190006509000865090008650900086509000887
:0C01A000650900086509000865090008F1
:1001AC000348044B834202D0034B03B118477047FA
:1001BC007000002070000020000000000548064977
:1001CC000B1AD90F01EBA301491002D0034B03B159
:1001DC0018477047700000207000002000000000DD
:1001EC0010B5064C237843B9FFF7DAFF044B13B173
:1001FC000448AFF300800123237010BD7000002071
:10020C0000000000AC28000808B5044B1BB10449E1
:10021C000448AFF30080BDE80840CFE700000000C1
:10022C0074000020AC280008014B1868704700BF10
:10023C000000002070B50D4E0D4D761BB61006D08B
:10024C000024013455F8043B9847A642F9D1094ED5
:10025C00094D761B02F024FBB61006D000240134A5
:10026C0055F8043B9847A642F9D170BDF02A000816
:10027C00F02A0008F42A0008F02A0008024B014674
:10028C00186800F04BB900BF00000020024B01467B
:10029C00186800F0EDB800BF00000020844641EA69
:1002AC00000313F003036DD1403A41D351F8043BE2
:1002BC0040F8043B51F8043B40F8043B51F8043B34
:1002CC0040F8043B51F8043B40F8043B51F8043B24
:1002DC0040F8043B51F8043B40F8043B51F8043B14
:1002EC0040F8043B51F8043B40F8043B51F8043B04
:1002FC0040F8043B51F8043B40F8043B51F8043BF4
:10030C0040F8043B51F8043B40F8043B51F8043BE3
:10031C0040F8043B51F8043B40F8043B51F8043BD3
:10032C0040F8043B51F8043B40F8043B403ABDD242
:10033C00303211D351F8043B40F8043B51F8043BE4
:10034C0040F8043B51F8043B40F8043B51F8043BA3
:10035C0040F8043B103AEDD20C3205D351F8043B73
:10036C0040F8043B043AF9D2043208D0D2071CBF3F
:10037C0011F8013B00F8013B01D30B880380604668
:10038C00704700BF082A13D38B078DD010F00303DE
:10039C008AD0C3F10403D21ADB071CBF11F8013B4E
:1003AC0000F8013B80D331F8023B20F8023B7BE79D
:1003BC00043AD9D3013A11F8013B00F8013BF9D2C8
:1003CC000B7803704B7843708B7883706046704762
:1003DC00F0B4860746D0541E002A3CD0CAB203465D
:1003EC0002E014F1FF3436D303F8012B9D07F8D14A
:1003FC00032C29D9CDB245EA05250F2C45EA054534
:10040C0033D9A4F11006360903F1200707EB0617C0
:10041C0003F1100242E9045542E902551032BA4286
:10042C00F8D1721C14F00C0F03EB021204F00F063F
:10043C0013D0331F23F003030433134442F8045B3B
:10044C009342FBD106F003042CB1C9B21C4403F84F
:10045C00011B9C42FBD1F0BC704734461346002C68
:10046C00F3D1F8E714460346C2E71A462646E0E7FE
:10047C0000293CD038B551F8043C0C1F002BB8BFF8
:10048C00E418054600F0C0F8234B1A682AB1A242C2
:10049C000DD921686018824223D0626028461C6006
:1004AC00BDE8384000F0B2B8A34203D81A465368EE
:1004BC00002BF9D111685018A04219D024D821680A
:1004CC006018834206D0636054602846BDE838400B
:1004DC0000F09CB8D3E900030144636021605460D0
:1004EC00F3E7D2E90002014462602160D6E770476D
:1004FC0020680144501883421160E6D1D3E900030F
:10050C00014453601160E0E70C232B602846BDE8E2
:10051C00384000F07BB800BF8C000020F8B5CD1C33
:10052C0025F0030508350C2D38BF0C25002D06468B
:10053C0033DBA94231D82A4F00F066F83A6852B141
:10054C0013685B1B04D43FE023685B1B29D5224650
:10055C005468002CF8D1796800293BD029463046E4
:10056C0000F040F8431C28D0C41C24F00304A04223
:10057C0005D0211A304600F035F801301DD0256029
:10058C00304600F043F804F10B0020F00700231D67
:10059C00C21A01D01B1AA350F8BD0C2232600020E5
:1005AC00F8BD0B2B05D8A242636811D05360E7E766
:1005BC00144623601C442560E2E70C23304633606C
:1005CC0000F024F80020F8BD0B2BF1D8536814462A
:1005DC003B60D5E7304600F005F87860BEE700BF19
:1005EC008C00002038B5074C0023054608462360D4
:1005FC0000F046FC431C00D038BD2368002BFBD018
:10060C002B6038BDA8000020704700BF704700BFAA
:10061C0053B94AB9002908BF00281CBF4FF0FF315D
:10062C004FF0FF3000F06EB9ADF1080C6DE904CE5F
:10063C0000F006F8DDF804E0DDE9022304B07047B1
:10064C002DE9F047089D04468C46002B40F0838032
:10065C008A42174647D9B2FA82F242B1C2F120005F
:10066C0024FA00F09140974040EA010C94404FEA84
:10067C001748230CBCFBF8F61FFA87FE08FB16C1C3
:10068C0043EA014306FB0EF1994209D9FB1806F126
:10069C00FF3080F01981994240F21681023E3B44B2
:1006AC005B1AA4B2B3FBF8F008FB103344EA034422
:1006BC0000FB0EFEA64509D93C1900F1FF3380F072
:1006CC000581A64540F2028102383C4440EA0640CE
:1006DC00A4EB0E0400261DB1D4400023C5E9004351
:1006EC003146BDE8F08702B9FFDEB2FA82F2002A89
:1006FC0050D1CB1B4FEA174E1FFA87F80126B3FBDC
:10070C00FEFC210C0EFB1C3341EA034108FB0CF3ED
:10071C008B4207D979180CF1FF3002D28B4200F2D0
:10072C00E9808446C91AA3B2B1FBFEF00EFB10118E
:10073C0043EA014408FB00F8A04507D93C1900F135
:10074C00FF3302D2A04500F2D9801846A4EB08046E
:10075C0040EA0C40BFE78B4209D9002D00F0B18074
:10076C000026C5E9000130463146BDE8F087B3FAF2
:10077C0083F6002E4AD18B4202D3824200F2B8801B
:10078C00841A61EB030101208C46002DA8D0C5E929
:10079C00004CA5E7C2F1200320FA03F6974001FABA
:1007AC0002F04FEA174ED9403043030CB1FBFEF672
:1007BC001FFA87F80EFB161143EA014306FB08F1FA
:1007CC00994204FA02F409D9FB1806F1FF3C80F0B7
:1007DC008D80994240F28A80023E3B445B1A81B282
:1007EC00B3FBFEF00EFB103341EA034100FB08F3B0
:1007FC008B4207D9791800F1FF3C73D28B4271D927
:10080C0002383944CB1A40EA064678E7C6F1200C88
:10081C0003FA06F422FA0CF31C4320FA0CF701FA43
:10082C0006F34FEA144E21FA0CF11F433B0CB1FBBB
:10083C00FEF91FFA84F80EFB191143EA014109FB7A
:10084C0008FA8A4502FA06F200FA06F308D961188A
:10085C0009F1FF3048D28A4546D9A9F10209214451
:10086C00A1EB0A01BFB2B1FBFEF00EFB101147EA7F
:10087C00014700FB08F8B84507D9E71900F1FF312B
:10088C002ED2B8452CD90238274440EA0940A7EBB0
:10089C000807A0FB02894F45C64649461AD317D014
:1008AC005DB1B3EB0E0267EB010707FA0CFCF240EB
:1008BC004CEA0202F740C5E9002700263146BDE8A4
:1008CC00F0872E4628460BE70646E9E61846FDE675
:1008DC004345E5D2B8EB020E69EB04010138DFE7C2
:1008EC000846D2E760468DE78146B9E7664675E76C
:1008FC0030464AE7ACF1020C394413E702383C4469
:10090C0024E700BF704700BFDFF834D00D480E4914
:10091C000E4A002302E0D458C4500433C4188C424D
:10092C00F9D30B4A0B4C002301E013600432A242B2
:10093C00FBD300F0DBFAFFF77DFC01F0C7FE70473C
:10094C00000003200000002070000020F82A00089E
:10095C0070000020AC000020FEE780B584B000AF32
:10096C0078607868FFF78AFC0346FB60FB6803F548
:10097C00C872FB681A60FB687A689A60FB6814227C
:10098C00DA60FB6808221A61FB6818461037BD460E
:10099C0080BD80B48DB000AFF860B9607A60002380
:1009AC00FB62FB681B697A68934238BF1346BB62D3
:1009BC00FB68DB687B62FB687A6A13443B623B6AC8
:1009CC005A42BB6A5B4213405B42FB61FA693B6A69
:1009DC00D31ABB617A6ABB691A44BB681A44FB68B8
:1009EC009B689A4210D8FB687B617A6ABB69134496
:1009FC007A691344FB627A6ABB691344BA6813447C
:100A0C003B61FB683A69DA60FB6A18463437BD46CD
:100A1C005DF8047B704780B582B000AF78603960B8
:100A2C007B681B691A4639687868FFF7B2FF034682
:100A3C0018460837BD4680BD80B485B000AF7860DD
:100A4C0039603B68142B38BF1423FB607B68DB6870
:100A5C00FA689A4202D27B68FA68DA6000BF1437EF
:100A6C00BD465DF8047B704780B584B000AF7860FC
:100A7C000023FB600AE07868FFF76FFF0246074926
:100A8C00FB6841F82320FB680133FB60FB68012BFA
:100A9C00F1D900BF00BF1037BD4680BD94000020C7
:100AAC0080B48BB000AFF860B9607A6007F11403C2
:100ABC0000221A605A6000237B6228E000233B620C
:100ACC00BB68FB610DE0FB691A6819497B6A51F838
:100ADC0023309A4202D101233B6209E0FB690433C3
:100AEC00FB617B689B00BA681344FA699A42EAD3AB
:100AFC003B6A002B08D10E4A7B6A52F823307B618B
:100B0C007B69DB68BB6105E07B6A01337B627B6AD6
:100B1C00012BD3D9FB681A4607F1140393E80300A1
:100B2C0082E80300F8682C37BD465DF8047B7047FB
:100B3C009400002080B582B000AF3B4683E80300F0
:100B4C003B687A6811461846FFF776FF00BF0837F6
:100B5C00BD4680BD80B487B000AFF860B9607A60E4
:100B6C0007F1100300221A605A60BB683B617B6876
:100B7C007B61FB681A4607F1100393E8030082E8D7
:100B8C000300F8681C37BD465DF8047B7047000015
:100B9C0090B488B000AF07F1080484E8030039462C
:100BAC0081E80C000023FB61FA687B689A4204D050
:100BBC00BB6A03F01003002B56D00123FB6100230A
:100BCC00BB6149E0BA68BB6913441A783968BB69E0
:100BDC000B441B789A420CBF01230023DBB27B61D0
:100BEC00BB6A03F02003002B2DD0BA68BB691344F9
:100BFC001B78FB74FB7C01331E4A13441B7803F0F7
:100C0C000303012B03D1FB7C03F1200200E0FA7CEF
:100C1C003968BB690B441B78BB74BB7C0133154929
:100C2C000B441B7803F00303012B02D1BB7C203354
:100C3C0000E0BB7C9A420CBF01230023DBB21A46B6
:100C4C007B6913437B617B69002B02D10023FB6121
:100C5C000AE0BB690133BB61FB68BA699A4203D2F3
:100C6C007B68BA699A42ADD3FB6918462037BD46FA
:100C7C0090BC70476C29000880B485B000AF7860D8
:100C8C007B6803F00703FB600C4BDB68BB60BA6846
:100C9C004FF6FF031340BB60FB681A02BB6813439B
:100CAC0043F0BF6343F40033BB60044ABB68D360BA
:100CBC0000BF1437BD465DF8047B704700ED00E0C3
:100CCC0080B400AF044BDB681B0A03F00703184623
:100CDC00BD465DF8047B704700ED00E080B483B046
:100CEC0000AF03463960FB7197F90730002B0ADB24
:100CFC003B68DAB20C4997F907301201D2B20B44B7
:100D0C0083F800230AE03B68DAB20849FB7903F068
:100D1C000F03043B1201D2B20B441A7600BF0C37FE
:100D2C00BD465DF8047B704700E100E000ED00E09B
:100D3C0080B489B000AFF860B9607A60FB6803F0EA
:100D4C000703FB61FB69C3F10703042B28BF0423D2
:100D5C00BB61FB690433062B02D9FB69033B00E042
:100D6C0000237B614FF0FF32BB6902FA03F3DA43D5
:100D7C00BB681A407B699A404FF0FF317B6901FADE
:100D8C0003F3D9437B680B40134318462437BD4605
:100D9C005DF8047B7047000080B582B000AF7860CE
:100DAC007B68013BB3F1807F01D301230FE00A4A3A
:100DBC007B68013B53600F214FF0FF30FFF78EFF34
:100DCC00054B00229A60044B07221A600023184638
:100DDC000837BD4680BD00BF10E000E080B483B092
:100DEC0000AF00237B60104B5B6C0F4A43F48043D5
:100DFC0053640D4B5B6C03F480437B607B68002376
:100E0C003B60094B1B6C084A43F080531364064B40
:100E1C001B6C03F080533B603B6800BF0C37BD4636
:100E2C005DF8047B704700BF0038024080B400AF0F
:100E3C00FEE780B400AFFEE780B400AFFEE780B4FD
:100E4C0000AFFEE780B400AFFEE780B400AF00BF98
:100E5C00BD465DF8047B704780B400AF00BFBD4653
:100E6C005DF8047B704780B400AF00BFBD465DF8F1
:100E7C00047B704780B500AF00F07AF800BF80BDEE
:100E8C0080B586B000AF7860144A154BD31A7B61DD
:100E9C007B693B61134B1B68002B02D1114B124A2F
:100EAC001A60104B1A687B6813443A699A4207D24D
:100EBC00FFF7BAF903460C221A604FF0FF3309E032
:100ECC00084B1B68FB60074B1A687B681344054A88
:100EDC001360FB6818461837BD4680BD0000032020
:100EEC00000400009C000020B000002080B400AF83
:100EFC00064BD3F88830054A43F47003C2F88830A7
:100F0C0000BFBD465DF8047B704700BF00ED00E0FC
:100F1C0080B582B000AF7860124B1A68124B1B7808
:100F2C0019464FF47A73B3FBF1F3B2FBF3F31846A3
:100F3C0000F065F80346002B01D001230EE07B681E
:100F4C000F2B0AD8002279684FF0FF3000F03BF8E5
:100F5C00064A7B681360002300E00123184608371B
:100F6C00BD4680BD640000206C000020680000209D
:100F7C0080B400AF064B1B781A46064B1B68134413
:100F8C00044A136000BFBD465DF8047B704700BF88
:100F9C006C000020A000002080B400AF034B1B6845
:100FAC001846BD465DF8047B704700BFA0000020CA
:100FBC0080B582B000AF78607868FFF75DFE00BF47
:100FCC000837BD4680BD80B586B000AF0346B9601A
:100FDC007A60FB7300237B61FFF772FE78617A689D
:100FEC00B9687869FFF7A4FE024697F90F301146ED
:100FFC001846FFF773FE00BF1837BD4680BD80B59D
:10100C0082B000AF78607868FFF7C6FE03461846DA
:10101C000837BD4680BD000080B586B000AF786053
:10102C007B68002B01D1012364E27B681B6803F011
:10103C000103002B75D0A34B9B6803F00C03042B0E
:10104C000CD0A04B9B6803F00C03082B12D19D4BCA
:10105C005B6803F48003B3F5800F0BD1994B1B68CD
:10106C0003F40033002B5BD07B685B68002B57D1FB
:10107C0001233FE27B685B68B3F5803F06D1914B5F
:10108C001B68904A43F4803313601DE07B685B68F7
:10109C00B3F5A02F0CD18B4B1B688A4A43F48023E9
:1010AC001360884B1B68874A43F4803313600BE052
:1010BC00844B1B68834A23F480331360814B1B6879
:1010CC00804A23F4802313607B685B68002B13D069
:1010DC00FFF762FF386108E0FFF75EFF02463B69ED
:1010EC00D31A642B01D9032304E2764B1B6803F457
:1010FC000033002BF0D014E0FFF74EFF386108E00E
:10110C00FFF74AFF02463B69D31A642B01D903232C
:10111C00F0E16C4B1B6803F40033002BF0D100E0C2
:10112C0000BF7B681B6803F00203002B63D0654B88
:10113C009B6803F00C03002B0BD0624B9B6803F0F5
:10114C000C03082B1CD15F4B5B6803F48003002B52
:10115C0016D15C4B1B6803F00203002B05D07B6897
:10116C00DB68012B01D00123C4E1564B1B6823F033
:10117C00F8027B681B69DB00524913430B603AE0B1
:10118C007B68DB68002B20D04F4B01221A60FFF7E5
:10119C0003FF386108E0FFF7FFFE02463B69D31AF4
:1011AC00022B01D90323A5E1464B1B6803F0020374
:1011BC00002BF0D0434B1B6823F0F8027B681B69B3
:1011CC00DB00404913430B6015E03F4B00221A60D3
:1011DC00FFF7E2FE386108E0FFF7DEFE02463B69EE
:1011EC00D31A022B01D9032384E1364B1B6803F07D
:1011FC000203002BF0D17B681B6803F00803002B63
:10120C0030D07B685B69002B16D0304B01221A6002
:10121C00FFF7C2FE386108E0FFF7BEFE02463B69ED
:10122C00D31A022B01D9032364E1264B5B6F03F025
:10123C000203002BF0D015E0244B00221A60FFF7BC
:10124C00ABFE386108E0FFF7A7FE02463B69D31AF4
:10125C00022B01D903234DE11A4B5B6F03F0020300
:10126C00002BF0D17B681B6803F00403002B00F00B
:10127C00A0800023FB75134B1B6C03F08053002BD9
:10128C000FD10023BB600F4B1B6C0E4A43F08053F5
:10129C0013640C4B1B6C03F08053BB60BB680123C5
:1012AC00FB750B4B1B6803F48073002B21D1084B8F
:1012BC001B68074A43F480731360FFF76DFE3861B7
:1012CC0011E000BF0038024000004742800E474248
:1012DC0000700040FFF760FE02463B69D31A022BF8
:1012EC0001D9032306E1854B1B6803F48073002BA3
:1012FC00F0D07B689B68012B06D1814B1B6F804A19
:10130C0043F0010313671CE07B689B68052B0CD131
:10131C007B4B1B6F7A4A43F004031367784B1B6FAC
:10132C00774A43F0010313670BE0754B1B6F744A4C
:10133C0023F001031367724B1B6F714A23F00403F4
:10134C0013677B689B68002B15D0FFF725FE38616F
:10135C000AE0FFF721FE02463B69D31A41F28832BC
:10136C00934201D90323C5E0654B1B6F03F00203C5
:10137C00002BEED014E0FFF70FFE38610AE0FFF708
:10138C000BFE02463B69D31A41F28832934201D9D3
:10139C000323AFE05A4B1B6F03F00203002BEED17B
:1013AC00FB7D012B05D1564B1B6C554A23F080530A
:1013BC0013647B689B69002B00F09B80504B9B68EF
:1013CC0003F00C03082B5CD07B689B69022B41D18A
:1013DC004C4B00221A60FFF7DFFD386108E0FFF785
:1013EC00DBFD02463B69D31A022B01D9032381E0B2
:1013FC00434B1B6803F00073002BF0D17B68DA6958
:10140C007B681B6A1A437B685B6A9B011A437B6887
:10141C009B6A5B08013B1B041A437B68DB6A1B0657
:10142C00374913434B60374B01221A60FFF7B4FD69
:10143C00386108E0FFF7B0FD02463B69D31A022B76
:10144C0001D9032356E02E4B1B6803F00073002BCD
:10145C00F0D04EE02B4B00221A60FFF79DFD386157
:10146C0008E0FFF799FD02463B69D31A022B01D91C
:10147C0003233FE0224B1B6803F00073002BF0D1D9
:10148C0037E07B689B69012B01D1012332E01C4BB7
:10149C005B68FB607B689B69012B28D0FB6803F4BD
:1014AC0080027B68DB699A4221D1FB6803F03F0222
:1014BC007B681B6A9A421AD1FA6847F6C0731340CC
:1014CC007A68526A9201934211D1FB6803F440325C
:1014DC007B689B6A5B08013B1B049A4207D1FB6843
:1014EC0003F070627B68DB6A1B069A4201D0012311
:1014FC0000E0002318461837BD4680BD0070004040
:10150C00003802406000474280B584B000AF78607C
:10151C0039607B68002B01D10123CCE0684B1B6840
:10152C0003F00F033A689A420CD9654B3A68D2B271
:10153C001A70634B1B6803F00F033A689A4201D090
:10154C000123B8E07B681B6803F00203002B20D05A
:10155C007B681B6803F00403002B05D0594B9B6878
:10156C00584A43F4E05393607B681B6803F008030C
:10157C00002B05D0534B9B68524A43F46043936055
:10158C00504B9B6823F0F0027B689B684D491343DA
:10159C008B607B681B6803F00103002B44D07B68D5
:1015AC005B68012B07D1474B1B6803F40033002BFE
:1015BC0019D101237FE07B685B68022B03D07B6829
:1015CC005B68032B07D13F4B1B6803F00073002BA8
:1015DC0009D101236FE03B4B1B6803F00203002B86
:1015EC0001D1012367E0374B9B6823F003027B6832
:1015FC005B68344913438B60FFF7CEFCF8600AE05C
:10160C00FFF7CAFC0246FB68D31A41F288329342B8
:10161C0001D903234FE02B4B9B6803F00C027B6832
:10162C005B689B009A42EBD1254B1B6803F00F03C0
:10163C003A689A420CD2224B3A68D2B21A70204BBA
:10164C001B6803F00F033A689A4201D0012332E081
:10165C007B681B6803F00403002B08D0194B9B68B4
:10166C0023F4E0527B68DB68164913438B607B687C
:10167C001B6803F00803002B09D0124B9B6823F462
:10168C0060427B681B69DB000E4913438B6000F0E2
:10169C0021F802460B4B9B681B0903F00F030A4908
:1016AC00CB5C22FA03F3094A1360094B1B681846FA
:1016BC00FFF72EFC002318461037BD4680BD00BF37
:1016CC00003C024000380240D02A00086400002090
:1016DC00680000202DE9B04384B000AF00237B608C
:1016EC000023FB6000233B600023BB60674B9B68BF
:1016FC0003F00C03082B0DD0082B00F2BD80002B3F
:10170C0002D0042B03D0B7E0614BBB60B7E0614B58
:10171C00BB60B4E05D4B5B6803F03F037B605B4BED
:10172C005B6803F48003002B4DD0584B5B689B091E
:10173C001A464FF0000340F2FF104FF0000102EA8E
:10174C00000803EA0109404649464FF000024FF0F9
:10175C0000034B0143EAD063420110461946B0EB3B
:10176C00080061EB09014FF000024FF000038B0100
:10177C0043EA90638201121A63EB01034FF00000FD
:10178C004FF00001D90041EA5271D00002460B46DD
:10179C0012EB080243EB09034FF000004FF000017D
:1017AC00590241EAD251500202460B4610461946E4
:1017BC007B681A464FF00003FEF72AFF02460B46E1
:1017CC001346FB604AE0314B5B689B091A464FF0AD
:1017DC00000340F2FF104FF0000102EA000403EA9C
:1017EC000105204629464FF000024FF000034B0143
:1017FC0043EAD063420110461946001B61EB050118
:10180C004FF000024FF000038B0143EA906382011A
:10181C00121A63EB01034FF000004FF00001D900E6
:10182C0041EA5271D00002460B46121945EB0303F4
:10183C004FF000004FF00001990241EA92519002E2
:10184C0002460B46104619467B681A464FF00003B9
:10185C00FEF7DEFE02460B461346FB600B4B5B6845
:10186C001B0C03F0030301335B003B60FA683B681D
:10187C00B2FBF3F3BB6002E0054BBB6000BFBB687F
:10188C0018461037BD46BDE8B08300BF0038024093
:10189C000024F40000127A0080B400AF034B1B68E4
:1018AC001846BD465DF8047B704700BF64000020FD
:1018BC0080B500AFFFF7F0FF0246054B9B689B0A13
:1018CC0003F007030349CB5C22FA03F3184680BDEF
:1018DC0000380240E02A000880B500AFFFF7DCFFBB
:1018EC000246054B9B685B0B03F007030349CB5C7B
:1018FC0022FA03F3184680BD00380240E02A0008A3
:10190C0080B489B000AF7860396000237B6100231C
:10191C003B610023BB610023FB6177E10122FB6982
:10192C0002FA03F37B613B681B687A6913403B61E5
:10193C003A697B699A4240F066813B685B6803F0C8
:10194C000303012B05D03B685B6803F00303022BF8
:10195C0030D17B689B68BB61FB695B00032202FA98
:10196C0003F3DB43BA691340BB613B68DA68FB697C
:10197C005B0002FA03F3BA691343BB617B68BA6973
:10198C009A607B685B68BB610122FB6902FA03F316
:10199C00DB43BA691340BB613B685B681B0903F00E
:1019AC000102FB6902FA03F3BA691343BB617B685A
:1019BC00BA695A603B685B6803F00303032B17D0CA
:1019CC007B68DB68BB61FB695B00032202FA03F3F3
:1019DC00DB43BA691340BB613B689A68FB695B00E7
:1019EC0002FA03F3BA691343BB617B68BA69DA6024
:1019FC003B685B6803F00303022B23D1FB69DA0815
:101A0C007B68083253F82230BB61FB6903F0070393
:101A1C009B000F2202FA03F3DB43BA691340BB614C
:101A2C003B681A69FB6903F007039B0002FA03F396
:101A3C00BA691343BB61FB69DA087B680832B96980
:101A4C0043F822107B681B68BB61FB695B000322B7
:101A5C0002FA03F3DB43BA691340BB613B685B6872
:101A6C0003F00302FB695B0002FA03F3BA69134348
:101A7C00BB617B68BA691A603B685B6803F44033EE
:101A8C00002B00F0C0800023FB60664B5B6C654A4A
:101A9C0043F480435364634B5B6C03F48043FB60FF
:101AAC00FB68614AFB699B08023352F82330BB6127
:101ABC00FB6903F003039B000F2202FA03F3DB43E1
:101ACC00BA691340BB617B68584A934237D07B6834
:101ADC00574A934231D07B68564A93422BD07B684D
:101AEC00554A934225D07B68544A93421FD07B6859
:101AFC00534A934219D07B68524A934213D07B6865
:101B0C00514A93420DD07B68504A934207D07B6870
:101B1C004F4A934201D1092312E00A2310E0082313
:101B2C000EE007230CE006230AE0052308E004235B
:101B3C0006E0032304E0022302E0012300E000237B
:101B4C00FA6902F0030292009340BA691343BB6135
:101B5C003549FB699B080233BA6941F823203D4B98
:101B6C009B68BB613B69DB43BA691340BB613B6853
:101B7C005B6803F48013002B03D0BA693B691343F1
:101B8C00BB61344ABB699360324BDB68BB613B6918
:101B9C00DB43BA691340BB613B685B6803F4001319
:101BAC00002B03D0BA693B691343BB61294ABB695B
:101BBC00D360284B5B68BB613B69DB43BA6913405C
:101BCC00BB613B685B6803F40033002B03D0BA693C
:101BDC003B691343BB611F4ABB6953601D4B1B68B8
:101BEC00BB613B69DB43BA691340BB613B685B6813
:101BFC0003F48033002B03D0BA693B691343BB61F8
:101C0C00144ABB691360FB690133FB61FB690F2B41
:101C1C007FF684AE00BF00BF2437BD465DF8047B61
:101C2C00704700BF003802400038014000000240FD
:101C3C000004024000080240000C02400010024068
:101C4C000014024000180240001C02400020024018
:101C5C0000240240003C014080B582B000AF7860A7
:101C6C007B68002B01D101233FE07B6893F83D306A
:101C7C00DBB2002B06D17B68002283F83C2078680D
:101C8C0000F037F87B68242283F83D207B681B68C2
:101C9C00DA687B681B6822F40052DA60786800F01E
:101CAC00D5F97B681B681A697B681B6822F4904223
:101CBC001A617B681B685A697B681B6822F02A02D0
:101CCC005A617B681B68DA687B681B6842F40052B7
:101CDC00DA607B6800221A647B68202283F83D203E
:101CEC007B68202283F83E20002318460837BD4627
:101CFC0080BD80B483B000AF786000BF0C37BD46A8
:101D0C005DF8047B704780B58AB002AFF860B960AB
:101D1C003B601346FB8000237B61FB6893F83D30EE
:101D2C00DBB2202B7CD1BB68002B02D0FB88002BB4
:101D3C0001D1012375E0FB6893F83C30012B01D1F4
:101D4C0002236EE0FB68012283F83C20FB68002232
:101D5C001A64FB68212283F83D20FFF71DF9786196
:101D6C00FB68FA889A84FB68FA88DA84FB689B68BB
:101D7C00B3F5805F08D1FB681B69002B04D10023ED
:101D8C00FB61BB68BB6103E0BB68FB610023BB610B
:101D9C00FB68002283F83C202AE03B6800937B69B7
:101DAC0000228021F86800F0E2F80346002B01D0F5
:101DBC00032336E0FB69002B0BD1BB691B881A4649
:101DCC00FB681B68C2F308025A60BB690233BB6133
:101DDC0007E0FB691A78FB681B685A60FB690133E2
:101DEC00FB61FB68DB8C9BB2013B9AB2FB68DA842B
:101DFC00FB68DB8C9BB2002BCFD13B6800937B69DB
:101E0C0000224021F86800F0B2F80346002B01D004
:101E1C00032306E0FB68202283F83D20002300E02A
:101E2C00022318462037BD4680BD80B58AB002AF6C
:101E3C00F860B9603B601346FB8000237B61FB6854
:101E4C0093F83E30DBB2202B40F08C80BB68002B2B
:101E5C0002D0FB88002B01D1012384E0FB6893F8AE
:101E6C003C30012B01D102237DE0FB68012283F879
:101E7C003C20FB6800221A64FB68222283F83E2077
:101E8C00FB6800221A63FFF787F87861FB68FA8811
:101E9C009A85FB68FA88DA85FB689B68B3F5805FE6
:101EAC0008D1FB681B69002B04D10023FB61BB68C4
:101EBC00BB6103E0BB68FB610023BB61FB680022D4
:101ECC0083F83C2043E03B6800937B69002220218F
:101EDC00F86800F04CF80346002B01D0032342E0D5
:101EEC00FB69002B0CD1FB681B685B689BB2C3F3CE
:101EFC0008039AB2BB691A80BB690233BB611FE04D
:101F0C00FB689B68B3F5805F07D0FB689B68002B70
:101F1C000AD1FB681B69002B06D1FB681B685B6848
:101F2C00DAB2FB691A7008E0FB681B685B68DBB20D
:101F3C0003F07F03DAB2FB691A70FB690133FB61B2
:101F4C00FB68DB8D9BB2013B9AB2FB68DA85FB68C0
:101F5C00DB8D9BB2002BB6D1FB68202283F83E2090
:101F6C00002300E0022318462037BD4680BD80B513
:101F7C0090B000AFF860B9603B601346FB7150E065
:101F8C00BB6CB3F1FF3F4CD0BB6C002B07D0FFF701
:101F9C0003F802463B68D31ABA6C9A4241D2FB68EA
:101FAC001B680C33BB62BB6A53E8003F7B627B6AE5
:101FBC0023F4D073FB63FB681B680C33FA6B7A63F6
:101FCC003B63396B7A6B41E80023FB62FB6A002BA5
:101FDC00E5D1FB681B6814337B617B6953E8003FD8
:101FEC003B613B6923F00103BB63FB681B68143343
:101FFC00BA6B3A62FB61F9693A6A41E80023BB614A
:10200C00BB69002BE5D1FB68202283F83D20FB68DF
:10201C00202283F83E20FB68002283F83C20032317
:10202C000FE0FB681B681A68BB681340BA689A42D9
:10203C000CBF01230023DBB21A46FB799A429FD0D6
:10204C00002318464037BD4680BD00002DE9F04FF7
:10205C009FB000AFF866FB6E1B681B6923F4405001
:10206C00FB6ED968FB6E1A6840EA01031361FB6EC4
:10207C009A68FB6E1B691A43FB6E5B691A43FB6E15
:10208C00DB6913433B67FB6E1B68DB6823F416416B
:10209C0021F00C01FB6E1A683B6F0B43D360FB6E97
:1020AC001B685B6923F44070FB6E9969FB6E1A68C0
:1020BC0040EA01035361FB6E1A68C54B9A4204D087
:1020CC00FB6E1A68C34B9A4203D1FFF705FC786785
:1020DC0002E0FFF7EDFB7867FB6EDB69B3F5004FB1
:1020EC0040F0B6807B6F1C464FF0000522462B4615
:1020FC00911839645B417B64D7E91023121945EBC5
:10210C0003034FF000004FF00001D90041EA527177
:10211C00D00002460B46111939666B417B66FB6E8B
:10212C005B681A464FF000039118B9635B41FB637F
:10213C00D7E90E23D7E91801FEF76AFA02460B46D7
:10214C00A54BA3FB02235B091E017B6F1C464FF0C2
:10215C00000522462B46911839635B417B63D7E916
:10216C000C23121945EB03034FF000004FF0000154
:10217C00D90041EA5271D00002460B461119B965DB
:10218C006B41FB65FB6E5B681A464FF000039118C0
:10219C00B9625B41FB62D7E90A23D7E91601FEF766
:1021AC0037FA02460B468C4BA3FB02135B096421E6
:1021BC0001FB03F3D31ADB003233874AA2FB032360
:1021CC005B095B0003F4F8731E447B6F18464FF0F9
:1021DC00000102460B4694183C625B417B62D7E9D6
:1021EC000823121841EB03034FF000044FF00005D5
:1021FC00DD0045EA5275D40022462B4614183C6586
:10220C004B417B65FB6E5B681A464FF000039118DF
:10221C00B9615B41FB61D7E90623D7E91401FEF7ED
:10222C00F7F902460B466C4BA3FB02135B096421C6
:10223C0001FB03F3D31ADB003233674AA2FB0323FF
:10224C005B0903F00702FB6E1B6832449A60B9E02D
:10225C007B6F1C464FF0000522462B4691183961C6
:10226C005B417B61D7E90423121945EB03034FF063
:10227C0000004FF00001D90041EA5271D000024633
:10228C000B4612EB040843EB0509FB6E5B68184622
:10229C004FF000014FF000024FF000038B0043EAB7
:1022AC009073820040464946FEF7B2F902460B464F
:1022BC00494BA3FB02235B091E017B6F18464FF0B1
:1022CC00000102460B469418BC605B41FB60D7E9E9
:1022DC000223121841EB03034FF000044FF00005EA
:1022EC00DD0045EA5275D40022462B461418BC6416
:1022FC004B41FB64FB6E5B6818464FF000014FF0DE
:10230C0000024FF000038B0043EA90738200D7E980
:10231C001201FEF77DF902460B462F4BA3FB02136D
:10232C005B09642101FB03F3D31A1B0132332A4AE4
:10233C00A2FB03235B0903F0F0031E447B6F1846DA
:10234C004FF0000102460B4694183C605B417B60E9
:10235C00D7E90023121841EB03034FF000044FF0B0
:10236C000005DD0045EA5275D40022462B4612EBDF
:10237C00000A43EB010BFB6E5B6818464FF0000143
:10238C004FF000024FF000038B0043EA9073820081
:10239C0050465946FEF73CF902460B460E4BA3FB42
:1023AC0002135B09642101FB03F3D31A1B013233C3
:1023BC00094AA2FB03235B0903F00F02FB6E1B68A7
:1023CC0032449A6000BF7C37BD46BDE8F08F00BF39
:1023DC0000100140001401401F85EB5180B400AF88
:1023EC0072B600BFFEE7000080B594B000AF404B62
:1023FC001B683F4A43F4007313603D4B1B683C4A17
:10240C0043F4806313603A4B1B68394A43F480737E
:10241C0013600320FEF7CCFD0020FEF779FDFEF7DC
:10242C00DDFC07F12003302200211846FDF7D0FF18
:10243C0007F10C0300221A605A609A60DA601A6184
:10244C000023BB602B4B1B6C2A4A43F08053136454
:10245C00284B1B6C03F08053BB60BB6800237B6074
:10246C00254B1B6823F44043234A43F480431360F9
:10247C00214B1B6803F440437B607B6802233B6267
:10248C000123FB6210233B630023BB6307F1200392
:10249C001846FEF7C1FD0346002B01D0FFF79EFF47
:1024AC000F23FB6000233B6100237B614FF48053BF
:1024BC00BB610023FB6107F10C0300211846FFF7F9
:1024CC0023F80346002B01D0FFF788FF00233B6065
:1024DC00084B1B6B074A43F008031363054B1B6B3C
:1024EC0003F008033B603B6800BF5037BD4680BD1E
:1024FC00003C02400038024000700040B0B5A2B071
:10250C0000AF7860396007F13C034822002118467F
:10251C00FDF75EFF07F1280300221A605A609A60EB
:10252C00DA601A613B685B68BB620223FB620123C1
:10253C003B6303237B633B689B68BB633B68DB6843
:10254C0007F1280211461846FFF7DAF93B681B68B9
:10255C00BB620223FB6201233B6303237B633B6867
:10256C009B68BB633B68DB6807F128021146184681
:10257C00FFF7C6F90023BB60284B1B6C274A43F4BA
:10258C0080231364254B1B6C03F48023BB60BB6856
:10259C0007F10C0300221A605A609A60DA601A6123
:1025AC005A619A613B681B69FB6000233B61002305
:1025BC007B610023BB610C23FB6100233B62002386
:1025CC007B623B685B69FB6307F1400407F10C0518
:1025DC000FCD0FC495E8070084E8070007F13C0312
:1025EC001846FFF739FB034687F8873097F8873092
:1025FC00002B03D00023C7F8803002E00123C7F87A
:10260C0080307B68184607F13C0348221946FDF7D9
:10261C0045FE78688837BD46B0BD00BF0038024023
:10262C0080B58EB002AF78600023FB6207F1100317
:10263C00002200211846FEF733FA7B689B68022BB8
:10264C0030D17B681B68BB62BB6A1B687B6207F17D
:10265C00180306221A491846FEF77CFA796A2023D9
:10266C00009307F118030CCB043103C9FEF790FA61
:10267C000346002B13D007F1080312221149184608
:10268C00FEF768FA104B1868B968FB689AB24FF4F9
:10269C00FA73FFF738FB034687F8233004E0012375
:1026AC00FB6201E00123FB6207F1100393E80300D6
:1026BC00FEF740FAFB6A18463037BD4680BD00BFB6
:1026CC002029000828290008A400002080B5ACB0FF
:1026DC0000AFFFF789FE4FF40040FEF73EF9C7F854
:1026EC00A8004FF40040FEF7BFF907F19403002255
:1026FC0000211846FEF7D4F907F17C0300221A607A
:10270C005A609A60DA601A615A614FF48073C7F8A4
:10271C0080304FF40073FB670723C7F88430594BA4
:10272C00C7F888304FF46143C7F88C30564BC7F864
:10273C00903007F1340307F17C0211461846FFF77D
:10274C00DDFEBB6F002B00D1FEE7504A07F13403CE
:10275C00136007F11403202200211846FDF738FE00
:10276C003B4604224A491846FEF7F4F907F11803D0
:10277C003A4692E8030083E803003B4606224549AB
:10278C001846FEF7E7F907F120033A4692E80300F2
:10279C0083E803003B4620223F491846FEF7DAF94E
:1027AC0007F128033A4692E8030083E803003B4B09
:1027BC003B6307F10C0300221A605A60FB68002B84
:1027CC0007D107F114033B613B69FB6000237B617C
:1027DC0008E03B6907F114021A6007F114033B612E
:1027EC0000237B614023C7F8A430D7F89430D7F886
:1027FC00A4101846FEF70FF9C7F8A000D7F8A430BC
:10280C009AB207F1340041F28833D7F8A010FFF7E1
:10281C000CFB034687F89F3097F89F30012B29D08B
:10282C000023C7F8AC301FE0D7F8A020D7F8AC30A5
:10283C0013441B7887F89E3097F89E300A2B18D0DB
:10284C00D7F8A020D7F8AC30D11807F134004FF4EA
:10285C00FA730122FFF757FA034687F89F30D7F82F
:10286C00AC300133C7F8AC30D7F8AC301F2BDBD908
:10287C0000E000BF07F1940393E80300FEF75AF958
:10288C00B0E700BF000C024000480040A40000204C
:10289C004029000820290008482900082D26000896
:1028AC00F8B500BFF8BC08BC9E467047F8B500BF31
:0828BC00F8BC08BC9E46704701
:1028C400464154414C204552524F5220545249479C
:1028D400474552454421202825733A25733A2564F7
:1028E400290A222573220A00464154414C204552AC
:1028F400524F52204552524E4F2054524947474559
:1029040052454421202825733A25733A2564290A1F
:1029140025730A222573220A00000000737461746F
:102924007573000053746174757320697320612D8D
:102934006F6B6179210A00002000000075617274D8
:10294400000000005072696E7420737461747573B2
:102954002E2055736167653A207561727420737413
:1029640061747573000000000020202020202020C6
:10297400202028282828282020202020202020202B
:10298400202020202020202020881010101010103B
:102994001010101010101010100404040404040487
:1029A4000404041010101010101041414141414121
:1029B4000101010101010101010101010101010103
:1029C4000101010110101010101042424242424213
:1029D40002020202020202020202020202020202D3
:1029E400020202021010101020000000000000007B
:1029F40000000000000000000000000000000000D3
:102A040000000000000000000000000000000000C2
:102A140000000000000000000000000000000000B2
:102A240000000000000000000000000000000000A2
:102A34000000000000000000000000000000000092
:102A44000000000000000000000000000000000082
:102A54000000000000000000000000000000000072
:102A64000000000000000000000000000000000062
:102A74000000000000000000000000000000000052
:102A84000000000000000000000000000000000042
:102A94000000000000000000000000000000000032
:102AA4000000000000000000000000000000000022
:102AB4000000000000000000000000000000000012
:102AC4000000000000000000000000000000000002
:102AD40000000000010203040607080900000000CA
:042AE40001020304E4
:082AE80064DBFF7F0100000028
:042AF00015020008C3
:042AF400ED010008E8
:102AF8000400002000000000B02A0008902A000806
:102B0800702A00080000000000000000000000001B
:102B180000000000000000000000000000000000AD
:102B2800000000000000000000000000000000009D
:102B3800000000000000000000000000000000008D
:102B4800000000000000000000000000000000007D
:102B5800000000000024F400100000000100000044
:0400000508000915D1
:00000001FF
